{
  "_format": "hh-sol-artifact-1",
  "contractName": "Token",
  "sourceName": "contracts/Token.sol",
  "abi": [
    {
      "inputs": [],
      "stateMutability": "nonpayable",
      "type": "constructor"
    },
    {
      "inputs": [],
      "name": "ECDSAInvalidSignature",
      "type": "error"
    },
    {
      "inputs": [
        {
          "internalType": "uint256",
          "name": "length",
          "type": "uint256"
        }
      ],
      "name": "ECDSAInvalidSignatureLength",
      "type": "error"
    },
    {
      "inputs": [
        {
          "internalType": "bytes32",
          "name": "s",
          "type": "bytes32"
        }
      ],
      "name": "ECDSAInvalidSignatureS",
      "type": "error"
    },
    {
      "inputs": [
        {
          "internalType": "address",
          "name": "spender",
          "type": "address"
        },
        {
          "internalType": "uint256",
          "name": "allowance",
          "type": "uint256"
        },
        {
          "internalType": "uint256",
          "name": "needed",
          "type": "uint256"
        }
      ],
      "name": "ERC20InsufficientAllowance",
      "type": "error"
    },
    {
      "inputs": [
        {
          "internalType": "address",
          "name": "sender",
          "type": "address"
        },
        {
          "internalType": "uint256",
          "name": "balance",
          "type": "uint256"
        },
        {
          "internalType": "uint256",
          "name": "needed",
          "type": "uint256"
        }
      ],
      "name": "ERC20InsufficientBalance",
      "type": "error"
    },
    {
      "inputs": [
        {
          "internalType": "address",
          "name": "approver",
          "type": "address"
        }
      ],
      "name": "ERC20InvalidApprover",
      "type": "error"
    },
    {
      "inputs": [
        {
          "internalType": "address",
          "name": "receiver",
          "type": "address"
        }
      ],
      "name": "ERC20InvalidReceiver",
      "type": "error"
    },
    {
      "inputs": [
        {
          "internalType": "address",
          "name": "sender",
          "type": "address"
        }
      ],
      "name": "ERC20InvalidSender",
      "type": "error"
    },
    {
      "inputs": [
        {
          "internalType": "address",
          "name": "spender",
          "type": "address"
        }
      ],
      "name": "ERC20InvalidSpender",
      "type": "error"
    },
    {
      "inputs": [
        {
          "internalType": "uint256",
          "name": "deadline",
          "type": "uint256"
        }
      ],
      "name": "ERC2612ExpiredSignature",
      "type": "error"
    },
    {
      "inputs": [
        {
          "internalType": "address",
          "name": "signer",
          "type": "address"
        },
        {
          "internalType": "address",
          "name": "owner",
          "type": "address"
        }
      ],
      "name": "ERC2612InvalidSigner",
      "type": "error"
    },
    {
      "inputs": [
        {
          "internalType": "address",
          "name": "account",
          "type": "address"
        },
        {
          "internalType": "uint256",
          "name": "currentNonce",
          "type": "uint256"
        }
      ],
      "name": "InvalidAccountNonce",
      "type": "error"
    },
    {
      "inputs": [],
      "name": "InvalidShortString",
      "type": "error"
    },
    {
      "inputs": [
        {
          "internalType": "address",
          "name": "owner",
          "type": "address"
        }
      ],
      "name": "OwnableInvalidOwner",
      "type": "error"
    },
    {
      "inputs": [
        {
          "internalType": "address",
          "name": "account",
          "type": "address"
        }
      ],
      "name": "OwnableUnauthorizedAccount",
      "type": "error"
    },
    {
      "inputs": [
        {
          "internalType": "string",
          "name": "str",
          "type": "string"
        }
      ],
      "name": "StringTooLong",
      "type": "error"
    },
    {
      "inputs": [],
      "name": "VerificationFailed",
      "type": "error"
    },
    {
      "anonymous": false,
      "inputs": [
        {
          "indexed": true,
          "internalType": "address",
          "name": "owner",
          "type": "address"
        },
        {
          "indexed": true,
          "internalType": "address",
          "name": "spender",
          "type": "address"
        },
        {
          "indexed": false,
          "internalType": "uint256",
          "name": "value",
          "type": "uint256"
        }
      ],
      "name": "Approval",
      "type": "event"
    },
    {
      "anonymous": false,
      "inputs": [],
      "name": "EIP712DomainChanged",
      "type": "event"
    },
    {
      "anonymous": false,
      "inputs": [
        {
          "indexed": true,
          "internalType": "address",
          "name": "previousOwner",
          "type": "address"
        },
        {
          "indexed": true,
          "internalType": "address",
          "name": "newOwner",
          "type": "address"
        }
      ],
      "name": "OwnershipTransferred",
      "type": "event"
    },
    {
      "anonymous": false,
      "inputs": [
        {
          "indexed": true,
          "internalType": "address",
          "name": "from",
          "type": "address"
        },
        {
          "indexed": true,
          "internalType": "address",
          "name": "to",
          "type": "address"
        },
        {
          "indexed": false,
          "internalType": "uint256",
          "name": "value",
          "type": "uint256"
        }
      ],
      "name": "Transfer",
      "type": "event"
    },
    {
      "inputs": [],
      "name": "DOMAIN_SEPARATOR",
      "outputs": [
        {
          "internalType": "bytes32",
          "name": "",
          "type": "bytes32"
        }
      ],
      "stateMutability": "view",
      "type": "function"
    },
    {
      "inputs": [
        {
          "internalType": "address",
          "name": "owner",
          "type": "address"
        },
        {
          "internalType": "address",
          "name": "spender",
          "type": "address"
        }
      ],
      "name": "allowance",
      "outputs": [
        {
          "internalType": "uint256",
          "name": "",
          "type": "uint256"
        }
      ],
      "stateMutability": "view",
      "type": "function"
    },
    {
      "inputs": [
        {
          "internalType": "address",
          "name": "spender",
          "type": "address"
        },
        {
          "internalType": "uint256",
          "name": "value",
          "type": "uint256"
        }
      ],
      "name": "approve",
      "outputs": [
        {
          "internalType": "bool",
          "name": "",
          "type": "bool"
        }
      ],
      "stateMutability": "nonpayable",
      "type": "function"
    },
    {
      "inputs": [
        {
          "internalType": "address",
          "name": "account",
          "type": "address"
        }
      ],
      "name": "balanceOf",
      "outputs": [
        {
          "internalType": "uint256",
          "name": "",
          "type": "uint256"
        }
      ],
      "stateMutability": "view",
      "type": "function"
    },
    {
      "inputs": [],
      "name": "decimals",
      "outputs": [
        {
          "internalType": "uint8",
          "name": "",
          "type": "uint8"
        }
      ],
      "stateMutability": "view",
      "type": "function"
    },
    {
      "inputs": [],
      "name": "eip712Domain",
      "outputs": [
        {
          "internalType": "bytes1",
          "name": "fields",
          "type": "bytes1"
        },
        {
          "internalType": "string",
          "name": "name",
          "type": "string"
        },
        {
          "internalType": "string",
          "name": "version",
          "type": "string"
        },
        {
          "internalType": "uint256",
          "name": "chainId",
          "type": "uint256"
        },
        {
          "internalType": "address",
          "name": "verifyingContract",
          "type": "address"
        },
        {
          "internalType": "bytes32",
          "name": "salt",
          "type": "bytes32"
        },
        {
          "internalType": "uint256[]",
          "name": "extensions",
          "type": "uint256[]"
        }
      ],
      "stateMutability": "view",
      "type": "function"
    },
    {
      "inputs": [],
      "name": "fullVerifier",
      "outputs": [
        {
          "internalType": "address",
          "name": "",
          "type": "address"
        }
      ],
      "stateMutability": "view",
      "type": "function"
    },
    {
      "inputs": [
        {
          "internalType": "address",
          "name": "to",
          "type": "address"
        },
        {
          "internalType": "uint256",
          "name": "amount",
          "type": "uint256"
        }
      ],
      "name": "mint",
      "outputs": [],
      "stateMutability": "nonpayable",
      "type": "function"
    },
    {
      "inputs": [],
      "name": "name",
      "outputs": [
        {
          "internalType": "string",
          "name": "",
          "type": "string"
        }
      ],
      "stateMutability": "view",
      "type": "function"
    },
    {
      "inputs": [
        {
          "internalType": "address",
          "name": "owner",
          "type": "address"
        }
      ],
      "name": "nonces",
      "outputs": [
        {
          "internalType": "uint256",
          "name": "",
          "type": "uint256"
        }
      ],
      "stateMutability": "view",
      "type": "function"
    },
    {
      "inputs": [
        {
          "internalType": "bytes32",
          "name": "",
          "type": "bytes32"
        }
      ],
      "name": "nullifiers",
      "outputs": [
        {
          "internalType": "bool",
          "name": "",
          "type": "bool"
        }
      ],
      "stateMutability": "view",
      "type": "function"
    },
    {
      "inputs": [],
      "name": "owner",
      "outputs": [
        {
          "internalType": "address",
          "name": "",
          "type": "address"
        }
      ],
      "stateMutability": "view",
      "type": "function"
    },
    {
      "inputs": [
        {
          "internalType": "address",
          "name": "owner",
          "type": "address"
        },
        {
          "internalType": "address",
          "name": "spender",
          "type": "address"
        },
        {
          "internalType": "uint256",
          "name": "value",
          "type": "uint256"
        },
        {
          "internalType": "uint256",
          "name": "deadline",
          "type": "uint256"
        },
        {
          "internalType": "uint8",
          "name": "v",
          "type": "uint8"
        },
        {
          "internalType": "bytes32",
          "name": "r",
          "type": "bytes32"
        },
        {
          "internalType": "bytes32",
          "name": "s",
          "type": "bytes32"
        }
      ],
      "name": "permit",
      "outputs": [],
      "stateMutability": "nonpayable",
      "type": "function"
    },
    {
      "inputs": [
        {
          "internalType": "address",
          "name": "to",
          "type": "address"
        },
        {
          "internalType": "uint256",
          "name": "amount",
          "type": "uint256"
        },
        {
          "internalType": "uint256",
          "name": "blockNum",
          "type": "uint256"
        },
        {
          "internalType": "bytes32",
          "name": "nullifier",
          "type": "bytes32"
        },
        {
          "internalType": "bytes",
          "name": "snarkProof",
          "type": "bytes"
        }
      ],
      "name": "reMint",
      "outputs": [],
      "stateMutability": "nonpayable",
      "type": "function"
    },
    {
      "inputs": [
        {
          "internalType": "address",
          "name": "to",
          "type": "address"
        },
        {
          "internalType": "uint256",
          "name": "amount",
          "type": "uint256"
        },
        {
          "internalType": "uint256",
          "name": "blockNum",
          "type": "uint256"
        },
        {
          "internalType": "bytes32",
          "name": "nullifier",
          "type": "bytes32"
        },
        {
          "internalType": "bytes",
          "name": "snarkProof",
          "type": "bytes"
        }
      ],
      "name": "reMintFullVerifier",
      "outputs": [],
      "stateMutability": "nonpayable",
      "type": "function"
    },
    {
      "inputs": [],
      "name": "renounceOwnership",
      "outputs": [],
      "stateMutability": "nonpayable",
      "type": "function"
    },
    {
      "inputs": [
        {
          "internalType": "bytes32",
          "name": "blockHash",
          "type": "bytes32"
        },
        {
          "internalType": "uint256",
          "name": "blockNum",
          "type": "uint256"
        }
      ],
      "name": "setBlockHash",
      "outputs": [],
      "stateMutability": "nonpayable",
      "type": "function"
    },
    {
      "inputs": [
        {
          "internalType": "address",
          "name": "_fullVerifier",
          "type": "address"
        },
        {
          "internalType": "address",
          "name": "_smolVerifier",
          "type": "address"
        }
      ],
      "name": "setVerifiers",
      "outputs": [],
      "stateMutability": "nonpayable",
      "type": "function"
    },
    {
      "inputs": [],
      "name": "smolVerifier",
      "outputs": [
        {
          "internalType": "address",
          "name": "",
          "type": "address"
        }
      ],
      "stateMutability": "view",
      "type": "function"
    },
    {
      "inputs": [],
      "name": "symbol",
      "outputs": [
        {
          "internalType": "string",
          "name": "",
          "type": "string"
        }
      ],
      "stateMutability": "view",
      "type": "function"
    },
    {
      "inputs": [],
      "name": "totalSupply",
      "outputs": [
        {
          "internalType": "uint256",
          "name": "",
          "type": "uint256"
        }
      ],
      "stateMutability": "view",
      "type": "function"
    },
    {
      "inputs": [
        {
          "internalType": "address",
          "name": "to",
          "type": "address"
        },
        {
          "internalType": "uint256",
          "name": "value",
          "type": "uint256"
        }
      ],
      "name": "transfer",
      "outputs": [
        {
          "internalType": "bool",
          "name": "",
          "type": "bool"
        }
      ],
      "stateMutability": "nonpayable",
      "type": "function"
    },
    {
      "inputs": [
        {
          "internalType": "address",
          "name": "from",
          "type": "address"
        },
        {
          "internalType": "address",
          "name": "to",
          "type": "address"
        },
        {
          "internalType": "uint256",
          "name": "value",
          "type": "uint256"
        }
      ],
      "name": "transferFrom",
      "outputs": [
        {
          "internalType": "bool",
          "name": "",
          "type": "bool"
        }
      ],
      "stateMutability": "nonpayable",
      "type": "function"
    },
    {
      "inputs": [
        {
          "internalType": "address",
          "name": "newOwner",
          "type": "address"
        }
      ],
      "name": "transferOwnership",
      "outputs": [],
      "stateMutability": "nonpayable",
      "type": "function"
    }
  ],
  "bytecode": "0x61016060405234801562000011575f80fd5b50604051806040016040528060058152602001643a37b5b2b760d91b81525080604051806040016040528060018152602001603160f81b81525033604051806040016040528060058152602001643a37b5b2b760d91b815250604051806040016040528060038152602001623a35b760e91b815250816003908162000097919062000308565b506004620000a6828262000308565b5050506001600160a01b038116620000d857604051631e4fbdf760e01b81525f60048201526024015b60405180910390fd5b620000e3816200019f565b50620000f1826006620001f0565b6101205262000102816007620001f0565b61014052815160208084019190912060e052815190820120610100524660a0526200018f60e05161010051604080517f8b73c3c69bb8fe3d512ecc4cf759cc79239f7b179b0ffacaa9a75d522b39400f60208201529081019290925260608201524660808201523060a08201525f9060c00160405160208183030381529060405280519060200120905090565b60805250503060c0525062000446565b600580546001600160a01b038381166001600160a01b0319831681179093556040519116919082907f8be0079c531659141344cd1fd0a4f28419497f9722a3daafe3b4186f6b6457e0905f90a35050565b5f6020835110156200020f57620002078362000228565b905062000222565b816200021c848262000308565b5060ff90505b92915050565b5f80829050601f8151111562000255578260405163305a27a960e01b8152600401620000cf9190620003d4565b8051620002628262000422565b179392505050565b634e487b7160e01b5f52604160045260245ffd5b600181811c908216806200029357607f821691505b602082108103620002b257634e487b7160e01b5f52602260045260245ffd5b50919050565b601f8211156200030357805f5260205f20601f840160051c81016020851015620002df5750805b601f840160051c820191505b8181101562000300575f8155600101620002eb565b50505b505050565b81516001600160401b038111156200032457620003246200026a565b6200033c816200033584546200027e565b84620002b8565b602080601f83116001811462000372575f84156200035a5750858301515b5f19600386901b1c1916600185901b178555620003cc565b5f85815260208120601f198616915b82811015620003a25788860151825594840194600190910190840162000381565b5085821015620003c057878501515f19600388901b60f8161c191681555b505060018460011b0185555b505050505050565b5f602080835283518060208501525f5b818110156200040257858101830151858201604001528201620003e4565b505f604082860101526040601f19601f8301168501019250505092915050565b80516020808301519190811015620002b2575f1960209190910360031b1b16919050565b60805160a05160c05160e051610100516101205161014051611652620004985f395f610bcf01525f610ba201525f610a9901525f610a7101525f6109cc01525f6109f601525f610a2001526116525ff3fe608060405234801561000f575f80fd5b5060043610610153575f3560e01c806370a08231116100bf5780638f31746a116100795780638f31746a146102f157806395d89b4114610304578063a9059cbb1461030c578063d505accf1461031f578063dd62ed3e14610332578063f2fde38b1461036a575f80fd5b806370a082311461026f578063715018a6146102975780637c154d401461029f5780637ecebe00146102b257806384b0196e146102c55780638da5cb5b146102e0575f80fd5b8063313ce56711610110578063313ce567146101f45780633644e5151461020357806340c10f191461020b5780635225d4eb1461021e57806352569f56146102495780636688321b1461025c575f80fd5b806306fdde0314610157578063095ea7b31461017557806318160ddd1461019857806323b872dd146101aa5780632997e86b146101bd5780632e2766dc146101df575b5f80fd5b61015f61037d565b60405161016c919061123a565b60405180910390f35b61018861018336600461126e565b61040d565b604051901515815260200161016c565b6002545b60405190815260200161016c565b6101886101b8366004611296565b610426565b6101886101cb3660046112cf565b60096020525f908152604090205460ff1681565b6101f26101ed3660046112e6565b610449565b005b6040516012815260200161016c565b61019c610474565b6101f261021936600461126e565b610482565b600b54610231906001600160a01b031681565b6040516001600160a01b03909116815260200161016c565b6101f261025736600461137d565b610490565b600a54610231906001600160a01b031681565b61019c61027d36600461139d565b6001600160a01b03165f9081526020819052604090205490565b6101f26104a8565b6101f26102ad3660046113b6565b6104bb565b61019c6102c036600461139d565b6105a8565b6102cd6105c5565b60405161016c97969594939291906113e7565b6005546001600160a01b0316610231565b6101f26102ff3660046112e6565b610607565b61015f61062a565b61018861031a36600461126e565b610639565b6101f261032d36600461147e565b610646565b61019c6103403660046113b6565b6001600160a01b039182165f90815260016020908152604080832093909416825291909152205490565b6101f261037836600461139d565b61077c565b60606003805461038c906114eb565b80601f01602080910402602001604051908101604052809291908181526020018280546103b8906114eb565b80156104035780601f106103da57610100808354040283529160200191610403565b820191905f5260205f20905b8154815290600101906020018083116103e657829003601f168201915b5050505050905090565b5f3361041a8185856107b9565b60019150505b92915050565b5f336104338582856107cb565b61043e858585610846565b506001949350505050565b61046c868686868686600a5f9054906101000a90046001600160a01b03166108a3565b505050505050565b5f61047d6109c0565b905090565b61048c8282610ae9565b5050565b610498610b1d565b5f908152600c6020526040902055565b6104b0610b1d565b6104b95f610b4a565b565b6104c3610b1d565b600a546001600160a01b0316156105215760405162461bcd60e51b815260206004820152601d60248201527f766572696669657220697320616c7265616479207365742073696c6c7900000060448201526064015b60405180910390fd5b600b546001600160a01b03161561057a5760405162461bcd60e51b815260206004820152601d60248201527f766572696669657220697320616c7265616479207365742073696c6c790000006044820152606401610518565b600b80546001600160a01b039384166001600160a01b031991821617909155600a8054929093169116179055565b6001600160a01b0381165f90815260086020526040812054610420565b5f6060805f805f60606105d6610b9b565b6105de610bc8565b604080515f80825260208201909252600f60f81b9b939a50919850469750309650945092509050565b61046c868686868686600b5f9054906101000a90046001600160a01b03166108a3565b60606004805461038c906114eb565b5f3361041a818585610846565b8342111561066a5760405163313c898160e11b815260048101859052602401610518565b5f7f6e71edae12b1b97f4d1f60370fef10105fa2faae0126114a169c64845d6126c98888886106b58c6001600160a01b03165f90815260086020526040902080546001810190915590565b6040805160208101969096526001600160a01b0394851690860152929091166060840152608083015260a082015260c0810186905260e0016040516020818303038152906040528051906020012090505f61070f82610bf5565b90505f61071e82878787610c21565b9050896001600160a01b0316816001600160a01b031614610765576040516325c0072360e11b81526001600160a01b0380831660048301528b166024820152604401610518565b6107708a8a8a6107b9565b50505050505050505050565b610784610b1d565b6001600160a01b0381166107ad57604051631e4fbdf760e01b81525f6004820152602401610518565b6107b681610b4a565b50565b6107c68383836001610c4d565b505050565b6001600160a01b038381165f908152600160209081526040808320938616835292905220545f198114610840578181101561083257604051637dc7a0d960e11b81526001600160a01b03841660048201526024810182905260448101839052606401610518565b61084084848484035f610c4d565b50505050565b6001600160a01b03831661086f57604051634b637e8f60e11b81525f6004820152602401610518565b6001600160a01b0382166108985760405163ec442f0560e01b81525f6004820152602401610518565b6107c6838383610d1f565b5f8481526009602052604090205460ff16156109015760405162461bcd60e51b815260206004820152601960248201527f6275726e206164647265737320616c72656164792075736564000000000000006044820152606401610518565b5f858152600c60205260408120549061091c89898489610e45565b604051633a94343960e21b81529091506001600160a01b0384169063ea50d0e49061094f90889088908690600401611523565b602060405180830381865afa15801561096a573d5f803e3d5ffd5b505050506040513d601f19601f8201168201806040525081019061098e919061159b565b6109ab5760405163439cc0cd60e01b815260040160405180910390fd5b6109b58989610ae9565b505050505050505050565b5f306001600160a01b037f000000000000000000000000000000000000000000000000000000000000000016148015610a1857507f000000000000000000000000000000000000000000000000000000000000000046145b15610a4257507f000000000000000000000000000000000000000000000000000000000000000090565b61047d604080517f8b73c3c69bb8fe3d512ecc4cf759cc79239f7b179b0ffacaa9a75d522b39400f60208201527f0000000000000000000000000000000000000000000000000000000000000000918101919091527f000000000000000000000000000000000000000000000000000000000000000060608201524660808201523060a08201525f9060c00160405160208183030381529060405280519060200120905090565b6001600160a01b038216610b125760405163ec442f0560e01b81525f6004820152602401610518565b61048c5f8383610d1f565b6005546001600160a01b031633146104b95760405163118cdaa760e01b8152336004820152602401610518565b600580546001600160a01b038381166001600160a01b0319831681179093556040519116919082907f8be0079c531659141344cd1fd0a4f28419497f9722a3daafe3b4186f6b6457e0905f90a35050565b606061047d7f00000000000000000000000000000000000000000000000000000000000000006006610f6a565b606061047d7f00000000000000000000000000000000000000000000000000000000000000006007610f6a565b5f610420610c016109c0565b8360405161190160f01b8152600281019290925260228201526042902090565b5f805f80610c3188888888611013565b925092509250610c4182826110db565b50909695505050505050565b6001600160a01b038416610c765760405163e602df0560e01b81525f6004820152602401610518565b6001600160a01b038316610c9f57604051634a1406b160e11b81525f6004820152602401610518565b6001600160a01b038085165f908152600160209081526040808320938716835292905220829055801561084057826001600160a01b0316846001600160a01b03167f8c5be1e5ebec7d5bd14f71427d1e84f3dd0314c0f7b2291e5b200ac8c7c3b92584604051610d1191815260200190565b60405180910390a350505050565b6001600160a01b038316610d49578060025f828254610d3e91906115ce565b90915550610db99050565b6001600160a01b0383165f9081526020819052604090205481811015610d9b5760405163391434e360e21b81526001600160a01b03851660048201526024810182905260448101839052606401610518565b6001600160a01b0384165f9081526020819052604090209082900390555b6001600160a01b038216610dd557600280548290039055610df3565b6001600160a01b0382165f9081526020819052604090208054820190555b816001600160a01b0316836001600160a01b03167fddf252ad1be2c89b69c2b068fc378daa952ba7f163c4a11628f55a4df523b3ef83604051610e3891815260200190565b60405180910390a3505050565b604080516042808252610860820190925260609185916001600160a01b038816915f9190602082016108408036833701905050905081815f81518110610e8d57610e8d6115e1565b602090810291909101015260015b6021811015610eeb5783610eb06001836115f5565b60208110610ec057610ec06115e1565b835191901a90839083908110610ed857610ed86115e1565b6020908102919091010152600101610e9b565b5060215b6041811015610f3f5786610f046021836115f5565b60208110610f1457610f146115e1565b835191901a90839083908110610f2c57610f2c6115e1565b6020908102919091010152600101610eef565b508481604181518110610f5457610f546115e1565b6020908102919091010152979650505050505050565b606060ff8314610f8457610f7d83611193565b9050610420565b818054610f90906114eb565b80601f0160208091040260200160405190810160405280929190818152602001828054610fbc906114eb565b80156110075780601f10610fde57610100808354040283529160200191611007565b820191905f5260205f20905b815481529060010190602001808311610fea57829003601f168201915b50505050509050610420565b5f80807f7fffffffffffffffffffffffffffffff5d576e7357a4501ddfe92f46681b20a084111561104c57505f915060039050826110d1565b604080515f808252602082018084528a905260ff891692820192909252606081018790526080810186905260019060a0016020604051602081039080840390855afa15801561109d573d5f803e3d5ffd5b5050604051601f1901519150506001600160a01b0381166110c857505f9250600191508290506110d1565b92505f91508190505b9450945094915050565b5f8260038111156110ee576110ee611608565b036110f7575050565b600182600381111561110b5761110b611608565b036111295760405163f645eedf60e01b815260040160405180910390fd5b600282600381111561113d5761113d611608565b0361115e5760405163fce698f760e01b815260048101829052602401610518565b600382600381111561117257611172611608565b0361048c576040516335e2f38360e21b815260048101829052602401610518565b60605f61119f836111d0565b6040805160208082528183019092529192505f91906020820181803683375050509182525060208101929092525090565b5f60ff8216601f81111561042057604051632cd44ac360e21b815260040160405180910390fd5b5f81518084525f5b8181101561121b576020818501810151868301820152016111ff565b505f602082860101526020601f19601f83011685010191505092915050565b602081525f61124c60208301846111f7565b9392505050565b80356001600160a01b0381168114611269575f80fd5b919050565b5f806040838503121561127f575f80fd5b61128883611253565b946020939093013593505050565b5f805f606084860312156112a8575f80fd5b6112b184611253565b92506112bf60208501611253565b9150604084013590509250925092565b5f602082840312156112df575f80fd5b5035919050565b5f805f805f8060a087890312156112fb575f80fd5b61130487611253565b9550602087013594506040870135935060608701359250608087013567ffffffffffffffff80821115611335575f80fd5b818901915089601f830112611348575f80fd5b813581811115611356575f80fd5b8a6020828501011115611367575f80fd5b6020830194508093505050509295509295509295565b5f806040838503121561138e575f80fd5b50508035926020909101359150565b5f602082840312156113ad575f80fd5b61124c82611253565b5f80604083850312156113c7575f80fd5b6113d083611253565b91506113de60208401611253565b90509250929050565b60ff60f81b881681525f602060e0602084015261140760e084018a6111f7565b8381036040850152611419818a6111f7565b606085018990526001600160a01b038816608086015260a0850187905284810360c0860152855180825260208088019350909101905f5b8181101561146c57835183529284019291840191600101611450565b50909c9b505050505050505050505050565b5f805f805f805f60e0888a031215611494575f80fd5b61149d88611253565b96506114ab60208901611253565b95506040880135945060608801359350608088013560ff811681146114ce575f80fd5b9699959850939692959460a0840135945060c09093013592915050565b600181811c908216806114ff57607f821691505b60208210810361151d57634e487b7160e01b5f52602260045260245ffd5b50919050565b60408152826040820152828460608301375f606084830101525f601f19601f850116820160608101602060608584030160208601528186518084526080850191506020880194505f93505b8084101561158e578451825293820193600193909301929082019061156e565b5098975050505050505050565b5f602082840312156115ab575f80fd5b8151801515811461124c575f80fd5b634e487b7160e01b5f52601160045260245ffd5b80820180821115610420576104206115ba565b634e487b7160e01b5f52603260045260245ffd5b81810381811115610420576104206115ba565b634e487b7160e01b5f52602160045260245ffdfea2646970667358221220a553c5fb7846372493d503db2155761bc15c92b9e16b0845abbd2ed2618cd4de64736f6c63430008170033",
  "linkReferences": {},
  "deployedLinkReferences": {}
}