{
  "_format": "hh-sol-artifact-1",
  "contractName": "Token",
  "sourceName": "contracts/Token.sol",
  "abi": [
    {
      "inputs": [],
      "stateMutability": "nonpayable",
      "type": "constructor"
    },
    {
      "inputs": [],
      "name": "ECDSAInvalidSignature",
      "type": "error"
    },
    {
      "inputs": [
        {
          "internalType": "uint256",
          "name": "length",
          "type": "uint256"
        }
      ],
      "name": "ECDSAInvalidSignatureLength",
      "type": "error"
    },
    {
      "inputs": [
        {
          "internalType": "bytes32",
          "name": "s",
          "type": "bytes32"
        }
      ],
      "name": "ECDSAInvalidSignatureS",
      "type": "error"
    },
    {
      "inputs": [
        {
          "internalType": "address",
          "name": "spender",
          "type": "address"
        },
        {
          "internalType": "uint256",
          "name": "allowance",
          "type": "uint256"
        },
        {
          "internalType": "uint256",
          "name": "needed",
          "type": "uint256"
        }
      ],
      "name": "ERC20InsufficientAllowance",
      "type": "error"
    },
    {
      "inputs": [
        {
          "internalType": "address",
          "name": "sender",
          "type": "address"
        },
        {
          "internalType": "uint256",
          "name": "balance",
          "type": "uint256"
        },
        {
          "internalType": "uint256",
          "name": "needed",
          "type": "uint256"
        }
      ],
      "name": "ERC20InsufficientBalance",
      "type": "error"
    },
    {
      "inputs": [
        {
          "internalType": "address",
          "name": "approver",
          "type": "address"
        }
      ],
      "name": "ERC20InvalidApprover",
      "type": "error"
    },
    {
      "inputs": [
        {
          "internalType": "address",
          "name": "receiver",
          "type": "address"
        }
      ],
      "name": "ERC20InvalidReceiver",
      "type": "error"
    },
    {
      "inputs": [
        {
          "internalType": "address",
          "name": "sender",
          "type": "address"
        }
      ],
      "name": "ERC20InvalidSender",
      "type": "error"
    },
    {
      "inputs": [
        {
          "internalType": "address",
          "name": "spender",
          "type": "address"
        }
      ],
      "name": "ERC20InvalidSpender",
      "type": "error"
    },
    {
      "inputs": [
        {
          "internalType": "uint256",
          "name": "deadline",
          "type": "uint256"
        }
      ],
      "name": "ERC2612ExpiredSignature",
      "type": "error"
    },
    {
      "inputs": [
        {
          "internalType": "address",
          "name": "signer",
          "type": "address"
        },
        {
          "internalType": "address",
          "name": "owner",
          "type": "address"
        }
      ],
      "name": "ERC2612InvalidSigner",
      "type": "error"
    },
    {
      "inputs": [
        {
          "internalType": "address",
          "name": "account",
          "type": "address"
        },
        {
          "internalType": "uint256",
          "name": "currentNonce",
          "type": "uint256"
        }
      ],
      "name": "InvalidAccountNonce",
      "type": "error"
    },
    {
      "inputs": [],
      "name": "InvalidShortString",
      "type": "error"
    },
    {
      "inputs": [
        {
          "internalType": "address",
          "name": "owner",
          "type": "address"
        }
      ],
      "name": "OwnableInvalidOwner",
      "type": "error"
    },
    {
      "inputs": [
        {
          "internalType": "address",
          "name": "account",
          "type": "address"
        }
      ],
      "name": "OwnableUnauthorizedAccount",
      "type": "error"
    },
    {
      "inputs": [
        {
          "internalType": "string",
          "name": "str",
          "type": "string"
        }
      ],
      "name": "StringTooLong",
      "type": "error"
    },
    {
      "inputs": [],
      "name": "VerificationFailed",
      "type": "error"
    },
    {
      "anonymous": false,
      "inputs": [
        {
          "indexed": true,
          "internalType": "address",
          "name": "owner",
          "type": "address"
        },
        {
          "indexed": true,
          "internalType": "address",
          "name": "spender",
          "type": "address"
        },
        {
          "indexed": false,
          "internalType": "uint256",
          "name": "value",
          "type": "uint256"
        }
      ],
      "name": "Approval",
      "type": "event"
    },
    {
      "anonymous": false,
      "inputs": [],
      "name": "EIP712DomainChanged",
      "type": "event"
    },
    {
      "anonymous": false,
      "inputs": [
        {
          "indexed": true,
          "internalType": "address",
          "name": "previousOwner",
          "type": "address"
        },
        {
          "indexed": true,
          "internalType": "address",
          "name": "newOwner",
          "type": "address"
        }
      ],
      "name": "OwnershipTransferred",
      "type": "event"
    },
    {
      "anonymous": false,
      "inputs": [
        {
          "indexed": true,
          "internalType": "address",
          "name": "from",
          "type": "address"
        },
        {
          "indexed": true,
          "internalType": "address",
          "name": "to",
          "type": "address"
        },
        {
          "indexed": false,
          "internalType": "uint256",
          "name": "value",
          "type": "uint256"
        }
      ],
      "name": "Transfer",
      "type": "event"
    },
    {
      "inputs": [],
      "name": "DOMAIN_SEPARATOR",
      "outputs": [
        {
          "internalType": "bytes32",
          "name": "",
          "type": "bytes32"
        }
      ],
      "stateMutability": "view",
      "type": "function"
    },
    {
      "inputs": [
        {
          "internalType": "address",
          "name": "owner",
          "type": "address"
        },
        {
          "internalType": "address",
          "name": "spender",
          "type": "address"
        }
      ],
      "name": "allowance",
      "outputs": [
        {
          "internalType": "uint256",
          "name": "",
          "type": "uint256"
        }
      ],
      "stateMutability": "view",
      "type": "function"
    },
    {
      "inputs": [
        {
          "internalType": "address",
          "name": "spender",
          "type": "address"
        },
        {
          "internalType": "uint256",
          "name": "value",
          "type": "uint256"
        }
      ],
      "name": "approve",
      "outputs": [
        {
          "internalType": "bool",
          "name": "",
          "type": "bool"
        }
      ],
      "stateMutability": "nonpayable",
      "type": "function"
    },
    {
      "inputs": [
        {
          "internalType": "address",
          "name": "account",
          "type": "address"
        }
      ],
      "name": "balanceOf",
      "outputs": [
        {
          "internalType": "uint256",
          "name": "",
          "type": "uint256"
        }
      ],
      "stateMutability": "view",
      "type": "function"
    },
    {
      "inputs": [],
      "name": "decimals",
      "outputs": [
        {
          "internalType": "uint8",
          "name": "",
          "type": "uint8"
        }
      ],
      "stateMutability": "view",
      "type": "function"
    },
    {
      "inputs": [],
      "name": "eip712Domain",
      "outputs": [
        {
          "internalType": "bytes1",
          "name": "fields",
          "type": "bytes1"
        },
        {
          "internalType": "string",
          "name": "name",
          "type": "string"
        },
        {
          "internalType": "string",
          "name": "version",
          "type": "string"
        },
        {
          "internalType": "uint256",
          "name": "chainId",
          "type": "uint256"
        },
        {
          "internalType": "address",
          "name": "verifyingContract",
          "type": "address"
        },
        {
          "internalType": "bytes32",
          "name": "salt",
          "type": "bytes32"
        },
        {
          "internalType": "uint256[]",
          "name": "extensions",
          "type": "uint256[]"
        }
      ],
      "stateMutability": "view",
      "type": "function"
    },
    {
      "inputs": [],
      "name": "fullVerifier",
      "outputs": [
        {
          "internalType": "address",
          "name": "",
          "type": "address"
        }
      ],
      "stateMutability": "view",
      "type": "function"
    },
    {
      "inputs": [
        {
          "internalType": "address",
          "name": "to",
          "type": "address"
        },
        {
          "internalType": "uint256",
          "name": "amount",
          "type": "uint256"
        }
      ],
      "name": "mint",
      "outputs": [],
      "stateMutability": "nonpayable",
      "type": "function"
    },
    {
      "inputs": [],
      "name": "name",
      "outputs": [
        {
          "internalType": "string",
          "name": "",
          "type": "string"
        }
      ],
      "stateMutability": "view",
      "type": "function"
    },
    {
      "inputs": [
        {
          "internalType": "address",
          "name": "owner",
          "type": "address"
        }
      ],
      "name": "nonces",
      "outputs": [
        {
          "internalType": "uint256",
          "name": "",
          "type": "uint256"
        }
      ],
      "stateMutability": "view",
      "type": "function"
    },
    {
      "inputs": [
        {
          "internalType": "bytes32",
          "name": "",
          "type": "bytes32"
        }
      ],
      "name": "nullifiers",
      "outputs": [
        {
          "internalType": "bool",
          "name": "",
          "type": "bool"
        }
      ],
      "stateMutability": "view",
      "type": "function"
    },
    {
      "inputs": [],
      "name": "owner",
      "outputs": [
        {
          "internalType": "address",
          "name": "",
          "type": "address"
        }
      ],
      "stateMutability": "view",
      "type": "function"
    },
    {
      "inputs": [
        {
          "internalType": "address",
          "name": "owner",
          "type": "address"
        },
        {
          "internalType": "address",
          "name": "spender",
          "type": "address"
        },
        {
          "internalType": "uint256",
          "name": "value",
          "type": "uint256"
        },
        {
          "internalType": "uint256",
          "name": "deadline",
          "type": "uint256"
        },
        {
          "internalType": "uint8",
          "name": "v",
          "type": "uint8"
        },
        {
          "internalType": "bytes32",
          "name": "r",
          "type": "bytes32"
        },
        {
          "internalType": "bytes32",
          "name": "s",
          "type": "bytes32"
        }
      ],
      "name": "permit",
      "outputs": [],
      "stateMutability": "nonpayable",
      "type": "function"
    },
    {
      "inputs": [
        {
          "internalType": "address",
          "name": "to",
          "type": "address"
        },
        {
          "internalType": "uint256",
          "name": "amount",
          "type": "uint256"
        },
        {
          "internalType": "uint256",
          "name": "blockNum",
          "type": "uint256"
        },
        {
          "internalType": "bytes32",
          "name": "nullifier",
          "type": "bytes32"
        },
        {
          "internalType": "bytes",
          "name": "snarkProof",
          "type": "bytes"
        }
      ],
      "name": "reMint",
      "outputs": [],
      "stateMutability": "nonpayable",
      "type": "function"
    },
    {
      "inputs": [
        {
          "internalType": "address",
          "name": "to",
          "type": "address"
        },
        {
          "internalType": "uint256",
          "name": "amount",
          "type": "uint256"
        },
        {
          "internalType": "uint256",
          "name": "blockNum",
          "type": "uint256"
        },
        {
          "internalType": "bytes32",
          "name": "nullifier",
          "type": "bytes32"
        },
        {
          "internalType": "bytes",
          "name": "snarkProof",
          "type": "bytes"
        }
      ],
      "name": "reMintFullVerifier",
      "outputs": [],
      "stateMutability": "nonpayable",
      "type": "function"
    },
    {
      "inputs": [],
      "name": "renounceOwnership",
      "outputs": [],
      "stateMutability": "nonpayable",
      "type": "function"
    },
    {
      "inputs": [
        {
          "internalType": "bytes32",
          "name": "blockHash",
          "type": "bytes32"
        },
        {
          "internalType": "uint256",
          "name": "blockNum",
          "type": "uint256"
        }
      ],
      "name": "setBlockHash",
      "outputs": [],
      "stateMutability": "nonpayable",
      "type": "function"
    },
    {
      "inputs": [
        {
          "internalType": "address",
          "name": "_fullVerifier",
          "type": "address"
        },
        {
          "internalType": "address",
          "name": "_smolVerifier",
          "type": "address"
        }
      ],
      "name": "setVerifiers",
      "outputs": [],
      "stateMutability": "nonpayable",
      "type": "function"
    },
    {
      "inputs": [],
      "name": "smolVerifier",
      "outputs": [
        {
          "internalType": "address",
          "name": "",
          "type": "address"
        }
      ],
      "stateMutability": "view",
      "type": "function"
    },
    {
      "inputs": [],
      "name": "symbol",
      "outputs": [
        {
          "internalType": "string",
          "name": "",
          "type": "string"
        }
      ],
      "stateMutability": "view",
      "type": "function"
    },
    {
      "inputs": [],
      "name": "totalSupply",
      "outputs": [
        {
          "internalType": "uint256",
          "name": "",
          "type": "uint256"
        }
      ],
      "stateMutability": "view",
      "type": "function"
    },
    {
      "inputs": [
        {
          "internalType": "address",
          "name": "to",
          "type": "address"
        },
        {
          "internalType": "uint256",
          "name": "value",
          "type": "uint256"
        }
      ],
      "name": "transfer",
      "outputs": [
        {
          "internalType": "bool",
          "name": "",
          "type": "bool"
        }
      ],
      "stateMutability": "nonpayable",
      "type": "function"
    },
    {
      "inputs": [
        {
          "internalType": "address",
          "name": "from",
          "type": "address"
        },
        {
          "internalType": "address",
          "name": "to",
          "type": "address"
        },
        {
          "internalType": "uint256",
          "name": "value",
          "type": "uint256"
        }
      ],
      "name": "transferFrom",
      "outputs": [
        {
          "internalType": "bool",
          "name": "",
          "type": "bool"
        }
      ],
      "stateMutability": "nonpayable",
      "type": "function"
    },
    {
      "inputs": [
        {
          "internalType": "address",
          "name": "newOwner",
          "type": "address"
        }
      ],
      "name": "transferOwnership",
      "outputs": [],
      "stateMutability": "nonpayable",
      "type": "function"
    }
  ],
  "bytecode": "0x61016060405234801562000011575f80fd5b50604051806040016040528060058152602001643a37b5b2b760d91b81525080604051806040016040528060018152602001603160f81b81525033604051806040016040528060058152602001643a37b5b2b760d91b815250604051806040016040528060038152602001623a35b760e91b815250816003908162000097919062000308565b506004620000a6828262000308565b5050506001600160a01b038116620000d857604051631e4fbdf760e01b81525f60048201526024015b60405180910390fd5b620000e3816200019f565b50620000f1826006620001f0565b6101205262000102816007620001f0565b61014052815160208084019190912060e052815190820120610100524660a0526200018f60e05161010051604080517f8b73c3c69bb8fe3d512ecc4cf759cc79239f7b179b0ffacaa9a75d522b39400f60208201529081019290925260608201524660808201523060a08201525f9060c00160405160208183030381529060405280519060200120905090565b60805250503060c0525062000446565b600580546001600160a01b038381166001600160a01b0319831681179093556040519116919082907f8be0079c531659141344cd1fd0a4f28419497f9722a3daafe3b4186f6b6457e0905f90a35050565b5f6020835110156200020f57620002078362000228565b905062000222565b816200021c848262000308565b5060ff90505b92915050565b5f80829050601f8151111562000255578260405163305a27a960e01b8152600401620000cf9190620003d4565b8051620002628262000422565b179392505050565b634e487b7160e01b5f52604160045260245ffd5b600181811c908216806200029357607f821691505b602082108103620002b257634e487b7160e01b5f52602260045260245ffd5b50919050565b601f8211156200030357805f5260205f20601f840160051c81016020851015620002df5750805b601f840160051c820191505b8181101562000300575f8155600101620002eb565b50505b505050565b81516001600160401b038111156200032457620003246200026a565b6200033c816200033584546200027e565b84620002b8565b602080601f83116001811462000372575f84156200035a5750858301515b5f19600386901b1c1916600185901b178555620003cc565b5f85815260208120601f198616915b82811015620003a25788860151825594840194600190910190840162000381565b5085821015620003c057878501515f19600388901b60f8161c191681555b505060018460011b0185555b505050505050565b5f602080835283518060208501525f5b818110156200040257858101830151858201604001528201620003e4565b505f604082860101526040601f19601f8301168501019250505092915050565b80516020808301519190811015620002b2575f1960209190910360031b1b16919050565b60805160a05160c05160e051610100516101205161014051611645620004985f395f610bc201525f610b9501525f610a8c01525f610a6401525f6109bf01525f6109e901525f610a1301526116455ff3fe608060405234801561000f575f80fd5b5060043610610153575f3560e01c806370a08231116100bf5780638f31746a116100795780638f31746a146102fc57806395d89b411461030f578063a9059cbb14610317578063d505accf1461032a578063dd62ed3e1461033d578063f2fde38b14610375575f80fd5b806370a082311461027a578063715018a6146102a25780637c154d40146102aa5780637ecebe00146102bd57806384b0196e146102d05780638da5cb5b146102eb575f80fd5b8063313ce56711610110578063313ce567146101f45780633644e5151461020357806340c10f191461020b5780635225d4eb1461021e57806352569f56146102495780636688321b14610267575f80fd5b806306fdde0314610157578063095ea7b31461017557806318160ddd1461019857806323b872dd146101aa5780632997e86b146101bd5780632e2766dc146101df575b5f80fd5b61015f610388565b60405161016c919061122d565b60405180910390f35b610188610183366004611261565b610418565b604051901515815260200161016c565b6002545b60405190815260200161016c565b6101886101b8366004611289565b610431565b6101886101cb3660046112c2565b60096020525f908152604090205460ff1681565b6101f26101ed3660046112d9565b610454565b005b6040516012815260200161016c565b61019c61047f565b6101f2610219366004611261565b61048d565b600b54610231906001600160a01b031681565b6040516001600160a01b03909116815260200161016c565b6101f2610257366004611370565b5f908152600c6020526040902055565b600a54610231906001600160a01b031681565b61019c610288366004611390565b6001600160a01b03165f9081526020819052604090205490565b6101f261049b565b6101f26102b83660046113a9565b6104ae565b61019c6102cb366004611390565b61059b565b6102d86105b8565b60405161016c97969594939291906113da565b6005546001600160a01b0316610231565b6101f261030a3660046112d9565b6105fa565b61015f61061d565b610188610325366004611261565b61062c565b6101f2610338366004611471565b610639565b61019c61034b3660046113a9565b6001600160a01b039182165f90815260016020908152604080832093909416825291909152205490565b6101f2610383366004611390565b61076f565b606060038054610397906114de565b80601f01602080910402602001604051908101604052809291908181526020018280546103c3906114de565b801561040e5780601f106103e55761010080835404028352916020019161040e565b820191905f5260205f20905b8154815290600101906020018083116103f157829003601f168201915b5050505050905090565b5f336104258185856107ac565b60019150505b92915050565b5f3361043e8582856107be565b610449858585610839565b506001949350505050565b610477868686868686600a5f9054906101000a90046001600160a01b0316610896565b505050505050565b5f6104886109b3565b905090565b6104978282610adc565b5050565b6104a3610b10565b6104ac5f610b3d565b565b6104b6610b10565b600a546001600160a01b0316156105145760405162461bcd60e51b815260206004820152601d60248201527f766572696669657220697320616c7265616479207365742073696c6c7900000060448201526064015b60405180910390fd5b600b546001600160a01b03161561056d5760405162461bcd60e51b815260206004820152601d60248201527f766572696669657220697320616c7265616479207365742073696c6c79000000604482015260640161050b565b600b80546001600160a01b039384166001600160a01b031991821617909155600a8054929093169116179055565b6001600160a01b0381165f9081526008602052604081205461042b565b5f6060805f805f60606105c9610b8e565b6105d1610bbb565b604080515f80825260208201909252600f60f81b9b939a50919850469750309650945092509050565b610477868686868686600b5f9054906101000a90046001600160a01b0316610896565b606060048054610397906114de565b5f33610425818585610839565b8342111561065d5760405163313c898160e11b81526004810185905260240161050b565b5f7f6e71edae12b1b97f4d1f60370fef10105fa2faae0126114a169c64845d6126c98888886106a88c6001600160a01b03165f90815260086020526040902080546001810190915590565b6040805160208101969096526001600160a01b0394851690860152929091166060840152608083015260a082015260c0810186905260e0016040516020818303038152906040528051906020012090505f61070282610be8565b90505f61071182878787610c14565b9050896001600160a01b0316816001600160a01b031614610758576040516325c0072360e11b81526001600160a01b0380831660048301528b16602482015260440161050b565b6107638a8a8a6107ac565b50505050505050505050565b610777610b10565b6001600160a01b0381166107a057604051631e4fbdf760e01b81525f600482015260240161050b565b6107a981610b3d565b50565b6107b98383836001610c40565b505050565b6001600160a01b038381165f908152600160209081526040808320938616835292905220545f198114610833578181101561082557604051637dc7a0d960e11b81526001600160a01b0384166004820152602481018290526044810183905260640161050b565b61083384848484035f610c40565b50505050565b6001600160a01b03831661086257604051634b637e8f60e11b81525f600482015260240161050b565b6001600160a01b03821661088b5760405163ec442f0560e01b81525f600482015260240161050b565b6107b9838383610d12565b5f8481526009602052604090205460ff16156108f45760405162461bcd60e51b815260206004820152601960248201527f6275726e206164647265737320616c7265616479207573656400000000000000604482015260640161050b565b5f858152600c60205260408120549061090f89898489610e38565b604051633a94343960e21b81529091506001600160a01b0384169063ea50d0e49061094290889088908690600401611516565b602060405180830381865afa15801561095d573d5f803e3d5ffd5b505050506040513d601f19601f82011682018060405250810190610981919061158e565b61099e5760405163439cc0cd60e01b815260040160405180910390fd5b6109a88989610adc565b505050505050505050565b5f306001600160a01b037f000000000000000000000000000000000000000000000000000000000000000016148015610a0b57507f000000000000000000000000000000000000000000000000000000000000000046145b15610a3557507f000000000000000000000000000000000000000000000000000000000000000090565b610488604080517f8b73c3c69bb8fe3d512ecc4cf759cc79239f7b179b0ffacaa9a75d522b39400f60208201527f0000000000000000000000000000000000000000000000000000000000000000918101919091527f000000000000000000000000000000000000000000000000000000000000000060608201524660808201523060a08201525f9060c00160405160208183030381529060405280519060200120905090565b6001600160a01b038216610b055760405163ec442f0560e01b81525f600482015260240161050b565b6104975f8383610d12565b6005546001600160a01b031633146104ac5760405163118cdaa760e01b815233600482015260240161050b565b600580546001600160a01b038381166001600160a01b0319831681179093556040519116919082907f8be0079c531659141344cd1fd0a4f28419497f9722a3daafe3b4186f6b6457e0905f90a35050565b60606104887f00000000000000000000000000000000000000000000000000000000000000006006610f5d565b60606104887f00000000000000000000000000000000000000000000000000000000000000006007610f5d565b5f61042b610bf46109b3565b8360405161190160f01b8152600281019290925260228201526042902090565b5f805f80610c2488888888611006565b925092509250610c3482826110ce565b50909695505050505050565b6001600160a01b038416610c695760405163e602df0560e01b81525f600482015260240161050b565b6001600160a01b038316610c9257604051634a1406b160e11b81525f600482015260240161050b565b6001600160a01b038085165f908152600160209081526040808320938716835292905220829055801561083357826001600160a01b0316846001600160a01b03167f8c5be1e5ebec7d5bd14f71427d1e84f3dd0314c0f7b2291e5b200ac8c7c3b92584604051610d0491815260200190565b60405180910390a350505050565b6001600160a01b038316610d3c578060025f828254610d3191906115c1565b90915550610dac9050565b6001600160a01b0383165f9081526020819052604090205481811015610d8e5760405163391434e360e21b81526001600160a01b0385166004820152602481018290526044810183905260640161050b565b6001600160a01b0384165f9081526020819052604090209082900390555b6001600160a01b038216610dc857600280548290039055610de6565b6001600160a01b0382165f9081526020819052604090208054820190555b816001600160a01b0316836001600160a01b03167fddf252ad1be2c89b69c2b068fc378daa952ba7f163c4a11628f55a4df523b3ef83604051610e2b91815260200190565b60405180910390a3505050565b604080516042808252610860820190925260609185916001600160a01b038816915f9190602082016108408036833701905050905081815f81518110610e8057610e806115d4565b602090810291909101015260015b6021811015610ede5783610ea36001836115e8565b60208110610eb357610eb36115d4565b835191901a90839083908110610ecb57610ecb6115d4565b6020908102919091010152600101610e8e565b5060215b6041811015610f325786610ef76021836115e8565b60208110610f0757610f076115d4565b835191901a90839083908110610f1f57610f1f6115d4565b6020908102919091010152600101610ee2565b508481604181518110610f4757610f476115d4565b6020908102919091010152979650505050505050565b606060ff8314610f7757610f7083611186565b905061042b565b818054610f83906114de565b80601f0160208091040260200160405190810160405280929190818152602001828054610faf906114de565b8015610ffa5780601f10610fd157610100808354040283529160200191610ffa565b820191905f5260205f20905b815481529060010190602001808311610fdd57829003601f168201915b5050505050905061042b565b5f80807f7fffffffffffffffffffffffffffffff5d576e7357a4501ddfe92f46681b20a084111561103f57505f915060039050826110c4565b604080515f808252602082018084528a905260ff891692820192909252606081018790526080810186905260019060a0016020604051602081039080840390855afa158015611090573d5f803e3d5ffd5b5050604051601f1901519150506001600160a01b0381166110bb57505f9250600191508290506110c4565b92505f91508190505b9450945094915050565b5f8260038111156110e1576110e16115fb565b036110ea575050565b60018260038111156110fe576110fe6115fb565b0361111c5760405163f645eedf60e01b815260040160405180910390fd5b6002826003811115611130576111306115fb565b036111515760405163fce698f760e01b81526004810182905260240161050b565b6003826003811115611165576111656115fb565b03610497576040516335e2f38360e21b81526004810182905260240161050b565b60605f611192836111c3565b6040805160208082528183019092529192505f91906020820181803683375050509182525060208101929092525090565b5f60ff8216601f81111561042b57604051632cd44ac360e21b815260040160405180910390fd5b5f81518084525f5b8181101561120e576020818501810151868301820152016111f2565b505f602082860101526020601f19601f83011685010191505092915050565b602081525f61123f60208301846111ea565b9392505050565b80356001600160a01b038116811461125c575f80fd5b919050565b5f8060408385031215611272575f80fd5b61127b83611246565b946020939093013593505050565b5f805f6060848603121561129b575f80fd5b6112a484611246565b92506112b260208501611246565b9150604084013590509250925092565b5f602082840312156112d2575f80fd5b5035919050565b5f805f805f8060a087890312156112ee575f80fd5b6112f787611246565b9550602087013594506040870135935060608701359250608087013567ffffffffffffffff80821115611328575f80fd5b818901915089601f83011261133b575f80fd5b813581811115611349575f80fd5b8a602082850101111561135a575f80fd5b6020830194508093505050509295509295509295565b5f8060408385031215611381575f80fd5b50508035926020909101359150565b5f602082840312156113a0575f80fd5b61123f82611246565b5f80604083850312156113ba575f80fd5b6113c383611246565b91506113d160208401611246565b90509250929050565b60ff60f81b881681525f602060e060208401526113fa60e084018a6111ea565b838103604085015261140c818a6111ea565b606085018990526001600160a01b038816608086015260a0850187905284810360c0860152855180825260208088019350909101905f5b8181101561145f57835183529284019291840191600101611443565b50909c9b505050505050505050505050565b5f805f805f805f60e0888a031215611487575f80fd5b61149088611246565b965061149e60208901611246565b95506040880135945060608801359350608088013560ff811681146114c1575f80fd5b9699959850939692959460a0840135945060c09093013592915050565b600181811c908216806114f257607f821691505b60208210810361151057634e487b7160e01b5f52602260045260245ffd5b50919050565b60408152826040820152828460608301375f606084830101525f601f19601f850116820160608101602060608584030160208601528186518084526080850191506020880194505f93505b808410156115815784518252938201936001939093019290820190611561565b5098975050505050505050565b5f6020828403121561159e575f80fd5b8151801515811461123f575f80fd5b634e487b7160e01b5f52601160045260245ffd5b8082018082111561042b5761042b6115ad565b634e487b7160e01b5f52603260045260245ffd5b8181038181111561042b5761042b6115ad565b634e487b7160e01b5f52602160045260245ffdfea2646970667358221220af724d9aaac2e27d642ae93fccc50740275bf77c728323b470781bb17a40604464736f6c63430008170033",
  "linkReferences": {},
  "deployedLinkReferences": {}
}