{
  "_format": "hh-sol-artifact-1",
  "contractName": "Token",
  "sourceName": "contracts/Token.sol",
  "abi": [
    {
      "inputs": [],
      "stateMutability": "nonpayable",
      "type": "constructor"
    },
    {
      "inputs": [],
      "name": "ECDSAInvalidSignature",
      "type": "error"
    },
    {
      "inputs": [
        {
          "internalType": "uint256",
          "name": "length",
          "type": "uint256"
        }
      ],
      "name": "ECDSAInvalidSignatureLength",
      "type": "error"
    },
    {
      "inputs": [
        {
          "internalType": "bytes32",
          "name": "s",
          "type": "bytes32"
        }
      ],
      "name": "ECDSAInvalidSignatureS",
      "type": "error"
    },
    {
      "inputs": [
        {
          "internalType": "address",
          "name": "spender",
          "type": "address"
        },
        {
          "internalType": "uint256",
          "name": "allowance",
          "type": "uint256"
        },
        {
          "internalType": "uint256",
          "name": "needed",
          "type": "uint256"
        }
      ],
      "name": "ERC20InsufficientAllowance",
      "type": "error"
    },
    {
      "inputs": [
        {
          "internalType": "address",
          "name": "sender",
          "type": "address"
        },
        {
          "internalType": "uint256",
          "name": "balance",
          "type": "uint256"
        },
        {
          "internalType": "uint256",
          "name": "needed",
          "type": "uint256"
        }
      ],
      "name": "ERC20InsufficientBalance",
      "type": "error"
    },
    {
      "inputs": [
        {
          "internalType": "address",
          "name": "approver",
          "type": "address"
        }
      ],
      "name": "ERC20InvalidApprover",
      "type": "error"
    },
    {
      "inputs": [
        {
          "internalType": "address",
          "name": "receiver",
          "type": "address"
        }
      ],
      "name": "ERC20InvalidReceiver",
      "type": "error"
    },
    {
      "inputs": [
        {
          "internalType": "address",
          "name": "sender",
          "type": "address"
        }
      ],
      "name": "ERC20InvalidSender",
      "type": "error"
    },
    {
      "inputs": [
        {
          "internalType": "address",
          "name": "spender",
          "type": "address"
        }
      ],
      "name": "ERC20InvalidSpender",
      "type": "error"
    },
    {
      "inputs": [
        {
          "internalType": "uint256",
          "name": "deadline",
          "type": "uint256"
        }
      ],
      "name": "ERC2612ExpiredSignature",
      "type": "error"
    },
    {
      "inputs": [
        {
          "internalType": "address",
          "name": "signer",
          "type": "address"
        },
        {
          "internalType": "address",
          "name": "owner",
          "type": "address"
        }
      ],
      "name": "ERC2612InvalidSigner",
      "type": "error"
    },
    {
      "inputs": [
        {
          "internalType": "address",
          "name": "account",
          "type": "address"
        },
        {
          "internalType": "uint256",
          "name": "currentNonce",
          "type": "uint256"
        }
      ],
      "name": "InvalidAccountNonce",
      "type": "error"
    },
    {
      "inputs": [],
      "name": "InvalidShortString",
      "type": "error"
    },
    {
      "inputs": [
        {
          "internalType": "address",
          "name": "owner",
          "type": "address"
        }
      ],
      "name": "OwnableInvalidOwner",
      "type": "error"
    },
    {
      "inputs": [
        {
          "internalType": "address",
          "name": "account",
          "type": "address"
        }
      ],
      "name": "OwnableUnauthorizedAccount",
      "type": "error"
    },
    {
      "inputs": [
        {
          "internalType": "string",
          "name": "str",
          "type": "string"
        }
      ],
      "name": "StringTooLong",
      "type": "error"
    },
    {
      "inputs": [],
      "name": "VerificationFailed",
      "type": "error"
    },
    {
      "anonymous": false,
      "inputs": [
        {
          "indexed": true,
          "internalType": "address",
          "name": "owner",
          "type": "address"
        },
        {
          "indexed": true,
          "internalType": "address",
          "name": "spender",
          "type": "address"
        },
        {
          "indexed": false,
          "internalType": "uint256",
          "name": "value",
          "type": "uint256"
        }
      ],
      "name": "Approval",
      "type": "event"
    },
    {
      "anonymous": false,
      "inputs": [],
      "name": "EIP712DomainChanged",
      "type": "event"
    },
    {
      "anonymous": false,
      "inputs": [
        {
          "indexed": true,
          "internalType": "address",
          "name": "previousOwner",
          "type": "address"
        },
        {
          "indexed": true,
          "internalType": "address",
          "name": "newOwner",
          "type": "address"
        }
      ],
      "name": "OwnershipTransferred",
      "type": "event"
    },
    {
      "anonymous": false,
      "inputs": [
        {
          "indexed": true,
          "internalType": "address",
          "name": "from",
          "type": "address"
        },
        {
          "indexed": true,
          "internalType": "address",
          "name": "to",
          "type": "address"
        },
        {
          "indexed": false,
          "internalType": "uint256",
          "name": "value",
          "type": "uint256"
        }
      ],
      "name": "Transfer",
      "type": "event"
    },
    {
      "inputs": [],
      "name": "DOMAIN_SEPARATOR",
      "outputs": [
        {
          "internalType": "bytes32",
          "name": "",
          "type": "bytes32"
        }
      ],
      "stateMutability": "view",
      "type": "function"
    },
    {
      "inputs": [
        {
          "internalType": "address",
          "name": "owner",
          "type": "address"
        },
        {
          "internalType": "address",
          "name": "spender",
          "type": "address"
        }
      ],
      "name": "allowance",
      "outputs": [
        {
          "internalType": "uint256",
          "name": "",
          "type": "uint256"
        }
      ],
      "stateMutability": "view",
      "type": "function"
    },
    {
      "inputs": [
        {
          "internalType": "address",
          "name": "spender",
          "type": "address"
        },
        {
          "internalType": "uint256",
          "name": "value",
          "type": "uint256"
        }
      ],
      "name": "approve",
      "outputs": [
        {
          "internalType": "bool",
          "name": "",
          "type": "bool"
        }
      ],
      "stateMutability": "nonpayable",
      "type": "function"
    },
    {
      "inputs": [
        {
          "internalType": "address",
          "name": "account",
          "type": "address"
        }
      ],
      "name": "balanceOf",
      "outputs": [
        {
          "internalType": "uint256",
          "name": "",
          "type": "uint256"
        }
      ],
      "stateMutability": "view",
      "type": "function"
    },
    {
      "inputs": [],
      "name": "decimals",
      "outputs": [
        {
          "internalType": "uint8",
          "name": "",
          "type": "uint8"
        }
      ],
      "stateMutability": "view",
      "type": "function"
    },
    {
      "inputs": [],
      "name": "eip712Domain",
      "outputs": [
        {
          "internalType": "bytes1",
          "name": "fields",
          "type": "bytes1"
        },
        {
          "internalType": "string",
          "name": "name",
          "type": "string"
        },
        {
          "internalType": "string",
          "name": "version",
          "type": "string"
        },
        {
          "internalType": "uint256",
          "name": "chainId",
          "type": "uint256"
        },
        {
          "internalType": "address",
          "name": "verifyingContract",
          "type": "address"
        },
        {
          "internalType": "bytes32",
          "name": "salt",
          "type": "bytes32"
        },
        {
          "internalType": "uint256[]",
          "name": "extensions",
          "type": "uint256[]"
        }
      ],
      "stateMutability": "view",
      "type": "function"
    },
    {
      "inputs": [],
      "name": "fullVerifier",
      "outputs": [
        {
          "internalType": "address",
          "name": "",
          "type": "address"
        }
      ],
      "stateMutability": "view",
      "type": "function"
    },
    {
      "inputs": [
        {
          "internalType": "address",
          "name": "to",
          "type": "address"
        },
        {
          "internalType": "uint256",
          "name": "amount",
          "type": "uint256"
        }
      ],
      "name": "mint",
      "outputs": [],
      "stateMutability": "nonpayable",
      "type": "function"
    },
    {
      "inputs": [],
      "name": "name",
      "outputs": [
        {
          "internalType": "string",
          "name": "",
          "type": "string"
        }
      ],
      "stateMutability": "view",
      "type": "function"
    },
    {
      "inputs": [
        {
          "internalType": "address",
          "name": "owner",
          "type": "address"
        }
      ],
      "name": "nonces",
      "outputs": [
        {
          "internalType": "uint256",
          "name": "",
          "type": "uint256"
        }
      ],
      "stateMutability": "view",
      "type": "function"
    },
    {
      "inputs": [],
      "name": "owner",
      "outputs": [
        {
          "internalType": "address",
          "name": "",
          "type": "address"
        }
      ],
      "stateMutability": "view",
      "type": "function"
    },
    {
      "inputs": [
        {
          "internalType": "address",
          "name": "owner",
          "type": "address"
        },
        {
          "internalType": "address",
          "name": "spender",
          "type": "address"
        },
        {
          "internalType": "uint256",
          "name": "value",
          "type": "uint256"
        },
        {
          "internalType": "uint256",
          "name": "deadline",
          "type": "uint256"
        },
        {
          "internalType": "uint8",
          "name": "v",
          "type": "uint8"
        },
        {
          "internalType": "bytes32",
          "name": "r",
          "type": "bytes32"
        },
        {
          "internalType": "bytes32",
          "name": "s",
          "type": "bytes32"
        }
      ],
      "name": "permit",
      "outputs": [],
      "stateMutability": "nonpayable",
      "type": "function"
    },
    {
      "inputs": [
        {
          "internalType": "address",
          "name": "to",
          "type": "address"
        },
        {
          "internalType": "uint256",
          "name": "amount",
          "type": "uint256"
        },
        {
          "internalType": "uint256",
          "name": "blockNum",
          "type": "uint256"
        },
        {
          "internalType": "bytes",
          "name": "snarkProof",
          "type": "bytes"
        }
      ],
      "name": "reMint",
      "outputs": [],
      "stateMutability": "nonpayable",
      "type": "function"
    },
    {
      "inputs": [
        {
          "internalType": "address",
          "name": "to",
          "type": "address"
        },
        {
          "internalType": "uint256",
          "name": "amount",
          "type": "uint256"
        },
        {
          "internalType": "uint256",
          "name": "blockNum",
          "type": "uint256"
        },
        {
          "internalType": "bytes",
          "name": "snarkProof",
          "type": "bytes"
        }
      ],
      "name": "reMintFullVerifier",
      "outputs": [],
      "stateMutability": "nonpayable",
      "type": "function"
    },
    {
      "inputs": [
        {
          "internalType": "address",
          "name": "to",
          "type": "address"
        },
        {
          "internalType": "uint256",
          "name": "amount",
          "type": "uint256"
        },
        {
          "internalType": "uint256",
          "name": "blockNum",
          "type": "uint256"
        },
        {
          "internalType": "bytes",
          "name": "snarkProof",
          "type": "bytes"
        },
        {
          "internalType": "bytes32[]",
          "name": "publicInputs",
          "type": "bytes32[]"
        }
      ],
      "name": "reMintTest",
      "outputs": [],
      "stateMutability": "nonpayable",
      "type": "function"
    },
    {
      "inputs": [],
      "name": "renounceOwnership",
      "outputs": [],
      "stateMutability": "nonpayable",
      "type": "function"
    },
    {
      "inputs": [
        {
          "internalType": "address",
          "name": "_fullVerifier",
          "type": "address"
        },
        {
          "internalType": "address",
          "name": "_smolVerifier",
          "type": "address"
        }
      ],
      "name": "setVerifiers",
      "outputs": [],
      "stateMutability": "nonpayable",
      "type": "function"
    },
    {
      "inputs": [],
      "name": "smolVerifier",
      "outputs": [
        {
          "internalType": "address",
          "name": "",
          "type": "address"
        }
      ],
      "stateMutability": "view",
      "type": "function"
    },
    {
      "inputs": [],
      "name": "symbol",
      "outputs": [
        {
          "internalType": "string",
          "name": "",
          "type": "string"
        }
      ],
      "stateMutability": "view",
      "type": "function"
    },
    {
      "inputs": [],
      "name": "totalSupply",
      "outputs": [
        {
          "internalType": "uint256",
          "name": "",
          "type": "uint256"
        }
      ],
      "stateMutability": "view",
      "type": "function"
    },
    {
      "inputs": [
        {
          "internalType": "address",
          "name": "to",
          "type": "address"
        },
        {
          "internalType": "uint256",
          "name": "value",
          "type": "uint256"
        }
      ],
      "name": "transfer",
      "outputs": [
        {
          "internalType": "bool",
          "name": "",
          "type": "bool"
        }
      ],
      "stateMutability": "nonpayable",
      "type": "function"
    },
    {
      "inputs": [
        {
          "internalType": "address",
          "name": "from",
          "type": "address"
        },
        {
          "internalType": "address",
          "name": "to",
          "type": "address"
        },
        {
          "internalType": "uint256",
          "name": "value",
          "type": "uint256"
        }
      ],
      "name": "transferFrom",
      "outputs": [
        {
          "internalType": "bool",
          "name": "",
          "type": "bool"
        }
      ],
      "stateMutability": "nonpayable",
      "type": "function"
    },
    {
      "inputs": [
        {
          "internalType": "address",
          "name": "newOwner",
          "type": "address"
        }
      ],
      "name": "transferOwnership",
      "outputs": [],
      "stateMutability": "nonpayable",
      "type": "function"
    }
  ],
  "bytecode": "0x6101606040523480156200001257600080fd5b50604051806040016040528060058152602001643a37b5b2b760d91b81525080604051806040016040528060018152602001603160f81b81525033604051806040016040528060058152602001643a37b5b2b760d91b815250604051806040016040528060038152602001623a35b760e91b815250816003908162000098919062000317565b506004620000a7828262000317565b5050506001600160a01b038116620000da57604051631e4fbdf760e01b8152600060048201526024015b60405180910390fd5b620000e581620001a2565b50620000f3826006620001f4565b6101205262000104816007620001f4565b61014052815160208084019190912060e052815190820120610100524660a0526200019260e05161010051604080517f8b73c3c69bb8fe3d512ecc4cf759cc79239f7b179b0ffacaa9a75d522b39400f60208201529081019290925260608201524660808201523060a082015260009060c00160405160208183030381529060405280519060200120905090565b60805250503060c0525062000459565b600580546001600160a01b038381166001600160a01b0319831681179093556040519116919082907f8be0079c531659141344cd1fd0a4f28419497f9722a3daafe3b4186f6b6457e090600090a35050565b600060208351101562000214576200020c836200022d565b905062000227565b8162000221848262000317565b5060ff90505b92915050565b600080829050601f815111156200025b578260405163305a27a960e01b8152600401620000d19190620003e3565b8051620002688262000434565b179392505050565b634e487b7160e01b600052604160045260246000fd5b600181811c908216806200029b57607f821691505b602082108103620002bc57634e487b7160e01b600052602260045260246000fd5b50919050565b601f82111562000312576000816000526020600020601f850160051c81016020861015620002ed5750805b601f850160051c820191505b818110156200030e57828155600101620002f9565b5050505b505050565b81516001600160401b0381111562000333576200033362000270565b6200034b8162000344845462000286565b84620002c2565b602080601f8311600181146200038357600084156200036a5750858301515b600019600386901b1c1916600185901b1785556200030e565b600085815260208120601f198616915b82811015620003b45788860151825594840194600190910190840162000393565b5085821015620003d35787850151600019600388901b60f8161c191681555b5050505050600190811b01905550565b60006020808352835180602085015260005b818110156200041357858101830151858201604001528201620003f5565b506000604082860101526040601f19601f8301168501019250505092915050565b80516020808301519190811015620002bc5760001960209190910360031b1b16919050565b60805160a05160c05160e051610100516101205161014051611777620004b46000396000610be201526000610bb501526000610a2a01526000610a020152600061095d01526000610987015260006109b101526117776000f3fe608060405234801561001057600080fd5b506004361061014d5760003560e01c806370a08231116100c357806395d89b411161007c57806395d89b41146102cb578063a9059cbb146102d3578063c8859a26146102e6578063d505accf146102f9578063dd62ed3e1461030c578063f2fde38b1461034557600080fd5b806370a0823114610248578063715018a6146102715780637c154d40146102795780637ecebe001461028c57806384b0196e1461029f5780638da5cb5b146102ba57600080fd5b8063313ce56711610115578063313ce567146101cd5780633644e515146101dc57806340c10f19146101e45780635225d4eb146101f75780635fad58e0146102225780636688321b1461023557600080fd5b806306fdde0314610152578063095ea7b31461017057806318160ddd1461019357806319a14b38146101a557806323b872dd146101ba575b600080fd5b61015a610358565b6040516101679190611244565b60405180910390f35b61018361017e36600461127a565b6103ea565b6040519015158152602001610167565b6002545b604051908152602001610167565b6101b86101b33660046112ed565b610404565b005b6101836101c83660046113b1565b6104ab565b60405160128152602001610167565b6101976104cf565b6101b86101f236600461127a565b6104de565b600a5461020a906001600160a01b031681565b6040516001600160a01b039091168152602001610167565b6101b86102303660046113ed565b6104ec565b60095461020a906001600160a01b031681565b610197610256366004611455565b6001600160a01b031660009081526020819052604090205490565b6101b8610512565b6101b8610287366004611470565b610526565b61019761029a366004611455565b610613565b6102a7610631565b60405161016797969594939291906114a3565b6005546001600160a01b031661020a565b61015a610677565b6101836102e136600461127a565b610686565b6101b86102f43660046113ed565b610694565b6101b861030736600461153c565b6106b3565b61019761031a366004611470565b6001600160a01b03918216600090815260016020908152604080832093909416825291909152205490565b6101b8610353366004611455565b6107ed565b606060038054610367906115af565b80601f0160208091040260200160405190810160405280929190818152602001828054610393906115af565b80156103e05780601f106103b5576101008083540402835291602001916103e0565b820191906000526020600020905b8154815290600101906020018083116103c357829003601f168201915b5050505050905090565b6000336103f881858561082b565b60019150505b92915050565b600954604051633a94343960e21b81526001600160a01b039091169063ea50d0e49061043a908790879087908790600401611612565b602060405180830381865afa158015610457573d6000803e3d6000fd5b505050506040513d601f19601f8201168201806040525081019061047b919061165e565b6104985760405163439cc0cd60e01b815260040160405180910390fd5b6104a2878761083d565b50505050505050565b6000336104b9858285610873565b6104c48585856108f1565b506001949350505050565b60006104d9610950565b905090565b6104e8828261083d565b5050565b60095461050b90869086908690869086906001600160a01b0316610a7b565b5050505050565b61051a610b2f565b6105246000610b5c565b565b61052e610b2f565b6009546001600160a01b03161561058c5760405162461bcd60e51b815260206004820152601d60248201527f766572696669657220697320616c7265616479207365742073696c6c7900000060448201526064015b60405180910390fd5b600a546001600160a01b0316156105e55760405162461bcd60e51b815260206004820152601d60248201527f766572696669657220697320616c7265616479207365742073696c6c790000006044820152606401610583565b600a80546001600160a01b039384166001600160a01b03199182161790915560098054929093169116179055565b6001600160a01b0381166000908152600860205260408120546103fe565b600060608060008060006060610645610bae565b61064d610bdb565b60408051600080825260208201909252600f60f81b9b939a50919850469750309650945092509050565b606060048054610367906115af565b6000336103f88185856108f1565b600a5461050b90869086908690869086906001600160a01b0316610a7b565b834211156106d75760405163313c898160e11b815260048101859052602401610583565b60007f6e71edae12b1b97f4d1f60370fef10105fa2faae0126114a169c64845d6126c98888886107248c6001600160a01b0316600090815260086020526040902080546001810190915590565b6040805160208101969096526001600160a01b0394851690860152929091166060840152608083015260a082015260c0810186905260e001604051602081830303815290604052805190602001209050600061077f82610c08565b9050600061078f82878787610c35565b9050896001600160a01b0316816001600160a01b0316146107d6576040516325c0072360e11b81526001600160a01b0380831660048301528b166024820152604401610583565b6107e18a8a8a61082b565b50505050505050505050565b6107f5610b2f565b6001600160a01b03811661081f57604051631e4fbdf760e01b815260006004820152602401610583565b61082881610b5c565b50565b6108388383836001610c63565b505050565b6001600160a01b0382166108675760405163ec442f0560e01b815260006004820152602401610583565b6104e860008383610d38565b6001600160a01b0383811660009081526001602090815260408083209386168352929052205460001981146108eb57818110156108dc57604051637dc7a0d960e11b81526001600160a01b03841660048201526024810182905260448101839052606401610583565b6108eb84848484036000610c63565b50505050565b6001600160a01b03831661091b57604051634b637e8f60e11b815260006004820152602401610583565b6001600160a01b0382166109455760405163ec442f0560e01b815260006004820152602401610583565b610838838383610d38565b6000306001600160a01b037f0000000000000000000000000000000000000000000000000000000000000000161480156109a957507f000000000000000000000000000000000000000000000000000000000000000046145b156109d357507f000000000000000000000000000000000000000000000000000000000000000090565b6104d9604080517f8b73c3c69bb8fe3d512ecc4cf759cc79239f7b179b0ffacaa9a75d522b39400f60208201527f0000000000000000000000000000000000000000000000000000000000000000918101919091527f000000000000000000000000000000000000000000000000000000000000000060608201524660808201523060a082015260009060c00160405160208183030381529060405280519060200120905090565b83406000610a8a888884610e62565b604051633a94343960e21b81529091506001600160a01b0384169063ea50d0e490610abd90889088908690600401611680565b602060405180830381865afa158015610ada573d6000803e3d6000fd5b505050506040513d601f19601f82011682018060405250810190610afe919061165e565b610b1b5760405163439cc0cd60e01b815260040160405180910390fd5b610b25888861083d565b5050505050505050565b6005546001600160a01b031633146105245760405163118cdaa760e01b8152336004820152602401610583565b600580546001600160a01b038381166001600160a01b0319831681179093556040519116919082907f8be0079c531659141344cd1fd0a4f28419497f9722a3daafe3b4186f6b6457e090600090a35050565b60606104d97f00000000000000000000000000000000000000000000000000000000000000006006610f64565b60606104d97f00000000000000000000000000000000000000000000000000000000000000006007610f64565b60006103fe610c15610950565b8360405161190160f01b8152600281019290925260228201526042902090565b600080600080610c478888888861100f565b925092509250610c5782826110de565b50909695505050505050565b6001600160a01b038416610c8d5760405163e602df0560e01b815260006004820152602401610583565b6001600160a01b038316610cb757604051634a1406b160e11b815260006004820152602401610583565b6001600160a01b03808516600090815260016020908152604080832093871683529290522082905580156108eb57826001600160a01b0316846001600160a01b03167f8c5be1e5ebec7d5bd14f71427d1e84f3dd0314c0f7b2291e5b200ac8c7c3b92584604051610d2a91815260200190565b60405180910390a350505050565b6001600160a01b038316610d63578060026000828254610d5891906116ef565b90915550610dd59050565b6001600160a01b03831660009081526020819052604090205481811015610db65760405163391434e360e21b81526001600160a01b03851660048201526024810182905260448101839052606401610583565b6001600160a01b03841660009081526020819052604090209082900390555b6001600160a01b038216610df157600280548290039055610e10565b6001600160a01b03821660009081526020819052604090208054820190555b816001600160a01b0316836001600160a01b03167fddf252ad1be2c89b69c2b068fc378daa952ba7f163c4a11628f55a4df523b3ef83604051610e5591815260200190565b60405180910390a3505050565b604080516041808252610840820190925260609160009190602082016108208036833750508151919250506001600160a01b038616908290600090610ea957610ea9611702565b602090810291909101015260015b6021811015610f075784610ecc600183611718565b60208110610edc57610edc611702565b835191901a90839083908110610ef457610ef4611702565b6020908102919091010152600101610eb7565b5060215b6041811015610f5b5783610f20602183611718565b60208110610f3057610f30611702565b835191901a90839083908110610f4857610f48611702565b6020908102919091010152600101610f0b565b50949350505050565b606060ff8314610f7e57610f7783611197565b90506103fe565b818054610f8a906115af565b80601f0160208091040260200160405190810160405280929190818152602001828054610fb6906115af565b80156110035780601f10610fd857610100808354040283529160200191611003565b820191906000526020600020905b815481529060010190602001808311610fe657829003601f168201915b505050505090506103fe565b600080807f7fffffffffffffffffffffffffffffff5d576e7357a4501ddfe92f46681b20a084111561104a57506000915060039050826110d4565b604080516000808252602082018084528a905260ff891692820192909252606081018790526080810186905260019060a0016020604051602081039080840390855afa15801561109e573d6000803e3d6000fd5b5050604051601f1901519150506001600160a01b0381166110ca575060009250600191508290506110d4565b9250600091508190505b9450945094915050565b60008260038111156110f2576110f261172b565b036110fb575050565b600182600381111561110f5761110f61172b565b0361112d5760405163f645eedf60e01b815260040160405180910390fd5b60028260038111156111415761114161172b565b036111625760405163fce698f760e01b815260048101829052602401610583565b60038260038111156111765761117661172b565b036104e8576040516335e2f38360e21b815260048101829052602401610583565b606060006111a4836111d6565b604080516020808252818301909252919250600091906020820181803683375050509182525060208101929092525090565b600060ff8216601f8111156103fe57604051632cd44ac360e21b815260040160405180910390fd5b6000815180845260005b8181101561122457602081850181015186830182015201611208565b506000602082860101526020601f19601f83011685010191505092915050565b60208152600061125760208301846111fe565b9392505050565b80356001600160a01b038116811461127557600080fd5b919050565b6000806040838503121561128d57600080fd5b6112968361125e565b946020939093013593505050565b60008083601f8401126112b657600080fd5b50813567ffffffffffffffff8111156112ce57600080fd5b6020830191508360208285010111156112e657600080fd5b9250929050565b600080600080600080600060a0888a03121561130857600080fd5b6113118861125e565b96506020880135955060408801359450606088013567ffffffffffffffff8082111561133c57600080fd5b6113488b838c016112a4565b909650945060808a013591508082111561136157600080fd5b818a0191508a601f83011261137557600080fd5b81358181111561138457600080fd5b8b60208260051b850101111561139957600080fd5b60208301945080935050505092959891949750929550565b6000806000606084860312156113c657600080fd5b6113cf8461125e565b92506113dd6020850161125e565b9150604084013590509250925092565b60008060008060006080868803121561140557600080fd5b61140e8661125e565b94506020860135935060408601359250606086013567ffffffffffffffff81111561143857600080fd5b611444888289016112a4565b969995985093965092949392505050565b60006020828403121561146757600080fd5b6112578261125e565b6000806040838503121561148357600080fd5b61148c8361125e565b915061149a6020840161125e565b90509250929050565b60ff60f81b881681526000602060e060208401526114c460e084018a6111fe565b83810360408501526114d6818a6111fe565b606085018990526001600160a01b038816608086015260a0850187905284810360c08601528551808252602080880193509091019060005b8181101561152a5783518352928401929184019160010161150e565b50909c9b505050505050505050505050565b600080600080600080600060e0888a03121561155757600080fd5b6115608861125e565b965061156e6020890161125e565b95506040880135945060608801359350608088013560ff8116811461159257600080fd5b9699959850939692959460a0840135945060c09093013592915050565b600181811c908216806115c357607f821691505b6020821081036115e357634e487b7160e01b600052602260045260246000fd5b50919050565b81835281816020850137506000828201602090810191909152601f909101601f19169091010190565b6040815260006116266040830186886115e9565b82810360208401528381526001600160fb1b0384111561164557600080fd5b8360051b80866020840137016020019695505050505050565b60006020828403121561167057600080fd5b8151801515811461125757600080fd5b6040815260006116946040830185876115e9565b82810360208481019190915284518083528582019282019060005b818110156116cb578451835293830193918301916001016116af565b509098975050505050505050565b634e487b7160e01b600052601160045260246000fd5b808201808211156103fe576103fe6116d9565b634e487b7160e01b600052603260045260246000fd5b818103818111156103fe576103fe6116d9565b634e487b7160e01b600052602160045260246000fdfea2646970667358221220730848b629ebeb0e366a05001ca36d9356b96f3438ab9a3ab52d46a49c977d0a64736f6c63430008170033",
  "linkReferences": {},
  "deployedLinkReferences": {}
}