{
  "_format": "hh-sol-artifact-1",
  "contractName": "Token",
  "sourceName": "contracts/Token.sol",
  "abi": [
    {
      "inputs": [],
      "stateMutability": "nonpayable",
      "type": "constructor"
    },
    {
      "inputs": [],
      "name": "ECDSAInvalidSignature",
      "type": "error"
    },
    {
      "inputs": [
        {
          "internalType": "uint256",
          "name": "length",
          "type": "uint256"
        }
      ],
      "name": "ECDSAInvalidSignatureLength",
      "type": "error"
    },
    {
      "inputs": [
        {
          "internalType": "bytes32",
          "name": "s",
          "type": "bytes32"
        }
      ],
      "name": "ECDSAInvalidSignatureS",
      "type": "error"
    },
    {
      "inputs": [
        {
          "internalType": "address",
          "name": "spender",
          "type": "address"
        },
        {
          "internalType": "uint256",
          "name": "allowance",
          "type": "uint256"
        },
        {
          "internalType": "uint256",
          "name": "needed",
          "type": "uint256"
        }
      ],
      "name": "ERC20InsufficientAllowance",
      "type": "error"
    },
    {
      "inputs": [
        {
          "internalType": "address",
          "name": "sender",
          "type": "address"
        },
        {
          "internalType": "uint256",
          "name": "balance",
          "type": "uint256"
        },
        {
          "internalType": "uint256",
          "name": "needed",
          "type": "uint256"
        }
      ],
      "name": "ERC20InsufficientBalance",
      "type": "error"
    },
    {
      "inputs": [
        {
          "internalType": "address",
          "name": "approver",
          "type": "address"
        }
      ],
      "name": "ERC20InvalidApprover",
      "type": "error"
    },
    {
      "inputs": [
        {
          "internalType": "address",
          "name": "receiver",
          "type": "address"
        }
      ],
      "name": "ERC20InvalidReceiver",
      "type": "error"
    },
    {
      "inputs": [
        {
          "internalType": "address",
          "name": "sender",
          "type": "address"
        }
      ],
      "name": "ERC20InvalidSender",
      "type": "error"
    },
    {
      "inputs": [
        {
          "internalType": "address",
          "name": "spender",
          "type": "address"
        }
      ],
      "name": "ERC20InvalidSpender",
      "type": "error"
    },
    {
      "inputs": [
        {
          "internalType": "uint256",
          "name": "deadline",
          "type": "uint256"
        }
      ],
      "name": "ERC2612ExpiredSignature",
      "type": "error"
    },
    {
      "inputs": [
        {
          "internalType": "address",
          "name": "signer",
          "type": "address"
        },
        {
          "internalType": "address",
          "name": "owner",
          "type": "address"
        }
      ],
      "name": "ERC2612InvalidSigner",
      "type": "error"
    },
    {
      "inputs": [
        {
          "internalType": "address",
          "name": "account",
          "type": "address"
        },
        {
          "internalType": "uint256",
          "name": "currentNonce",
          "type": "uint256"
        }
      ],
      "name": "InvalidAccountNonce",
      "type": "error"
    },
    {
      "inputs": [],
      "name": "InvalidShortString",
      "type": "error"
    },
    {
      "inputs": [
        {
          "internalType": "address",
          "name": "owner",
          "type": "address"
        }
      ],
      "name": "OwnableInvalidOwner",
      "type": "error"
    },
    {
      "inputs": [
        {
          "internalType": "address",
          "name": "account",
          "type": "address"
        }
      ],
      "name": "OwnableUnauthorizedAccount",
      "type": "error"
    },
    {
      "inputs": [
        {
          "internalType": "string",
          "name": "str",
          "type": "string"
        }
      ],
      "name": "StringTooLong",
      "type": "error"
    },
    {
      "inputs": [],
      "name": "VerificationFailed",
      "type": "error"
    },
    {
      "anonymous": false,
      "inputs": [
        {
          "indexed": true,
          "internalType": "address",
          "name": "owner",
          "type": "address"
        },
        {
          "indexed": true,
          "internalType": "address",
          "name": "spender",
          "type": "address"
        },
        {
          "indexed": false,
          "internalType": "uint256",
          "name": "value",
          "type": "uint256"
        }
      ],
      "name": "Approval",
      "type": "event"
    },
    {
      "anonymous": false,
      "inputs": [],
      "name": "EIP712DomainChanged",
      "type": "event"
    },
    {
      "anonymous": false,
      "inputs": [
        {
          "indexed": true,
          "internalType": "address",
          "name": "previousOwner",
          "type": "address"
        },
        {
          "indexed": true,
          "internalType": "address",
          "name": "newOwner",
          "type": "address"
        }
      ],
      "name": "OwnershipTransferred",
      "type": "event"
    },
    {
      "anonymous": false,
      "inputs": [
        {
          "indexed": true,
          "internalType": "address",
          "name": "from",
          "type": "address"
        },
        {
          "indexed": true,
          "internalType": "address",
          "name": "to",
          "type": "address"
        },
        {
          "indexed": false,
          "internalType": "uint256",
          "name": "value",
          "type": "uint256"
        }
      ],
      "name": "Transfer",
      "type": "event"
    },
    {
      "inputs": [],
      "name": "DOMAIN_SEPARATOR",
      "outputs": [
        {
          "internalType": "bytes32",
          "name": "",
          "type": "bytes32"
        }
      ],
      "stateMutability": "view",
      "type": "function"
    },
    {
      "inputs": [
        {
          "internalType": "address",
          "name": "to",
          "type": "address"
        },
        {
          "internalType": "uint256",
          "name": "amount",
          "type": "uint256"
        },
        {
          "internalType": "bytes32",
          "name": "blkhash",
          "type": "bytes32"
        },
        {
          "internalType": "bytes32",
          "name": "nullifier",
          "type": "bytes32"
        }
      ],
      "name": "_formatPublicInputs",
      "outputs": [
        {
          "internalType": "bytes32[]",
          "name": "",
          "type": "bytes32[]"
        }
      ],
      "stateMutability": "pure",
      "type": "function"
    },
    {
      "inputs": [
        {
          "internalType": "address",
          "name": "owner",
          "type": "address"
        },
        {
          "internalType": "address",
          "name": "spender",
          "type": "address"
        }
      ],
      "name": "allowance",
      "outputs": [
        {
          "internalType": "uint256",
          "name": "",
          "type": "uint256"
        }
      ],
      "stateMutability": "view",
      "type": "function"
    },
    {
      "inputs": [
        {
          "internalType": "address",
          "name": "spender",
          "type": "address"
        },
        {
          "internalType": "uint256",
          "name": "value",
          "type": "uint256"
        }
      ],
      "name": "approve",
      "outputs": [
        {
          "internalType": "bool",
          "name": "",
          "type": "bool"
        }
      ],
      "stateMutability": "nonpayable",
      "type": "function"
    },
    {
      "inputs": [
        {
          "internalType": "address",
          "name": "account",
          "type": "address"
        }
      ],
      "name": "balanceOf",
      "outputs": [
        {
          "internalType": "uint256",
          "name": "",
          "type": "uint256"
        }
      ],
      "stateMutability": "view",
      "type": "function"
    },
    {
      "inputs": [],
      "name": "decimals",
      "outputs": [
        {
          "internalType": "uint8",
          "name": "",
          "type": "uint8"
        }
      ],
      "stateMutability": "view",
      "type": "function"
    },
    {
      "inputs": [],
      "name": "eip712Domain",
      "outputs": [
        {
          "internalType": "bytes1",
          "name": "fields",
          "type": "bytes1"
        },
        {
          "internalType": "string",
          "name": "name",
          "type": "string"
        },
        {
          "internalType": "string",
          "name": "version",
          "type": "string"
        },
        {
          "internalType": "uint256",
          "name": "chainId",
          "type": "uint256"
        },
        {
          "internalType": "address",
          "name": "verifyingContract",
          "type": "address"
        },
        {
          "internalType": "bytes32",
          "name": "salt",
          "type": "bytes32"
        },
        {
          "internalType": "uint256[]",
          "name": "extensions",
          "type": "uint256[]"
        }
      ],
      "stateMutability": "view",
      "type": "function"
    },
    {
      "inputs": [],
      "name": "fullVerifier",
      "outputs": [
        {
          "internalType": "address",
          "name": "",
          "type": "address"
        }
      ],
      "stateMutability": "view",
      "type": "function"
    },
    {
      "inputs": [
        {
          "internalType": "address",
          "name": "to",
          "type": "address"
        },
        {
          "internalType": "uint256",
          "name": "amount",
          "type": "uint256"
        }
      ],
      "name": "mint",
      "outputs": [],
      "stateMutability": "nonpayable",
      "type": "function"
    },
    {
      "inputs": [],
      "name": "name",
      "outputs": [
        {
          "internalType": "string",
          "name": "",
          "type": "string"
        }
      ],
      "stateMutability": "view",
      "type": "function"
    },
    {
      "inputs": [
        {
          "internalType": "address",
          "name": "owner",
          "type": "address"
        }
      ],
      "name": "nonces",
      "outputs": [
        {
          "internalType": "uint256",
          "name": "",
          "type": "uint256"
        }
      ],
      "stateMutability": "view",
      "type": "function"
    },
    {
      "inputs": [
        {
          "internalType": "bytes32",
          "name": "",
          "type": "bytes32"
        }
      ],
      "name": "nullifiers",
      "outputs": [
        {
          "internalType": "bool",
          "name": "",
          "type": "bool"
        }
      ],
      "stateMutability": "view",
      "type": "function"
    },
    {
      "inputs": [],
      "name": "owner",
      "outputs": [
        {
          "internalType": "address",
          "name": "",
          "type": "address"
        }
      ],
      "stateMutability": "view",
      "type": "function"
    },
    {
      "inputs": [
        {
          "internalType": "address",
          "name": "owner",
          "type": "address"
        },
        {
          "internalType": "address",
          "name": "spender",
          "type": "address"
        },
        {
          "internalType": "uint256",
          "name": "value",
          "type": "uint256"
        },
        {
          "internalType": "uint256",
          "name": "deadline",
          "type": "uint256"
        },
        {
          "internalType": "uint8",
          "name": "v",
          "type": "uint8"
        },
        {
          "internalType": "bytes32",
          "name": "r",
          "type": "bytes32"
        },
        {
          "internalType": "bytes32",
          "name": "s",
          "type": "bytes32"
        }
      ],
      "name": "permit",
      "outputs": [],
      "stateMutability": "nonpayable",
      "type": "function"
    },
    {
      "inputs": [
        {
          "internalType": "address",
          "name": "to",
          "type": "address"
        },
        {
          "internalType": "uint256",
          "name": "amount",
          "type": "uint256"
        },
        {
          "internalType": "uint256",
          "name": "blockNum",
          "type": "uint256"
        },
        {
          "internalType": "bytes32",
          "name": "nullifier",
          "type": "bytes32"
        },
        {
          "internalType": "bytes",
          "name": "snarkProof",
          "type": "bytes"
        }
      ],
      "name": "reMint",
      "outputs": [],
      "stateMutability": "nonpayable",
      "type": "function"
    },
    {
      "inputs": [
        {
          "internalType": "address",
          "name": "to",
          "type": "address"
        },
        {
          "internalType": "uint256",
          "name": "amount",
          "type": "uint256"
        },
        {
          "internalType": "uint256",
          "name": "blockNum",
          "type": "uint256"
        },
        {
          "internalType": "bytes32",
          "name": "nullifier",
          "type": "bytes32"
        },
        {
          "internalType": "bytes",
          "name": "snarkProof",
          "type": "bytes"
        }
      ],
      "name": "reMintFullVerifier",
      "outputs": [],
      "stateMutability": "nonpayable",
      "type": "function"
    },
    {
      "inputs": [],
      "name": "renounceOwnership",
      "outputs": [],
      "stateMutability": "nonpayable",
      "type": "function"
    },
    {
      "inputs": [
        {
          "internalType": "bytes32",
          "name": "blockHash",
          "type": "bytes32"
        },
        {
          "internalType": "uint256",
          "name": "blockNum",
          "type": "uint256"
        }
      ],
      "name": "setBlockHash",
      "outputs": [],
      "stateMutability": "nonpayable",
      "type": "function"
    },
    {
      "inputs": [
        {
          "internalType": "address",
          "name": "_fullVerifier",
          "type": "address"
        },
        {
          "internalType": "address",
          "name": "_smolVerifier",
          "type": "address"
        }
      ],
      "name": "setVerifiers",
      "outputs": [],
      "stateMutability": "nonpayable",
      "type": "function"
    },
    {
      "inputs": [],
      "name": "smolVerifier",
      "outputs": [
        {
          "internalType": "address",
          "name": "",
          "type": "address"
        }
      ],
      "stateMutability": "view",
      "type": "function"
    },
    {
      "inputs": [],
      "name": "symbol",
      "outputs": [
        {
          "internalType": "string",
          "name": "",
          "type": "string"
        }
      ],
      "stateMutability": "view",
      "type": "function"
    },
    {
      "inputs": [],
      "name": "totalSupply",
      "outputs": [
        {
          "internalType": "uint256",
          "name": "",
          "type": "uint256"
        }
      ],
      "stateMutability": "view",
      "type": "function"
    },
    {
      "inputs": [
        {
          "internalType": "address",
          "name": "to",
          "type": "address"
        },
        {
          "internalType": "uint256",
          "name": "value",
          "type": "uint256"
        }
      ],
      "name": "transfer",
      "outputs": [
        {
          "internalType": "bool",
          "name": "",
          "type": "bool"
        }
      ],
      "stateMutability": "nonpayable",
      "type": "function"
    },
    {
      "inputs": [
        {
          "internalType": "address",
          "name": "from",
          "type": "address"
        },
        {
          "internalType": "address",
          "name": "to",
          "type": "address"
        },
        {
          "internalType": "uint256",
          "name": "value",
          "type": "uint256"
        }
      ],
      "name": "transferFrom",
      "outputs": [
        {
          "internalType": "bool",
          "name": "",
          "type": "bool"
        }
      ],
      "stateMutability": "nonpayable",
      "type": "function"
    },
    {
      "inputs": [
        {
          "internalType": "address",
          "name": "newOwner",
          "type": "address"
        }
      ],
      "name": "transferOwnership",
      "outputs": [],
      "stateMutability": "nonpayable",
      "type": "function"
    },
    {
      "inputs": [
        {
          "internalType": "uint256",
          "name": "",
          "type": "uint256"
        }
      ],
      "name": "trustedBlockhash",
      "outputs": [
        {
          "internalType": "bytes32",
          "name": "",
          "type": "bytes32"
        }
      ],
      "stateMutability": "view",
      "type": "function"
    }
  ],
  "bytecode": "0x61016060405234801562000011575f80fd5b50604051806040016040528060058152602001643a37b5b2b760d91b81525080604051806040016040528060018152602001603160f81b81525033604051806040016040528060118152602001703d35bbb7b936b437b632b996ba37b5b2b760791b8152506040518060400160405280600581526020016415d493521360da1b8152508160039081620000a5919062000316565b506004620000b4828262000316565b5050506001600160a01b038116620000e657604051631e4fbdf760e01b81525f60048201526024015b60405180910390fd5b620000f181620001ad565b50620000ff826006620001fe565b6101205262000110816007620001fe565b61014052815160208084019190912060e052815190820120610100524660a0526200019d60e05161010051604080517f8b73c3c69bb8fe3d512ecc4cf759cc79239f7b179b0ffacaa9a75d522b39400f60208201529081019290925260608201524660808201523060a08201525f9060c00160405160208183030381529060405280519060200120905090565b60805250503060c0525062000454565b600580546001600160a01b038381166001600160a01b0319831681179093556040519116919082907f8be0079c531659141344cd1fd0a4f28419497f9722a3daafe3b4186f6b6457e0905f90a35050565b5f6020835110156200021d57620002158362000236565b905062000230565b816200022a848262000316565b5060ff90505b92915050565b5f80829050601f8151111562000263578260405163305a27a960e01b8152600401620000dd9190620003e2565b8051620002708262000430565b179392505050565b634e487b7160e01b5f52604160045260245ffd5b600181811c90821680620002a157607f821691505b602082108103620002c057634e487b7160e01b5f52602260045260245ffd5b50919050565b601f8211156200031157805f5260205f20601f840160051c81016020851015620002ed5750805b601f840160051c820191505b818110156200030e575f8155600101620002f9565b50505b505050565b81516001600160401b0381111562000332576200033262000278565b6200034a816200034384546200028c565b84620002c6565b602080601f83116001811462000380575f8415620003685750858301515b5f19600386901b1c1916600185901b178555620003da565b5f85815260208120601f198616915b82811015620003b0578886015182559484019460019091019084016200038f565b5085821015620003ce57878501515f19600388901b60f8161c191681555b505060018460011b0185555b505050505050565b5f602080835283518060208501525f5b818110156200041057858101830151858201604001528201620003f2565b505f604082860101526040601f19601f8301168501019250505092915050565b80516020808301519190811015620002c0575f1960209190910360031b1b16919050565b60805160a05160c05160e051610100516101205161014051611720620004a65f395f610d7201525f610d4501525f610c3c01525f610c1401525f610b6f01525f610b9901525f610bc301526117205ff3fe608060405234801561000f575f80fd5b5060043610610187575f3560e01c806370a08231116100d95780638f31746a11610093578063d505accf1161006e578063d505accf1461037e578063dd62ed3e14610391578063e4f729bf146103c9578063f2fde38b146103e8575f80fd5b80638f31746a1461035057806395d89b4114610363578063a9059cbb1461036b575f80fd5b806370a08231146102ce578063715018a6146102f65780637c154d40146102fe5780637ecebe001461031157806384b0196e146103245780638da5cb5b1461033f575f80fd5b80632f552baf1161014457806340c10f191161011f57806340c10f191461025f5780635225d4eb1461027257806352569f561461029d5780636688321b146102bb575f80fd5b80632f552baf14610228578063313ce567146102485780633644e51514610257575f80fd5b806306fdde031461018b578063095ea7b3146101a957806318160ddd146101cc57806323b872dd146101de5780632997e86b146101f15780632e2766dc14610213575b5f80fd5b6101936103fb565b6040516101a091906112b8565b60405180910390f35b6101bc6101b73660046112ec565b61048b565b60405190151581526020016101a0565b6002545b6040519081526020016101a0565b6101bc6101ec366004611314565b6104a4565b6101bc6101ff36600461134d565b60096020525f908152604090205460ff1681565b610226610221366004611364565b6104c7565b005b61023b6102363660046113fb565b6104f2565b6040516101a0919061146b565b604051601281526020016101a0565b6101d0610617565b61022661026d3660046112ec565b610625565b600b54610285906001600160a01b031681565b6040516001600160a01b0390911681526020016101a0565b6102266102ab36600461147d565b5f908152600c6020526040902055565b600a54610285906001600160a01b031681565b6101d06102dc36600461149d565b6001600160a01b03165f9081526020819052604090205490565b610226610633565b61022661030c3660046114b6565b610646565b6101d061031f36600461149d565b610733565b61032c610750565b6040516101a097969594939291906114e7565b6005546001600160a01b0316610285565b61022661035e366004611364565b610792565b6101936107b5565b6101bc6103793660046112ec565b6107c4565b61022661038c36600461157e565b6107d1565b6101d061039f3660046114b6565b6001600160a01b039182165f90815260016020908152604080832093909416825291909152205490565b6101d06103d736600461134d565b600c6020525f908152604090205481565b6102266103f636600461149d565b610907565b60606003805461040a906115eb565b80601f0160208091040260200160405190810160405280929190818152602001828054610436906115eb565b80156104815780601f1061045857610100808354040283529160200191610481565b820191905f5260205f20905b81548152906001019060200180831161046457829003601f168201915b5050505050905090565b5f33610498818585610944565b60019150505b92915050565b5f336104b1858285610956565b6104bc8585856109d1565b506001949350505050565b6104ea868686868686600a5f9054906101000a90046001600160a01b0316610a2e565b505050505050565b604080516042808252610860820190925260609185916001600160a01b038816915f9190602082016108408036833701905050905081815f8151811061053a5761053a611623565b602090810291909101015260015b6021811015610598578361055d60018361164b565b6020811061056d5761056d611623565b835191901a9083908390811061058557610585611623565b6020908102919091010152600101610548565b5060215b60418110156105ec57866105b160218361164b565b602081106105c1576105c1611623565b835191901a908390839081106105d9576105d9611623565b602090810291909101015260010161059c565b50848160418151811061060157610601611623565b6020908102919091010152979650505050505050565b5f610620610b63565b905090565b61062f8282610c8c565b5050565b61063b610cc0565b6106445f610ced565b565b61064e610cc0565b600a546001600160a01b0316156106ac5760405162461bcd60e51b815260206004820152601d60248201527f766572696669657220697320616c7265616479207365742073696c6c7900000060448201526064015b60405180910390fd5b600b546001600160a01b0316156107055760405162461bcd60e51b815260206004820152601d60248201527f766572696669657220697320616c7265616479207365742073696c6c7900000060448201526064016106a3565b600b80546001600160a01b039384166001600160a01b031991821617909155600a8054929093169116179055565b6001600160a01b0381165f9081526008602052604081205461049e565b5f6060805f805f6060610761610d3e565b610769610d6b565b604080515f80825260208201909252600f60f81b9b939a50919850469750309650945092509050565b6104ea868686868686600b5f9054906101000a90046001600160a01b0316610a2e565b60606004805461040a906115eb565b5f336104988185856109d1565b834211156107f55760405163313c898160e11b8152600481018590526024016106a3565b5f7f6e71edae12b1b97f4d1f60370fef10105fa2faae0126114a169c64845d6126c98888886108408c6001600160a01b03165f90815260086020526040902080546001810190915590565b6040805160208101969096526001600160a01b0394851690860152929091166060840152608083015260a082015260c0810186905260e0016040516020818303038152906040528051906020012090505f61089a82610d98565b90505f6108a982878787610dc4565b9050896001600160a01b0316816001600160a01b0316146108f0576040516325c0072360e11b81526001600160a01b0380831660048301528b1660248201526044016106a3565b6108fb8a8a8a610944565b50505050505050505050565b61090f610cc0565b6001600160a01b03811661093857604051631e4fbdf760e01b81525f60048201526024016106a3565b61094181610ced565b50565b6109518383836001610df0565b505050565b6001600160a01b038381165f908152600160209081526040808320938616835292905220545f1981146109cb57818110156109bd57604051637dc7a0d960e11b81526001600160a01b038416600482015260248101829052604481018390526064016106a3565b6109cb84848484035f610df0565b50505050565b6001600160a01b0383166109fa57604051634b637e8f60e11b81525f60048201526024016106a3565b6001600160a01b038216610a235760405163ec442f0560e01b81525f60048201526024016106a3565b610951838383610ec2565b5f8481526009602052604090205460ff1615610a8c5760405162461bcd60e51b815260206004820152601960248201527f6275726e206164647265737320616c726561647920757365640000000000000060448201526064016106a3565b5f848152600960209081526040808320805460ff19166001179055878352600c90915281205490610abf898984896104f2565b604051633a94343960e21b81529091506001600160a01b0384169063ea50d0e490610af29088908890869060040161165e565b602060405180830381865afa158015610b0d573d5f803e3d5ffd5b505050506040513d601f19601f82011682018060405250810190610b3191906116a4565b610b4e5760405163439cc0cd60e01b815260040160405180910390fd5b610b588989610c8c565b505050505050505050565b5f306001600160a01b037f000000000000000000000000000000000000000000000000000000000000000016148015610bbb57507f000000000000000000000000000000000000000000000000000000000000000046145b15610be557507f000000000000000000000000000000000000000000000000000000000000000090565b610620604080517f8b73c3c69bb8fe3d512ecc4cf759cc79239f7b179b0ffacaa9a75d522b39400f60208201527f0000000000000000000000000000000000000000000000000000000000000000918101919091527f000000000000000000000000000000000000000000000000000000000000000060608201524660808201523060a08201525f9060c00160405160208183030381529060405280519060200120905090565b6001600160a01b038216610cb55760405163ec442f0560e01b81525f60048201526024016106a3565b61062f5f8383610ec2565b6005546001600160a01b031633146106445760405163118cdaa760e01b81523360048201526024016106a3565b600580546001600160a01b038381166001600160a01b0319831681179093556040519116919082907f8be0079c531659141344cd1fd0a4f28419497f9722a3daafe3b4186f6b6457e0905f90a35050565b60606106207f00000000000000000000000000000000000000000000000000000000000000006006610fe8565b60606106207f00000000000000000000000000000000000000000000000000000000000000006007610fe8565b5f61049e610da4610b63565b8360405161190160f01b8152600281019290925260228201526042902090565b5f805f80610dd488888888611091565b925092509250610de48282611159565b50909695505050505050565b6001600160a01b038416610e195760405163e602df0560e01b81525f60048201526024016106a3565b6001600160a01b038316610e4257604051634a1406b160e11b81525f60048201526024016106a3565b6001600160a01b038085165f90815260016020908152604080832093871683529290522082905580156109cb57826001600160a01b0316846001600160a01b03167f8c5be1e5ebec7d5bd14f71427d1e84f3dd0314c0f7b2291e5b200ac8c7c3b92584604051610eb491815260200190565b60405180910390a350505050565b6001600160a01b038316610eec578060025f828254610ee191906116c3565b90915550610f5c9050565b6001600160a01b0383165f9081526020819052604090205481811015610f3e5760405163391434e360e21b81526001600160a01b038516600482015260248101829052604481018390526064016106a3565b6001600160a01b0384165f9081526020819052604090209082900390555b6001600160a01b038216610f7857600280548290039055610f96565b6001600160a01b0382165f9081526020819052604090208054820190555b816001600160a01b0316836001600160a01b03167fddf252ad1be2c89b69c2b068fc378daa952ba7f163c4a11628f55a4df523b3ef83604051610fdb91815260200190565b60405180910390a3505050565b606060ff831461100257610ffb83611211565b905061049e565b81805461100e906115eb565b80601f016020809104026020016040519081016040528092919081815260200182805461103a906115eb565b80156110855780601f1061105c57610100808354040283529160200191611085565b820191905f5260205f20905b81548152906001019060200180831161106857829003601f168201915b5050505050905061049e565b5f80807f7fffffffffffffffffffffffffffffff5d576e7357a4501ddfe92f46681b20a08411156110ca57505f9150600390508261114f565b604080515f808252602082018084528a905260ff891692820192909252606081018790526080810186905260019060a0016020604051602081039080840390855afa15801561111b573d5f803e3d5ffd5b5050604051601f1901519150506001600160a01b03811661114657505f92506001915082905061114f565b92505f91508190505b9450945094915050565b5f82600381111561116c5761116c6116d6565b03611175575050565b6001826003811115611189576111896116d6565b036111a75760405163f645eedf60e01b815260040160405180910390fd5b60028260038111156111bb576111bb6116d6565b036111dc5760405163fce698f760e01b8152600481018290526024016106a3565b60038260038111156111f0576111f06116d6565b0361062f576040516335e2f38360e21b8152600481018290526024016106a3565b60605f61121d8361124e565b6040805160208082528183019092529192505f91906020820181803683375050509182525060208101929092525090565b5f60ff8216601f81111561049e57604051632cd44ac360e21b815260040160405180910390fd5b5f81518084525f5b818110156112995760208185018101518683018201520161127d565b505f602082860101526020601f19601f83011685010191505092915050565b602081525f6112ca6020830184611275565b9392505050565b80356001600160a01b03811681146112e7575f80fd5b919050565b5f80604083850312156112fd575f80fd5b611306836112d1565b946020939093013593505050565b5f805f60608486031215611326575f80fd5b61132f846112d1565b925061133d602085016112d1565b9150604084013590509250925092565b5f6020828403121561135d575f80fd5b5035919050565b5f805f805f8060a08789031215611379575f80fd5b611382876112d1565b9550602087013594506040870135935060608701359250608087013567ffffffffffffffff808211156113b3575f80fd5b818901915089601f8301126113c6575f80fd5b8135818111156113d4575f80fd5b8a60208285010111156113e5575f80fd5b6020830194508093505050509295509295509295565b5f805f806080858703121561140e575f80fd5b611417856112d1565b966020860135965060408601359560600135945092505050565b5f815180845260208085019450602084015f5b8381101561146057815187529582019590820190600101611444565b509495945050505050565b602081525f6112ca6020830184611431565b5f806040838503121561148e575f80fd5b50508035926020909101359150565b5f602082840312156114ad575f80fd5b6112ca826112d1565b5f80604083850312156114c7575f80fd5b6114d0836112d1565b91506114de602084016112d1565b90509250929050565b60ff60f81b881681525f602060e0602084015261150760e084018a611275565b8381036040850152611519818a611275565b606085018990526001600160a01b038816608086015260a0850187905284810360c0860152855180825260208088019350909101905f5b8181101561156c57835183529284019291840191600101611550565b50909c9b505050505050505050505050565b5f805f805f805f60e0888a031215611594575f80fd5b61159d886112d1565b96506115ab602089016112d1565b95506040880135945060608801359350608088013560ff811681146115ce575f80fd5b9699959850939692959460a0840135945060c09093013592915050565b600181811c908216806115ff57607f821691505b60208210810361161d57634e487b7160e01b5f52602260045260245ffd5b50919050565b634e487b7160e01b5f52603260045260245ffd5b634e487b7160e01b5f52601160045260245ffd5b8181038181111561049e5761049e611637565b60408152826040820152828460608301375f606084830101525f601f19601f8501168201606083820301602084015261169a6060820185611431565b9695505050505050565b5f602082840312156116b4575f80fd5b815180151581146112ca575f80fd5b8082018082111561049e5761049e611637565b634e487b7160e01b5f52602160045260245ffdfea2646970667358221220458ab4c16c9efbc733649868cb605c8efccc9e6d92004469967513e669b9f05c64736f6c63430008170033",
  "linkReferences": {},
  "deployedLinkReferences": {}
}