{
  "_format": "hh-sol-artifact-1",
  "contractName": "Token",
  "sourceName": "contracts/Token.sol",
  "abi": [
    {
      "inputs": [],
      "stateMutability": "nonpayable",
      "type": "constructor"
    },
    {
      "inputs": [],
      "name": "ECDSAInvalidSignature",
      "type": "error"
    },
    {
      "inputs": [
        {
          "internalType": "uint256",
          "name": "length",
          "type": "uint256"
        }
      ],
      "name": "ECDSAInvalidSignatureLength",
      "type": "error"
    },
    {
      "inputs": [
        {
          "internalType": "bytes32",
          "name": "s",
          "type": "bytes32"
        }
      ],
      "name": "ECDSAInvalidSignatureS",
      "type": "error"
    },
    {
      "inputs": [
        {
          "internalType": "address",
          "name": "spender",
          "type": "address"
        },
        {
          "internalType": "uint256",
          "name": "allowance",
          "type": "uint256"
        },
        {
          "internalType": "uint256",
          "name": "needed",
          "type": "uint256"
        }
      ],
      "name": "ERC20InsufficientAllowance",
      "type": "error"
    },
    {
      "inputs": [
        {
          "internalType": "address",
          "name": "sender",
          "type": "address"
        },
        {
          "internalType": "uint256",
          "name": "balance",
          "type": "uint256"
        },
        {
          "internalType": "uint256",
          "name": "needed",
          "type": "uint256"
        }
      ],
      "name": "ERC20InsufficientBalance",
      "type": "error"
    },
    {
      "inputs": [
        {
          "internalType": "address",
          "name": "approver",
          "type": "address"
        }
      ],
      "name": "ERC20InvalidApprover",
      "type": "error"
    },
    {
      "inputs": [
        {
          "internalType": "address",
          "name": "receiver",
          "type": "address"
        }
      ],
      "name": "ERC20InvalidReceiver",
      "type": "error"
    },
    {
      "inputs": [
        {
          "internalType": "address",
          "name": "sender",
          "type": "address"
        }
      ],
      "name": "ERC20InvalidSender",
      "type": "error"
    },
    {
      "inputs": [
        {
          "internalType": "address",
          "name": "spender",
          "type": "address"
        }
      ],
      "name": "ERC20InvalidSpender",
      "type": "error"
    },
    {
      "inputs": [
        {
          "internalType": "uint256",
          "name": "deadline",
          "type": "uint256"
        }
      ],
      "name": "ERC2612ExpiredSignature",
      "type": "error"
    },
    {
      "inputs": [
        {
          "internalType": "address",
          "name": "signer",
          "type": "address"
        },
        {
          "internalType": "address",
          "name": "owner",
          "type": "address"
        }
      ],
      "name": "ERC2612InvalidSigner",
      "type": "error"
    },
    {
      "inputs": [
        {
          "internalType": "address",
          "name": "account",
          "type": "address"
        },
        {
          "internalType": "uint256",
          "name": "currentNonce",
          "type": "uint256"
        }
      ],
      "name": "InvalidAccountNonce",
      "type": "error"
    },
    {
      "inputs": [],
      "name": "InvalidShortString",
      "type": "error"
    },
    {
      "inputs": [
        {
          "internalType": "address",
          "name": "owner",
          "type": "address"
        }
      ],
      "name": "OwnableInvalidOwner",
      "type": "error"
    },
    {
      "inputs": [
        {
          "internalType": "address",
          "name": "account",
          "type": "address"
        }
      ],
      "name": "OwnableUnauthorizedAccount",
      "type": "error"
    },
    {
      "inputs": [
        {
          "internalType": "string",
          "name": "str",
          "type": "string"
        }
      ],
      "name": "StringTooLong",
      "type": "error"
    },
    {
      "inputs": [],
      "name": "VerificationFailed",
      "type": "error"
    },
    {
      "anonymous": false,
      "inputs": [
        {
          "indexed": true,
          "internalType": "address",
          "name": "owner",
          "type": "address"
        },
        {
          "indexed": true,
          "internalType": "address",
          "name": "spender",
          "type": "address"
        },
        {
          "indexed": false,
          "internalType": "uint256",
          "name": "value",
          "type": "uint256"
        }
      ],
      "name": "Approval",
      "type": "event"
    },
    {
      "anonymous": false,
      "inputs": [],
      "name": "EIP712DomainChanged",
      "type": "event"
    },
    {
      "anonymous": false,
      "inputs": [
        {
          "indexed": true,
          "internalType": "address",
          "name": "previousOwner",
          "type": "address"
        },
        {
          "indexed": true,
          "internalType": "address",
          "name": "newOwner",
          "type": "address"
        }
      ],
      "name": "OwnershipTransferred",
      "type": "event"
    },
    {
      "anonymous": false,
      "inputs": [
        {
          "indexed": true,
          "internalType": "address",
          "name": "from",
          "type": "address"
        },
        {
          "indexed": true,
          "internalType": "address",
          "name": "to",
          "type": "address"
        },
        {
          "indexed": false,
          "internalType": "uint256",
          "name": "value",
          "type": "uint256"
        }
      ],
      "name": "Transfer",
      "type": "event"
    },
    {
      "inputs": [],
      "name": "DOMAIN_SEPARATOR",
      "outputs": [
        {
          "internalType": "bytes32",
          "name": "",
          "type": "bytes32"
        }
      ],
      "stateMutability": "view",
      "type": "function"
    },
    {
      "inputs": [
        {
          "internalType": "address",
          "name": "owner",
          "type": "address"
        },
        {
          "internalType": "address",
          "name": "spender",
          "type": "address"
        }
      ],
      "name": "allowance",
      "outputs": [
        {
          "internalType": "uint256",
          "name": "",
          "type": "uint256"
        }
      ],
      "stateMutability": "view",
      "type": "function"
    },
    {
      "inputs": [
        {
          "internalType": "address",
          "name": "spender",
          "type": "address"
        },
        {
          "internalType": "uint256",
          "name": "value",
          "type": "uint256"
        }
      ],
      "name": "approve",
      "outputs": [
        {
          "internalType": "bool",
          "name": "",
          "type": "bool"
        }
      ],
      "stateMutability": "nonpayable",
      "type": "function"
    },
    {
      "inputs": [
        {
          "internalType": "address",
          "name": "account",
          "type": "address"
        }
      ],
      "name": "balanceOf",
      "outputs": [
        {
          "internalType": "uint256",
          "name": "",
          "type": "uint256"
        }
      ],
      "stateMutability": "view",
      "type": "function"
    },
    {
      "inputs": [],
      "name": "decimals",
      "outputs": [
        {
          "internalType": "uint8",
          "name": "",
          "type": "uint8"
        }
      ],
      "stateMutability": "view",
      "type": "function"
    },
    {
      "inputs": [],
      "name": "eip712Domain",
      "outputs": [
        {
          "internalType": "bytes1",
          "name": "fields",
          "type": "bytes1"
        },
        {
          "internalType": "string",
          "name": "name",
          "type": "string"
        },
        {
          "internalType": "string",
          "name": "version",
          "type": "string"
        },
        {
          "internalType": "uint256",
          "name": "chainId",
          "type": "uint256"
        },
        {
          "internalType": "address",
          "name": "verifyingContract",
          "type": "address"
        },
        {
          "internalType": "bytes32",
          "name": "salt",
          "type": "bytes32"
        },
        {
          "internalType": "uint256[]",
          "name": "extensions",
          "type": "uint256[]"
        }
      ],
      "stateMutability": "view",
      "type": "function"
    },
    {
      "inputs": [],
      "name": "fullVerifier",
      "outputs": [
        {
          "internalType": "address",
          "name": "",
          "type": "address"
        }
      ],
      "stateMutability": "view",
      "type": "function"
    },
    {
      "inputs": [
        {
          "internalType": "address",
          "name": "to",
          "type": "address"
        },
        {
          "internalType": "uint256",
          "name": "amount",
          "type": "uint256"
        }
      ],
      "name": "mint",
      "outputs": [],
      "stateMutability": "nonpayable",
      "type": "function"
    },
    {
      "inputs": [],
      "name": "name",
      "outputs": [
        {
          "internalType": "string",
          "name": "",
          "type": "string"
        }
      ],
      "stateMutability": "view",
      "type": "function"
    },
    {
      "inputs": [
        {
          "internalType": "address",
          "name": "owner",
          "type": "address"
        }
      ],
      "name": "nonces",
      "outputs": [
        {
          "internalType": "uint256",
          "name": "",
          "type": "uint256"
        }
      ],
      "stateMutability": "view",
      "type": "function"
    },
    {
      "inputs": [],
      "name": "owner",
      "outputs": [
        {
          "internalType": "address",
          "name": "",
          "type": "address"
        }
      ],
      "stateMutability": "view",
      "type": "function"
    },
    {
      "inputs": [
        {
          "internalType": "address",
          "name": "owner",
          "type": "address"
        },
        {
          "internalType": "address",
          "name": "spender",
          "type": "address"
        },
        {
          "internalType": "uint256",
          "name": "value",
          "type": "uint256"
        },
        {
          "internalType": "uint256",
          "name": "deadline",
          "type": "uint256"
        },
        {
          "internalType": "uint8",
          "name": "v",
          "type": "uint8"
        },
        {
          "internalType": "bytes32",
          "name": "r",
          "type": "bytes32"
        },
        {
          "internalType": "bytes32",
          "name": "s",
          "type": "bytes32"
        }
      ],
      "name": "permit",
      "outputs": [],
      "stateMutability": "nonpayable",
      "type": "function"
    },
    {
      "inputs": [
        {
          "internalType": "address",
          "name": "to",
          "type": "address"
        },
        {
          "internalType": "uint256",
          "name": "amount",
          "type": "uint256"
        },
        {
          "internalType": "uint256",
          "name": "blockNum",
          "type": "uint256"
        },
        {
          "internalType": "bytes",
          "name": "snarkProof",
          "type": "bytes"
        }
      ],
      "name": "reMint",
      "outputs": [],
      "stateMutability": "nonpayable",
      "type": "function"
    },
    {
      "inputs": [
        {
          "internalType": "address",
          "name": "to",
          "type": "address"
        },
        {
          "internalType": "uint256",
          "name": "amount",
          "type": "uint256"
        },
        {
          "internalType": "uint256",
          "name": "blockNum",
          "type": "uint256"
        },
        {
          "internalType": "bytes",
          "name": "snarkProof",
          "type": "bytes"
        }
      ],
      "name": "reMintFullVerifier",
      "outputs": [],
      "stateMutability": "nonpayable",
      "type": "function"
    },
    {
      "inputs": [],
      "name": "renounceOwnership",
      "outputs": [],
      "stateMutability": "nonpayable",
      "type": "function"
    },
    {
      "inputs": [
        {
          "internalType": "bytes32",
          "name": "blockHash",
          "type": "bytes32"
        },
        {
          "internalType": "uint256",
          "name": "blockNum",
          "type": "uint256"
        }
      ],
      "name": "setBlockHash",
      "outputs": [],
      "stateMutability": "nonpayable",
      "type": "function"
    },
    {
      "inputs": [
        {
          "internalType": "address",
          "name": "_fullVerifier",
          "type": "address"
        },
        {
          "internalType": "address",
          "name": "_smolVerifier",
          "type": "address"
        }
      ],
      "name": "setVerifiers",
      "outputs": [],
      "stateMutability": "nonpayable",
      "type": "function"
    },
    {
      "inputs": [],
      "name": "smolVerifier",
      "outputs": [
        {
          "internalType": "address",
          "name": "",
          "type": "address"
        }
      ],
      "stateMutability": "view",
      "type": "function"
    },
    {
      "inputs": [],
      "name": "symbol",
      "outputs": [
        {
          "internalType": "string",
          "name": "",
          "type": "string"
        }
      ],
      "stateMutability": "view",
      "type": "function"
    },
    {
      "inputs": [],
      "name": "totalSupply",
      "outputs": [
        {
          "internalType": "uint256",
          "name": "",
          "type": "uint256"
        }
      ],
      "stateMutability": "view",
      "type": "function"
    },
    {
      "inputs": [
        {
          "internalType": "address",
          "name": "to",
          "type": "address"
        },
        {
          "internalType": "uint256",
          "name": "value",
          "type": "uint256"
        }
      ],
      "name": "transfer",
      "outputs": [
        {
          "internalType": "bool",
          "name": "",
          "type": "bool"
        }
      ],
      "stateMutability": "nonpayable",
      "type": "function"
    },
    {
      "inputs": [
        {
          "internalType": "address",
          "name": "from",
          "type": "address"
        },
        {
          "internalType": "address",
          "name": "to",
          "type": "address"
        },
        {
          "internalType": "uint256",
          "name": "value",
          "type": "uint256"
        }
      ],
      "name": "transferFrom",
      "outputs": [
        {
          "internalType": "bool",
          "name": "",
          "type": "bool"
        }
      ],
      "stateMutability": "nonpayable",
      "type": "function"
    },
    {
      "inputs": [
        {
          "internalType": "address",
          "name": "newOwner",
          "type": "address"
        }
      ],
      "name": "transferOwnership",
      "outputs": [],
      "stateMutability": "nonpayable",
      "type": "function"
    }
  ],
  "bytecode": "0x61016060405234801562000011575f80fd5b50604051806040016040528060058152602001643a37b5b2b760d91b81525080604051806040016040528060018152602001603160f81b81525033604051806040016040528060058152602001643a37b5b2b760d91b815250604051806040016040528060038152602001623a35b760e91b815250816003908162000097919062000308565b506004620000a6828262000308565b5050506001600160a01b038116620000d857604051631e4fbdf760e01b81525f60048201526024015b60405180910390fd5b620000e3816200019f565b50620000f1826006620001f0565b6101205262000102816007620001f0565b61014052815160208084019190912060e052815190820120610100524660a0526200018f60e05161010051604080517f8b73c3c69bb8fe3d512ecc4cf759cc79239f7b179b0ffacaa9a75d522b39400f60208201529081019290925260608201524660808201523060a08201525f9060c00160405160208183030381529060405280519060200120905090565b60805250503060c0525062000446565b600580546001600160a01b038381166001600160a01b0319831681179093556040519116919082907f8be0079c531659141344cd1fd0a4f28419497f9722a3daafe3b4186f6b6457e0905f90a35050565b5f6020835110156200020f57620002078362000228565b905062000222565b816200021c848262000308565b5060ff90505b92915050565b5f80829050601f8151111562000255578260405163305a27a960e01b8152600401620000cf9190620003d4565b8051620002628262000422565b179392505050565b634e487b7160e01b5f52604160045260245ffd5b600181811c908216806200029357607f821691505b602082108103620002b257634e487b7160e01b5f52602260045260245ffd5b50919050565b601f8211156200030357805f5260205f20601f840160051c81016020851015620002df5750805b601f840160051c820191505b8181101562000300575f8155600101620002eb565b50505b505050565b81516001600160401b038111156200032457620003246200026a565b6200033c816200033584546200027e565b84620002b8565b602080601f83116001811462000372575f84156200035a5750858301515b5f19600386901b1c1916600185901b178555620003cc565b5f85815260208120601f198616915b82811015620003a25788860151825594840194600190910190840162000381565b5085821015620003c057878501515f19600388901b60f8161c191681555b505060018460011b0185555b505050505050565b5f602080835283518060208501525f5b818110156200040257858101830151858201604001528201620003e4565b505f604082860101526040601f19601f8301168501019250505092915050565b80516020808301519190811015620002b2575f1960209190910360031b1b16919050565b60805160a05160c05160e05161010051610120516101405161157a620004985f395f610b3901525f610b0c01525f61094601525f61091e01525f61087901525f6108a301525f6108cd015261157a5ff3fe608060405234801561000f575f80fd5b5060043610610148575f3560e01c806370a08231116100bf57806395d89b411161007957806395d89b41146102c4578063a9059cbb146102cc578063c8859a26146102df578063d505accf146102f2578063dd62ed3e14610305578063f2fde38b1461033d575f80fd5b806370a0823114610242578063715018a61461026a5780637c154d40146102725780637ecebe001461028557806384b0196e146102985780638da5cb5b146102b3575f80fd5b80633644e515116101105780633644e515146101c157806340c10f19146101c95780635225d4eb146101de57806352569f56146102095780635fad58e01461021c5780636688321b1461022f575f80fd5b806306fdde031461014c578063095ea7b31461016a57806318160ddd1461018d57806323b872dd1461019f578063313ce567146101b2575b5f80fd5b610154610350565b6040516101619190611184565b60405180910390f35b61017d6101783660046111b8565b6103e0565b6040519015158152602001610161565b6002545b604051908152602001610161565b61017d6101ad3660046111e0565b6103f9565b60405160128152602001610161565b61019161041c565b6101dc6101d73660046111b8565b61042a565b005b600a546101f1906001600160a01b031681565b6040516001600160a01b039091168152602001610161565b6101dc610217366004611219565b610438565b6101dc61022a366004611239565b610450565b6009546101f1906001600160a01b031681565b6101916102503660046112c5565b6001600160a01b03165f9081526020819052604090205490565b6101dc610476565b6101dc6102803660046112de565b610489565b6101916102933660046112c5565b610576565b6102a0610593565b604051610161979695949392919061130f565b6005546001600160a01b03166101f1565b6101546105d5565b61017d6102da3660046111b8565b6105e4565b6101dc6102ed366004611239565b6105f1565b6101dc6103003660046113a6565b610610565b6101916103133660046112de565b6001600160a01b039182165f90815260016020908152604080832093909416825291909152205490565b6101dc61034b3660046112c5565b610746565b60606003805461035f90611413565b80601f016020809104026020016040519081016040528092919081815260200182805461038b90611413565b80156103d65780601f106103ad576101008083540402835291602001916103d6565b820191905f5260205f20905b8154815290600101906020018083116103b957829003601f168201915b5050505050905090565b5f336103ed818585610783565b60019150505b92915050565b5f33610406858285610795565b610411858585610810565b506001949350505050565b5f61042561086d565b905090565b6104348282610996565b5050565b6104406109ca565b5f908152600b6020526040902055565b60095461046f90869086908690869086906001600160a01b03166109f7565b5050505050565b61047e6109ca565b6104875f610ab4565b565b6104916109ca565b6009546001600160a01b0316156104ef5760405162461bcd60e51b815260206004820152601d60248201527f766572696669657220697320616c7265616479207365742073696c6c7900000060448201526064015b60405180910390fd5b600a546001600160a01b0316156105485760405162461bcd60e51b815260206004820152601d60248201527f766572696669657220697320616c7265616479207365742073696c6c7900000060448201526064016104e6565b600a80546001600160a01b039384166001600160a01b03199182161790915560098054929093169116179055565b6001600160a01b0381165f908152600860205260408120546103f3565b5f6060805f805f60606105a4610b05565b6105ac610b32565b604080515f80825260208201909252600f60f81b9b939a50919850469750309650945092509050565b60606004805461035f90611413565b5f336103ed818585610810565b600a5461046f90869086908690869086906001600160a01b03166109f7565b834211156106345760405163313c898160e11b8152600481018590526024016104e6565b5f7f6e71edae12b1b97f4d1f60370fef10105fa2faae0126114a169c64845d6126c988888861067f8c6001600160a01b03165f90815260086020526040902080546001810190915590565b6040805160208101969096526001600160a01b0394851690860152929091166060840152608083015260a082015260c0810186905260e0016040516020818303038152906040528051906020012090505f6106d982610b5f565b90505f6106e882878787610b8b565b9050896001600160a01b0316816001600160a01b03161461072f576040516325c0072360e11b81526001600160a01b0380831660048301528b1660248201526044016104e6565b61073a8a8a8a610783565b50505050505050505050565b61074e6109ca565b6001600160a01b03811661077757604051631e4fbdf760e01b81525f60048201526024016104e6565b61078081610ab4565b50565b6107908383836001610bb7565b505050565b6001600160a01b038381165f908152600160209081526040808320938616835292905220545f19811461080a57818110156107fc57604051637dc7a0d960e11b81526001600160a01b038416600482015260248101829052604481018390526064016104e6565b61080a84848484035f610bb7565b50505050565b6001600160a01b03831661083957604051634b637e8f60e11b81525f60048201526024016104e6565b6001600160a01b0382166108625760405163ec442f0560e01b81525f60048201526024016104e6565b610790838383610c89565b5f306001600160a01b037f0000000000000000000000000000000000000000000000000000000000000000161480156108c557507f000000000000000000000000000000000000000000000000000000000000000046145b156108ef57507f000000000000000000000000000000000000000000000000000000000000000090565b610425604080517f8b73c3c69bb8fe3d512ecc4cf759cc79239f7b179b0ffacaa9a75d522b39400f60208201527f0000000000000000000000000000000000000000000000000000000000000000918101919091527f000000000000000000000000000000000000000000000000000000000000000060608201524660808201523060a08201525f9060c00160405160208183030381529060405280519060200120905090565b6001600160a01b0382166109bf5760405163ec442f0560e01b81525f60048201526024016104e6565b6104345f8383610c89565b6005546001600160a01b031633146104875760405163118cdaa760e01b81523360048201526024016104e6565b5f848152600b602052604081205490610a11888884610daf565b604051633a94343960e21b81529091506001600160a01b0384169063ea50d0e490610a449088908890869060040161144b565b602060405180830381865afa158015610a5f573d5f803e3d5ffd5b505050506040513d601f19601f82011682018060405250810190610a8391906114c3565b610aa05760405163439cc0cd60e01b815260040160405180910390fd5b610aaa8888610996565b5050505050505050565b600580546001600160a01b038381166001600160a01b0319831681179093556040519116919082907f8be0079c531659141344cd1fd0a4f28419497f9722a3daafe3b4186f6b6457e0905f90a35050565b60606104257f00000000000000000000000000000000000000000000000000000000000000006006610eb4565b60606104257f00000000000000000000000000000000000000000000000000000000000000006007610eb4565b5f6103f3610b6b61086d565b8360405161190160f01b8152600281019290925260228201526042902090565b5f805f80610b9b88888888610f5d565b925092509250610bab8282611025565b50909695505050505050565b6001600160a01b038416610be05760405163e602df0560e01b81525f60048201526024016104e6565b6001600160a01b038316610c0957604051634a1406b160e11b81525f60048201526024016104e6565b6001600160a01b038085165f908152600160209081526040808320938716835292905220829055801561080a57826001600160a01b0316846001600160a01b03167f8c5be1e5ebec7d5bd14f71427d1e84f3dd0314c0f7b2291e5b200ac8c7c3b92584604051610c7b91815260200190565b60405180910390a350505050565b6001600160a01b038316610cb3578060025f828254610ca891906114f6565b90915550610d239050565b6001600160a01b0383165f9081526020819052604090205481811015610d055760405163391434e360e21b81526001600160a01b038516600482015260248101829052604481018390526064016104e6565b6001600160a01b0384165f9081526020819052604090209082900390555b6001600160a01b038216610d3f57600280548290039055610d5d565b6001600160a01b0382165f9081526020819052604090208054820190555b816001600160a01b0316836001600160a01b03167fddf252ad1be2c89b69c2b068fc378daa952ba7f163c4a11628f55a4df523b3ef83604051610da291815260200190565b60405180910390a3505050565b604080516041808252610840820190925260609184916001600160a01b038716915f9190602082016108208036833701905050905081815f81518110610df757610df7611509565b602090810291909101015260015b6021811015610e555783610e1a60018361151d565b60208110610e2a57610e2a611509565b835191901a90839083908110610e4257610e42611509565b6020908102919091010152600101610e05565b5060215b6041811015610ea95785610e6e60218361151d565b60208110610e7e57610e7e611509565b835191901a90839083908110610e9657610e96611509565b6020908102919091010152600101610e59565b509695505050505050565b606060ff8314610ece57610ec7836110dd565b90506103f3565b818054610eda90611413565b80601f0160208091040260200160405190810160405280929190818152602001828054610f0690611413565b8015610f515780601f10610f2857610100808354040283529160200191610f51565b820191905f5260205f20905b815481529060010190602001808311610f3457829003601f168201915b505050505090506103f3565b5f80807f7fffffffffffffffffffffffffffffff5d576e7357a4501ddfe92f46681b20a0841115610f9657505f9150600390508261101b565b604080515f808252602082018084528a905260ff891692820192909252606081018790526080810186905260019060a0016020604051602081039080840390855afa158015610fe7573d5f803e3d5ffd5b5050604051601f1901519150506001600160a01b03811661101257505f92506001915082905061101b565b92505f91508190505b9450945094915050565b5f82600381111561103857611038611530565b03611041575050565b600182600381111561105557611055611530565b036110735760405163f645eedf60e01b815260040160405180910390fd5b600282600381111561108757611087611530565b036110a85760405163fce698f760e01b8152600481018290526024016104e6565b60038260038111156110bc576110bc611530565b03610434576040516335e2f38360e21b8152600481018290526024016104e6565b60605f6110e98361111a565b6040805160208082528183019092529192505f91906020820181803683375050509182525060208101929092525090565b5f60ff8216601f8111156103f357604051632cd44ac360e21b815260040160405180910390fd5b5f81518084525f5b8181101561116557602081850181015186830182015201611149565b505f602082860101526020601f19601f83011685010191505092915050565b602081525f6111966020830184611141565b9392505050565b80356001600160a01b03811681146111b3575f80fd5b919050565b5f80604083850312156111c9575f80fd5b6111d28361119d565b946020939093013593505050565b5f805f606084860312156111f2575f80fd5b6111fb8461119d565b92506112096020850161119d565b9150604084013590509250925092565b5f806040838503121561122a575f80fd5b50508035926020909101359150565b5f805f805f6080868803121561124d575f80fd5b6112568661119d565b94506020860135935060408601359250606086013567ffffffffffffffff80821115611280575f80fd5b818801915088601f830112611293575f80fd5b8135818111156112a1575f80fd5b8960208285010111156112b2575f80fd5b9699959850939650602001949392505050565b5f602082840312156112d5575f80fd5b6111968261119d565b5f80604083850312156112ef575f80fd5b6112f88361119d565b91506113066020840161119d565b90509250929050565b60ff60f81b881681525f602060e0602084015261132f60e084018a611141565b8381036040850152611341818a611141565b606085018990526001600160a01b038816608086015260a0850187905284810360c0860152855180825260208088019350909101905f5b8181101561139457835183529284019291840191600101611378565b50909c9b505050505050505050505050565b5f805f805f805f60e0888a0312156113bc575f80fd5b6113c58861119d565b96506113d36020890161119d565b95506040880135945060608801359350608088013560ff811681146113f6575f80fd5b9699959850939692959460a0840135945060c09093013592915050565b600181811c9082168061142757607f821691505b60208210810361144557634e487b7160e01b5f52602260045260245ffd5b50919050565b60408152826040820152828460608301375f606084830101525f601f19601f850116820160608101602060608584030160208601528186518084526080850191506020880194505f93505b808410156114b65784518252938201936001939093019290820190611496565b5098975050505050505050565b5f602082840312156114d3575f80fd5b81518015158114611196575f80fd5b634e487b7160e01b5f52601160045260245ffd5b808201808211156103f3576103f36114e2565b634e487b7160e01b5f52603260045260245ffd5b818103818111156103f3576103f36114e2565b634e487b7160e01b5f52602160045260245ffdfea2646970667358221220f2c85dcfda98a4e6c703496a8563bafca93e1d2e386bd37e447b4f1cd76074b464736f6c63430008170033",
  "linkReferences": {},
  "deployedLinkReferences": {}
}