{
  "_format": "hh-sol-artifact-1",
  "contractName": "SmolVerifier",
  "sourceName": "contracts/SmolVerifier.sol",
  "abi": [
    {
      "inputs": [],
      "name": "INVALID_VERIFICATION_KEY",
      "type": "error"
    },
    {
      "inputs": [],
      "name": "MOD_EXP_FAILURE",
      "type": "error"
    },
    {
      "inputs": [],
      "name": "OPENING_COMMITMENT_FAILED",
      "type": "error"
    },
    {
      "inputs": [],
      "name": "PAIRING_FAILED",
      "type": "error"
    },
    {
      "inputs": [],
      "name": "PAIRING_PREAMBLE_FAILED",
      "type": "error"
    },
    {
      "inputs": [],
      "name": "POINT_NOT_ON_CURVE",
      "type": "error"
    },
    {
      "inputs": [
        {
          "internalType": "uint256",
          "name": "expected",
          "type": "uint256"
        },
        {
          "internalType": "uint256",
          "name": "actual",
          "type": "uint256"
        }
      ],
      "name": "PUBLIC_INPUT_COUNT_INVALID",
      "type": "error"
    },
    {
      "inputs": [],
      "name": "PUBLIC_INPUT_GE_P",
      "type": "error"
    },
    {
      "inputs": [],
      "name": "PUBLIC_INPUT_INVALID_BN128_G1_POINT",
      "type": "error"
    },
    {
      "inputs": [],
      "name": "getVerificationKeyHash",
      "outputs": [
        {
          "internalType": "bytes32",
          "name": "",
          "type": "bytes32"
        }
      ],
      "stateMutability": "pure",
      "type": "function"
    },
    {
      "inputs": [
        {
          "internalType": "bytes",
          "name": "_proof",
          "type": "bytes"
        },
        {
          "internalType": "bytes32[]",
          "name": "_publicInputs",
          "type": "bytes32[]"
        }
      ],
      "name": "verify",
      "outputs": [
        {
          "internalType": "bool",
          "name": "",
          "type": "bool"
        }
      ],
      "stateMutability": "view",
      "type": "function"
    }
  ],
  "bytecode": "0x608060405234801561001057600080fd5b50620800006103805260416103a0527f2260e724844bca5251829353968e4915305258418357473a5c1d597f613f6cbd6103c0527f3064486657634403844b0eac78ca882cfd284341fcb0615a15cfcd17b14d82016103e0527f0d50f83f6c4f4438c781723aa6882b7b5f63d47b75ed0d0325959d535e64d6f9610400527f2fb47eb89aaeb537e5a9947b3dfd3570529930373849ac8297dfaf659d9acaf1610420527f2acc0313bb0d78e5f62fc999a7f947cba608517c975536fa6024c395b2bc501c610440527f0cb28745470e4e4c22d4f1ca950c8e82df396518521bcbf66605292d0b5cee98610460527f168a466aab414853766464c9c4c745d6bd0e892bd8df4266e6aafd049b5621f5610480527f15f07ef9e28a580e86fa2f14db5bf872485c433f57cbda72f22cc5e41ff963da6104a0527f13eac702167400a021fb3fbfd5f6c892e57362af4729ea5b4b8d0797e105d1ac6104c0527f0c2971bb94cd2fa004ca498a589974a5fe66d44fa6741e2ce092caefb83d4c246104e0527f0b95db789af688acd8e572143b606750d0400f24858c81fbfee6d0c81a13140f610500527f20e2176516bb80555396dd9e4d84ebd75deb701acb0ce53bae334a25fe451956610520527f0689e1ab51c54a21165162bf30dc2af352b2b35daed392da2999a01e3f88f89e610540527f2f5b5feecccd05a24f2df3cbebc5c2697fa00e17a73f3798ac9b53660fe0ad8a610560527f1aac04554b332eacb750136e5f6bf8da59d6c24fb2f26c063478cef68c7632ef610580527f2d08a410d034052dab845a23c56225828c45054753793e192dce61d5da82bebf6105a0527f0b1e2766f5ccf47f22e7ef3bb4efc37950bebdd542635cc664155ad8dc9766516105c0527f23d29468bedb50db9a4d5eb181da5ac6c6c5283e9c9c7a5d488e92f75b0526286105e0527f0346eb76deee9a3ae7b350f402a778b1d6d269fccd2036db0ec5fe39439b1e9a610600527f12b9c69aa4d51eb3920484e5f218388542023c239f7cb66db4175af241497622610620527f1a78811645b84bbd89672882483e957625cf3aec430bbb2096c060a3b45fe470610640527f1e083a3d76abacbf139701a1d2fc905090056fde016569cfb325b37e997c6845610660527f012b672a6bfce40cf8b85e7623da5a366b5017050918229d4a419480d5448072610680527f1e45e88e8b62be671c9b55fa320e82fc4451fb8fee0aa7e6dec853e7b2d4a4e46106a0527f1bf8b4e856c62cdeeefb6a75f902e83ba4e7c8a6ef70e908c6fa633eb4cad7b56106c0527f2d2ea26c6f1e7ae3b6913d120db594a5c2aaabb3e9ddba5037fdcfdeffd53fa26106e0527f05c9c19d3fcfe2f4a86e0b181c49f2e7615dd736f384460bc0fca29ec56f2ce8610700527f23ed96d8c11e8be33845beea8e7f4f3938cce6bfbb7eb1ad3067bfa3ddace082610720527f01e07efee48c01e77a11beaf4f9387599c984af2847ea62ee152764e882c03e8610740527f1e14a7d81c4d053df4f65218eeccbf2dc581910b22ef38f4075cab20213a0c31610760527f21f99538c4d20fdb717146b40d7d123080687588869d4140e2a221f499c06fa3610780527f1dcec83d46ee1c11a0248335416b5b68bcc230f3f6c772c188ec4a01ecbfd2156107a0527f189e35216fa2d7b2a489fed1f8b70b2344f5a755507811e1367248211c17151d6107c0527f295daacb6919f1a4c48111fb089b65eec36e21d8ccef4e7d602f31a1098dca8c6107e0527f0314a6e70432bfaa50ae2436fbb4c7aaccedc612c592446205719e14d1cc89dd610800527f0cad995ef455de3d361c47a230fe43ec40293fbf21bbe2763f6b8b637311824e610820527f070e15ba12a08476ae69e9e691ae690dd8eef8e0d0d92677257e2b1164177262610840527f075bf7993667e802721736e7dfffdd9f5bb49dd7c23fb2a260060d34170e863a610860527f0dfe4627e4d112d37d55b214eb5cb51b5cb4856e1fa6a3e5edecd1aa30074d92610880527f04a3f06af031bbb2036c337e56f84e9d50461d273f41d99c6c33d89f95009d606108a0527f0a479915104cea2d849cf080e0324bc6bad2de5d29bce380b22bc689b4ee922d6108c0527f2c6725a0376afa95865abb6b441d8f30f66201d18beea2df45a983db71e577b56108e0527f1cdef7a4a50d241ed445779e99568d3184cb41605c3766b7a417e8c11156b29d610900527f2495d808bcc6ccf8e1c08b65ff9feba6d122926e6095da8f24dece1875cdf0b5610920527f2ed7442ac6e3fa6353e3c5c5006d974c573f763bb2dd8008bc450e6ea2ec00e3610940527f2670dddd4c8a483ff9e7f1cef8b05e313fe72716f150c3e8f12ad35f0538a109610960527f1ed3b7bae613467f440e08079e629eb4db214f9baa24885abbdf611bddfa026a610980527f2156f6c939b5410eff5c9303cda22555683582f38fe605e2412048604b5e25ef6109a05260006109c08190526109e0527f260e01b251f6f1c7e7ff4e580791dee8ea51d87a358e038b4efe30fac09383c1610a00527f0118c4d5b837bcc2bc89b5b398b5974e9f5944073b32078b7e231fec938883b0610a20527f04fc6369f7110fe3d25156c1bb9a72859cf2a04641f99ba4ee413c80da6a5fe4610a40527f22febda3c0c0632a56475b4214e5615e11e6dd3f96e6cea2854a87d4dacc5e55610a60527f06e402c0a314fb67a15cf806664ae1b722dbc0efe66e6c81d98f9924ca535321613300527f30644e72e131a029b85045b68181585d97816a916871ca8d3c208c16d87cfd47600161040051610420518382830984600386838609088583840914841693505050506104405161046051838283098460038683860908858384091484169350505050610480516104a0518382830984600386838609088583840914841693505050506104c0516104e051838283098460038683860908858384091484169350508160005280602052505061050051610520518382830984600386838609088583840914841693505050506105405161056051838283098460038683860908858384091484169350505050610580516105a0518382830984600386838609088583840914841693505050506105c0516105e05183828309846003868386090885838409148416935050505061060051610620518382830984600386838609088583840914841693505050506106405161066051838283098460038683860908858384091484169350505050610680516106a0518382830984600386838609088583840914841693505050506106c0516106e05183828309846003868386090885838409148416935050505061070051610720518382830984600386838609088583840914841693505050506107405161076051838283098460038683860908858384091484169350505050610780516107a0518382830984600386838609088583840914841693505050506107c0516107e05183828309846003868386090885838409148416935050505061080051610820518382830984600386838609088583840914841693505050506108405161086051838283098460038683860908858384091484169350505050610880516108a0518382830984600386838609088583840914841693505050506108c0516108e05183828309846003868386090885838409148416935050505061090051610920518382830984600386838609088583840914841693505050506109405161096051838283098460038683860908858384091484169350505050610980516109a05183828309846003868386090885838409148416935050505080610af557637e5769bf60e01b60005260046000fd5b5050612bd780610b066000396000f3fe608060405234801561001057600080fd5b50600436106100365760003560e01c8063937f6a101461003b578063ea50d0e41461006e575b600080fd5b6040517fb5fe8d02382f6f95e9330ca32304ddd8849a54da27338b5f34f20316dc130d1f81526020015b60405180910390f35b61008161007c366004612adc565b610091565b6040519015158152602001610065565b620800006103805260416103a0527f2260e724844bca5251829353968e4915305258418357473a5c1d597f613f6cbd6103c0527f3064486657634403844b0eac78ca882cfd284341fcb0615a15cfcd17b14d82016103e0527f0d50f83f6c4f4438c781723aa6882b7b5f63d47b75ed0d0325959d535e64d6f9610400527f2fb47eb89aaeb537e5a9947b3dfd3570529930373849ac8297dfaf659d9acaf1610420527f2acc0313bb0d78e5f62fc999a7f947cba608517c975536fa6024c395b2bc501c610440527f0cb28745470e4e4c22d4f1ca950c8e82df396518521bcbf66605292d0b5cee98610460527f168a466aab414853766464c9c4c745d6bd0e892bd8df4266e6aafd049b5621f5610480527f15f07ef9e28a580e86fa2f14db5bf872485c433f57cbda72f22cc5e41ff963da6104a0527f13eac702167400a021fb3fbfd5f6c892e57362af4729ea5b4b8d0797e105d1ac6104c0527f0c2971bb94cd2fa004ca498a589974a5fe66d44fa6741e2ce092caefb83d4c246104e0527f0b95db789af688acd8e572143b606750d0400f24858c81fbfee6d0c81a13140f610500527f20e2176516bb80555396dd9e4d84ebd75deb701acb0ce53bae334a25fe451956610520527f0689e1ab51c54a21165162bf30dc2af352b2b35daed392da2999a01e3f88f89e610540527f2f5b5feecccd05a24f2df3cbebc5c2697fa00e17a73f3798ac9b53660fe0ad8a610560527f1aac04554b332eacb750136e5f6bf8da59d6c24fb2f26c063478cef68c7632ef610580527f2d08a410d034052dab845a23c56225828c45054753793e192dce61d5da82bebf6105a0527f0b1e2766f5ccf47f22e7ef3bb4efc37950bebdd542635cc664155ad8dc9766516105c0527f23d29468bedb50db9a4d5eb181da5ac6c6c5283e9c9c7a5d488e92f75b0526286105e0527f0346eb76deee9a3ae7b350f402a778b1d6d269fccd2036db0ec5fe39439b1e9a610600527f12b9c69aa4d51eb3920484e5f218388542023c239f7cb66db4175af241497622610620527f1a78811645b84bbd89672882483e957625cf3aec430bbb2096c060a3b45fe470610640527f1e083a3d76abacbf139701a1d2fc905090056fde016569cfb325b37e997c6845610660527f012b672a6bfce40cf8b85e7623da5a366b5017050918229d4a419480d5448072610680527f1e45e88e8b62be671c9b55fa320e82fc4451fb8fee0aa7e6dec853e7b2d4a4e46106a0527f1bf8b4e856c62cdeeefb6a75f902e83ba4e7c8a6ef70e908c6fa633eb4cad7b56106c0527f2d2ea26c6f1e7ae3b6913d120db594a5c2aaabb3e9ddba5037fdcfdeffd53fa26106e0527f05c9c19d3fcfe2f4a86e0b181c49f2e7615dd736f384460bc0fca29ec56f2ce8610700527f23ed96d8c11e8be33845beea8e7f4f3938cce6bfbb7eb1ad3067bfa3ddace082610720527f01e07efee48c01e77a11beaf4f9387599c984af2847ea62ee152764e882c03e8610740527f1e14a7d81c4d053df4f65218eeccbf2dc581910b22ef38f4075cab20213a0c31610760527f21f99538c4d20fdb717146b40d7d123080687588869d4140e2a221f499c06fa3610780527f1dcec83d46ee1c11a0248335416b5b68bcc230f3f6c772c188ec4a01ecbfd2156107a0527f189e35216fa2d7b2a489fed1f8b70b2344f5a755507811e1367248211c17151d6107c0527f295daacb6919f1a4c48111fb089b65eec36e21d8ccef4e7d602f31a1098dca8c6107e0527f0314a6e70432bfaa50ae2436fbb4c7aaccedc612c592446205719e14d1cc89dd610800527f0cad995ef455de3d361c47a230fe43ec40293fbf21bbe2763f6b8b637311824e610820527f070e15ba12a08476ae69e9e691ae690dd8eef8e0d0d92677257e2b1164177262610840527f075bf7993667e802721736e7dfffdd9f5bb49dd7c23fb2a260060d34170e863a610860527f0dfe4627e4d112d37d55b214eb5cb51b5cb4856e1fa6a3e5edecd1aa30074d92610880527f04a3f06af031bbb2036c337e56f84e9d50461d273f41d99c6c33d89f95009d606108a0527f0a479915104cea2d849cf080e0324bc6bad2de5d29bce380b22bc689b4ee922d6108c0527f2c6725a0376afa95865abb6b441d8f30f66201d18beea2df45a983db71e577b56108e0527f1cdef7a4a50d241ed445779e99568d3184cb41605c3766b7a417e8c11156b29d610900527f2495d808bcc6ccf8e1c08b65ff9feba6d122926e6095da8f24dece1875cdf0b5610920527f2ed7442ac6e3fa6353e3c5c5006d974c573f763bb2dd8008bc450e6ea2ec00e3610940527f2670dddd4c8a483ff9e7f1cef8b05e313fe72716f150c3e8f12ad35f0538a109610960527f1ed3b7bae613467f440e08079e629eb4db214f9baa24885abbdf611bddfa026a610980527f2156f6c939b5410eff5c9303cda22555683582f38fe605e2412048604b5e25ef6109a05260006109c08190526109e08190527f260e01b251f6f1c7e7ff4e580791dee8ea51d87a358e038b4efe30fac09383c1610a00527f0118c4d5b837bcc2bc89b5b398b5974e9f5944073b32078b7e231fec938883b0610a20527f04fc6369f7110fe3d25156c1bb9a72859cf2a04641f99ba4ee413c80da6a5fe4610a40527f22febda3c0c0632a56475b4214e5615e11e6dd3f96e6cea2854a87d4dacc5e55610a60527f06e402c0a314fb67a15cf806664ae1b722dbc0efe66e6c81d98f9924ca535321613300526103a05182811461088857604051637667dc9b60e01b8152600481018290526024810184905260440160405180910390fd5b7f30644e72e131a029b85045b68181585d97816a916871ca8d3c208c16d87cfd477f30644e72e131a029b85045b68181585d2833e84879b9709143e1f593f00000016024600435018281350661122052826020820135066112005282604082013506611260528260608201350661124052826080820135066112a0528260a082013506611280528260c0820135066112e0528260e0820135066112c05282610100820135066113205282610120820135066113005282610140820135066113605282610160820135066113405282610180820135066113a052826101a08201350661138052826101c0820135066113e052826101e0820135066113c05282610200820135066114205282610220820135066114005282610240820135066114605282610260820135066114405282610280820135066114a052826102a08201350661148052816102c08201350661160052816102e0820135066116205281610300820135066116405281610320820135066116605281610340820135066116805281610360820135066116a05281610380820135066116c052816103a0820135066116e052816103c08201350661170052816103e0820135066117205281610400820135066117405281610420820135066117605281610440820135066117805281610460820135066117a05281610480820135066117c052816104a0820135066117e052816104c08201350661180052816104e0820135066119605281610500820135066119805281610520820135066119a05281610540820135066119c052816105608201350661184052816105808201350661186052816105a08201350661188052816105c0820135066118a052816105e0820135066118c05281610600820135066118e05281610620820135066119005281610640820135066119205281610660820135066119405281610680820135066119e052816106a08201350661200052816106c08201350661202052816106e0820135066120405281610700820135066120605281610720820135066120805281610740820135066120a05281610760820135066120c05281610780820135066120e052816107a08201350661210052816107c08201350661212052826107e08201350661232052826108008201350661230052826108208201350661236052826108408201350661234052506109c05115610cea576024803501806109e05160051b0190508035602082013560441b81019050604082013560881b81019050606082013560cc1b81019050608082013560a083013560441b8101905060c083013560881b8101905060e083013560cc1b8101905061010083013561012084013560441b8101905061014084013560881b8101905061016084013560cc1b810190506101808401356101a085013560441b810190506101c085013560881b810190506101e085013560cc1b810190508361340052826134205281613440528061346052868110878410168783108886101616610ce4576375d4fa5360e11b60005260046000fd5b50505050505b6103805160e01b6000526103a05160e01b60045260086000208061348052602480350160206103a05102808260206134800137600435602401915060c0826134a083013760e0016134802083810661266081905290925090508281800961268052828161268051096126a05250806000526112e0516020526112c051604052611320516060526113005160805260a0600020905081810661260052806000526001602053506021600090812082810661262052815261136051602052611340516040526113a0516060526113805160805260a09020818106612640819052828180096133205282816133205109613340528281613340510961336052806133805250806000526113e0516020526113c05160405261142051606052611400516080526114605160a0526114405160c0526114a05160e052611480516101005261012060002090508181066126c052806126e0525061260051612620516103c051600180856001602480350160206103a0510281018360058a0984600c8b0999505b81831015610eaa57823585811085169450858a82089050858183018909975085818c01880996505084888209905084888b099950602083019250610e6b565b50505080610ec35763374a972f60e01b60005260046000fd5b50508161300052806130205250505050508081600161260051086126205109806103805160015b81811015610eff578483840992508001610eea565b5050613100528181800990508181820961312052506126c05161038051819060015b81811015610f36578483840992508001610f21565b50508061304052826001840382089050613300518084036103e051858286088684840992508687848808820990508684840992508687848808820990508687888686098808820990506103c051925086828609915086600188038708878485099450876001890389898b888d8b8c0909090896506130205194508493508782860994508488878709955085898388099650868a61312051890997508760206000526020805260206040528b8b8a0960605260028c036080528b60a0526020600060c0600060055afa61101357633e2529ef60e21b60005260046000fd5b60005198508b818a0990508b8b8a0998508b828a0991508b613120518a0998508b838a0992508b858a0998508b848a0993508b8a8a0998508b888a0997508b868a0998508b613020518d8b8c090998508b896130005109613060528b888b09613080528b848709613680528b8388096130a0528b826131005109613140528b8188096130c052505050505050505050505061264051506126005161262051828361190051840982611620510101846118e051850983611600510101098384611940518509836116605101018561192051860984611640510101098485868385096116a051096133805109858661198051870985611620510101876119605188098661160051010109925085866119c051870985611660510101876119a0518809866116405101010991508586878885870961208051096133805109870382089050856126405161338051096133805285868788613060518a0361208051086130c0510961338051098208905085612640516133805109613380528586878860018a036116a051086130a05109613380510982086135005250505050508061264051613380510961338052806117205161266051098182836120205161178051096116405108820890508161266051820990508182836120005161176051096116205108820890508161266051820990508182836119e0516117005109611600510882089050816118405183846126605161186051098586612680516118805109876126a0516118a05109080808826120c0518485612660516120e051098687612680516121005109886126a051612120510908080883846001612600510861262051098461262051866118c051870908935084818687612600518609860808925084838509935084856001612600510885099350846130a05161264051099250848385089350846116c0518509935084838603850893508481868761260051612060510961168051080892505050826130c05161332051098381850383089150836120a05183099150838461314051830983089150508261338051848386038508096135205250508061334051613380510961338052806116e0516116005109816117005161162051098261172051611640510983611740516116605109847f183227397098d014dc2822db40c0ac2e9419f4243cdcb848a1f0fac9f80000008687600389036117a0510888611760518a6116205161160051090909098586878889858a08880886088408611780510894505050505081828384856116605161160051086119e051870308611760510884600286036117a05108096126405109828384858685612040510887600189036117a051080985086117a05109613380510961354052505080613320516133805109613380526002810360038203826116005184036116205108836116205185036116405108846116405186036116605108856116605187036119e05108866133805188898888088a8b8b8a088c8a8e038e8c8d09080909099350868788612640516133805109898a8988088b8c8c8a088d8a8f038f8c8d090809090985089350868788613320516133805109898a8987088b8c8c89088d898f038f8b8c090809090985089350868788613340516133805109898a8986088b8c8c88088d888f038f8a8b090809090985089350505050836117c051820961356052505061336051613380518392500961338052806116205182036119e051088161204051612040510982611640516116405109836116e05185612040516116405109098485868384088785870888030886878788098889611620516119e0510861200051080908925050508261338051848561176051870360010884090990508261202051611640510883611640518503856116e05161204051090884858287611620518903612000510809868685090893505050828361264051613380510984856117605187036001088509099150826117e0518484840809613580525050806116205161162051098161164051611640510982611620518460118408098360048309915083600982099050836003840992508381850385848788611620516116205108612000510809089150508283846120205161164051088561164051611640510809840384856120005187036116205108850908915082613380518209905082836126405161338051098309915082611760518209905082611760518309915082836117e0518585850809613580510861358052505080613360516133805109613380528081611620516119e05109826120005161160051090881612020518303838461164051611620510985611660516116005109080882600160441b82099050826120405184038208905082828208905082611740518209905082600160441b830991508283612000516119e05109830891508261172051848561166051611640510886038508098361176051858661204051612020510887038761166051880808099250836117005185858786860808096135c0525050612000518291506140009009816119e0518208905081614000820990508161164051820890508161400082099050816116205182089050816140008209905081611600518208905081611660518303820890508161174051820990508161400061202051098261200051820890508261400082099050826119e05182089050826140008209905082611660518208905082614000820990508261164051820890508261204051840382089050826117605182099050826117205184838508096135e0525050806126605161164051098161162051820890508161266051820990508161160051820890508161266051820990508161178051820890508082611660518403830891508161364052826116005184036119e05108836116605185036120405108848560018703840883098586848803600108830991508585876126405189858b61264051890908090861362052856126605161202051099450856120005186089450856126605186099450856119e0518608945085612660518609945085858703612040510894508561164051870361202051089150858687878903600108840987858903600108099150858487036116605108868760018903830882099050868760018903880887099550866126405184099250868284089250866126405184099250868684089250866126405184099250868184089250508161360052505083611620518503612000510892508361164051850385868488036001088609089250836117005161362051099150838461174051850983089150838461176051613640510983089150836116e0518309915083846117a051613600510983089150836135c05183089250836135e05184089250836118005184099250836133805184099250826135a05283613340516133805109613380525050508061368051826135a0518461358051866135605188613540518a61352051613500510808080808096136608190526126e0516136a08190526136c0919091526102e460043501610520816136e03750506105606136a020818106612700526000819052600160205381602160002006612720526002602053816021600020066127405260036020538160216000200661276052600460205381602160002006612780526005602053816021600020066127a0526006602053816021600020066127c0526007602053816021600020066127e0526008602053816021600020066128005260096020538160216000200661282052600a6020538160216000200661284052600b6020538160216000200661286052600c6020538160216000200661288052600d602053816021600020066128a052600e602053816021600020066128c052600f602053816021600020066128e05260106020538160216000200661290052601160205381602160002006612920526012602053816021600020066129405260136020538160216000200661296052601460205381602160002006612980526015602053816021600020066129a0526016602053816021600020066129c0526017602053816021600020066129e052601860205381602160002006612a0052601960205381602160002006612a2052601a60205381602160002006612a4052601b60205381602160002006612a6052601c60205381602160002006612a8052601d60205381602160002006612aa052601d6020535060216000908120828106612ac05281526123205160205261230051604052612360516060526123405160805260a08120829006612b00526113c0516113e0518482800985600387838609088683840914611c7a576328f6b59560e21b60005260046000fd5b50613160919091526131805261140051611420518482800985600387838609088683840914611cb4576328f6b59560e21b60005260046000fd5b50816000528060205250506130405160405260406131a06060600060075afa90506040613160608061316060065afa8116905061144051611460518482830985600387838609088683840914611d15576328f6b59560e21b60005260046000fd5b50600091909152602052613040518290800960405260406131a06060600060075afa16604061316060808160065afa81169050611480516114a0518482830985600387838609088683840914611d76576328f6b59560e21b60005260046000fd5b50600091909152602052613040518290818180090960405260406131a06060600060075afa16604061316060808160065afa8116905061120051611220518482830985600387838609088683840914611dda576328f6b59560e21b60005260046000fd5b50816000528060205250508161270051836001612b0051080960405260406131a06060600060075afa16604061316060808160065afa8116905061124051611260518482830985600387838609088683840914611e42576328f6b59560e21b60005260046000fd5b50816000528060205250508161272051836001612b0051080960405260406131a06060600060075afa16604061316060808160065afa81169050611280516112a0518482830985600387838609088683840914611eaa576328f6b59560e21b60005260046000fd5b50816000528060205250508161274051836001612b0051080960405260406131a06060600060075afa16604061316060808160065afa811690506112c0516112e0518482830985600387838609088683840914611f12576328f6b59560e21b60005260046000fd5b50816000528060205250508161276051836001612b0051080960405260406131a06060600060075afa16604061316060808160065afa8116905061130051611320518482830985600387838609088683840914611f7a576328f6b59560e21b60005260046000fd5b50816000528060205250508161278051836001612b0051080960405260406131a06060600060075afa16604061316060808160065afa8116905061134051611360518482830985600387838609088683840914611fe2576328f6b59560e21b60005260046000fd5b5081600052806020525050816127a051836001612b0051080960405260406131a06060600060075afa16604061316060808160065afa81169050611380516113a051848283098560038783860908868384091461204a576328f6b59560e21b60005260046000fd5b5081600052806020525050816127c051836001612b0051080960405260406131a06060600060075afa16604061316060808160065afa8116905061040051600052610420516020526127e05160405260406131a06060600060075afa16604061316060808160065afa8116905061044051600052610460516020526128005160405260406131a06060600060075afa16604061316060808160065afa81169050610480516000526104a0516020526128205160405260406131a06060600060075afa16604061316060808160065afa811690506104c0516000526104e0516020526128405160405260406131a06060600060075afa16604061316060808160065afa8116905061050051600052610520516020526128605160405260406131a06060600060075afa16604061316060808160065afa8116905061054051600052610560516020526128805160405260406131a06060600060075afa16604061316060808160065afa81169050610580516000526105a0516020526128a05160405260406131a06060600060075afa16604061316060808160065afa811690506105c0516000526105e0516020526128c05160405260406131a06060600060075afa16604061316060808160065afa8116905061060051600052610620516020526128e05160405260406131a06060600060075afa16604061316060808160065afa8116905061064051600052610660516020526129005160405260406131a06060600060075afa16604061316060808160065afa81169050610680516000526106a0516020526129205160405260406131a06060600060075afa16604061316060808160065afa811690506106c0516000526106e0516020526129405160405260406131a06060600060075afa16604061316060808160065afa8116905061070051600052610720516020526129605160405260406131a06060600060075afa16604061316060808160065afa8116905061074051600052610760516020526129805160405260406131a06060600060075afa16604061316060808160065afa81169050610780516000526107a051602052816129a051836001612b0051080960405260406131a06060600060075afa16604061316060808160065afa811690506107c0516000526107e051602052816129c051836001612b0051080960405260406131a06060600060075afa16604061316060808160065afa811690506108005160005261082051602052816129e051836001612b0051080960405260406131a06060600060075afa16604061316060808160065afa81169050610840516000526108605160205281612a0051836001612b0051080960405260406131a06060600060075afa16604061316060808160065afa81169050610880516000526108a051602052612a205160405260406131a06060600060075afa16604061316060808160065afa811690506108c0516000526108e051602052612a405160405260406131a06060600060075afa16604061316060808160065afa811690506109005160005261092051602052612a605160405260406131a06060600060075afa16604061316060808160065afa811690506109405160005261096051602052612a805160405260406131a06060600060075afa16604061316060808160065afa81169050610980516000526109a051602052612aa05160405260406131a06060600060075afa16604061316060808160065afa8116905081826116005184612b00516119e051090861270051098283846116205186612b00516120005109086127205109820890508283846116405186612b00516120205109086127405109820890508283846116605186612b00516120405109086127605109820890508283846116805186612b00516120605109086127805109820890508283846116a05186612b00516120805109086127a05109820890508283846116c05186612b00516120a05109086127c051098208905082836116e0516127e051098208905082836117005161280051098208905082836117205161282051098208905082836117405161284051098208905082836117605161286051098208905082836117805161288051098208905082836117a0516128a051098208905082836117c0516128c051098208905082836117e0516128e051098208905082836118005161290051098208905082836119605161292051098208905082836119805161294051098208905082836119a05161296051098208905082836119c0516129805109820890508283846118405186612b00516120c05109086129a05109820890508283846118605186612b00516120e05109086129c05109820890508283846118805186612b00516121005109086129e05109820890508283846118a05186612b0051612120510908612a0051098208905082836118c051612a2051098208905082836118e051612a40510982089050828361190051612a60510982089050828361192051612a80510982089050828361194051612aa0510982089050826136605182089050600160005260026020528083036040525060406131a06060600060075afa16604061316060808160065afa16806127cd57634e71976360e01b60005260046000fd5b612b00516126c05161230051612320518682830987600389838609088883840914612803576328f6b59560e21b60005260046000fd5b50816000528060205250508060405260406131a06060600060075afa92506040613160608061316060065afa8316925061234051612360518682830987600389838609088883840914612861576328f6b59560e21b60005260046000fd5b5081600052806020525050836103c05185838509096040525060406131a06060600060075afa821691506040613220608061316060065afa8216915061230051600052612320516020526123405160405261236051606052806080526040806060604060075afa8216915060406131e06080600060065afa82169150613200518403613200526109c051156129c2576134005161342051858283098660038883860908878384091461291e576328f6b59560e21b60005260046000fd5b50600091909152602052828180096040526040606080600060075afa821691506134405161346051858283098660038883860908878384091461296c576328f6b59560e21b60005260046000fd5b50600091825260205260409060608160075afa821691506132205160a0526132405160c05260406132206080606060065afa821691506131e0516040526132005160605260406131e06080600060065afa821691505b50806129d9576301882d8160e01b60005260046000fd5b61322051600052613240516020527f198e9393920d483a7260bfb731fb5d25f1aa493335a9e71297e485b7aef312c26040527f1800deef121f1e76426a00665e5c4479674322d4f75edadd46debd5cd992f6ed6060527f090689d0585ff075ec9e99ad690c3395bc4b313370b38ef355acdadcd122975b6080527f12c85ea5db8c6deb4aab71808dcb408fe3d1e7690c43d37b4ce6cc0166fa7daa60a0526131e05160c0526132005160e052610a005161010052610a205161012052610a405161014052610a60516101605260206000610180600060085afa90506000518116612ace5763d71fd26360e01b60005260046000fd5b505050600160005260206000f35b60008060008060408587031215612af257600080fd5b843567ffffffffffffffff80821115612b0a57600080fd5b818701915087601f830112612b1e57600080fd5b813581811115612b2d57600080fd5b886020828501011115612b3f57600080fd5b602092830196509450908601359080821115612b5a57600080fd5b818701915087601f830112612b6e57600080fd5b813581811115612b7d57600080fd5b8860208260051b8501011115612b9257600080fd5b9598949750506020019450505056fea264697066735822122044f4b061ddfe1013b7649afb46b564b416b51ea4554b8d74b23c930291ef967b64736f6c63430008170033",
  "linkReferences": {},
  "deployedLinkReferences": {}
}