{
  "_format": "hh-sol-artifact-1",
  "contractName": "Token",
  "sourceName": "contracts/Token.sol",
  "abi": [
    {
      "inputs": [],
      "stateMutability": "nonpayable",
      "type": "constructor"
    },
    {
      "inputs": [],
      "name": "ECDSAInvalidSignature",
      "type": "error"
    },
    {
      "inputs": [
        {
          "internalType": "uint256",
          "name": "length",
          "type": "uint256"
        }
      ],
      "name": "ECDSAInvalidSignatureLength",
      "type": "error"
    },
    {
      "inputs": [
        {
          "internalType": "bytes32",
          "name": "s",
          "type": "bytes32"
        }
      ],
      "name": "ECDSAInvalidSignatureS",
      "type": "error"
    },
    {
      "inputs": [
        {
          "internalType": "address",
          "name": "spender",
          "type": "address"
        },
        {
          "internalType": "uint256",
          "name": "allowance",
          "type": "uint256"
        },
        {
          "internalType": "uint256",
          "name": "needed",
          "type": "uint256"
        }
      ],
      "name": "ERC20InsufficientAllowance",
      "type": "error"
    },
    {
      "inputs": [
        {
          "internalType": "address",
          "name": "sender",
          "type": "address"
        },
        {
          "internalType": "uint256",
          "name": "balance",
          "type": "uint256"
        },
        {
          "internalType": "uint256",
          "name": "needed",
          "type": "uint256"
        }
      ],
      "name": "ERC20InsufficientBalance",
      "type": "error"
    },
    {
      "inputs": [
        {
          "internalType": "address",
          "name": "approver",
          "type": "address"
        }
      ],
      "name": "ERC20InvalidApprover",
      "type": "error"
    },
    {
      "inputs": [
        {
          "internalType": "address",
          "name": "receiver",
          "type": "address"
        }
      ],
      "name": "ERC20InvalidReceiver",
      "type": "error"
    },
    {
      "inputs": [
        {
          "internalType": "address",
          "name": "sender",
          "type": "address"
        }
      ],
      "name": "ERC20InvalidSender",
      "type": "error"
    },
    {
      "inputs": [
        {
          "internalType": "address",
          "name": "spender",
          "type": "address"
        }
      ],
      "name": "ERC20InvalidSpender",
      "type": "error"
    },
    {
      "inputs": [
        {
          "internalType": "uint256",
          "name": "deadline",
          "type": "uint256"
        }
      ],
      "name": "ERC2612ExpiredSignature",
      "type": "error"
    },
    {
      "inputs": [
        {
          "internalType": "address",
          "name": "signer",
          "type": "address"
        },
        {
          "internalType": "address",
          "name": "owner",
          "type": "address"
        }
      ],
      "name": "ERC2612InvalidSigner",
      "type": "error"
    },
    {
      "inputs": [
        {
          "internalType": "address",
          "name": "account",
          "type": "address"
        },
        {
          "internalType": "uint256",
          "name": "currentNonce",
          "type": "uint256"
        }
      ],
      "name": "InvalidAccountNonce",
      "type": "error"
    },
    {
      "inputs": [],
      "name": "InvalidShortString",
      "type": "error"
    },
    {
      "inputs": [
        {
          "internalType": "address",
          "name": "owner",
          "type": "address"
        }
      ],
      "name": "OwnableInvalidOwner",
      "type": "error"
    },
    {
      "inputs": [
        {
          "internalType": "address",
          "name": "account",
          "type": "address"
        }
      ],
      "name": "OwnableUnauthorizedAccount",
      "type": "error"
    },
    {
      "inputs": [
        {
          "internalType": "string",
          "name": "str",
          "type": "string"
        }
      ],
      "name": "StringTooLong",
      "type": "error"
    },
    {
      "inputs": [],
      "name": "VerificationFailed",
      "type": "error"
    },
    {
      "anonymous": false,
      "inputs": [
        {
          "indexed": true,
          "internalType": "address",
          "name": "owner",
          "type": "address"
        },
        {
          "indexed": true,
          "internalType": "address",
          "name": "spender",
          "type": "address"
        },
        {
          "indexed": false,
          "internalType": "uint256",
          "name": "value",
          "type": "uint256"
        }
      ],
      "name": "Approval",
      "type": "event"
    },
    {
      "anonymous": false,
      "inputs": [],
      "name": "EIP712DomainChanged",
      "type": "event"
    },
    {
      "anonymous": false,
      "inputs": [
        {
          "indexed": true,
          "internalType": "address",
          "name": "previousOwner",
          "type": "address"
        },
        {
          "indexed": true,
          "internalType": "address",
          "name": "newOwner",
          "type": "address"
        }
      ],
      "name": "OwnershipTransferred",
      "type": "event"
    },
    {
      "anonymous": false,
      "inputs": [
        {
          "indexed": true,
          "internalType": "address",
          "name": "from",
          "type": "address"
        },
        {
          "indexed": true,
          "internalType": "address",
          "name": "to",
          "type": "address"
        },
        {
          "indexed": false,
          "internalType": "uint256",
          "name": "value",
          "type": "uint256"
        }
      ],
      "name": "Transfer",
      "type": "event"
    },
    {
      "inputs": [],
      "name": "DOMAIN_SEPARATOR",
      "outputs": [
        {
          "internalType": "bytes32",
          "name": "",
          "type": "bytes32"
        }
      ],
      "stateMutability": "view",
      "type": "function"
    },
    {
      "inputs": [
        {
          "internalType": "address",
          "name": "owner",
          "type": "address"
        },
        {
          "internalType": "address",
          "name": "spender",
          "type": "address"
        }
      ],
      "name": "allowance",
      "outputs": [
        {
          "internalType": "uint256",
          "name": "",
          "type": "uint256"
        }
      ],
      "stateMutability": "view",
      "type": "function"
    },
    {
      "inputs": [
        {
          "internalType": "address",
          "name": "spender",
          "type": "address"
        },
        {
          "internalType": "uint256",
          "name": "value",
          "type": "uint256"
        }
      ],
      "name": "approve",
      "outputs": [
        {
          "internalType": "bool",
          "name": "",
          "type": "bool"
        }
      ],
      "stateMutability": "nonpayable",
      "type": "function"
    },
    {
      "inputs": [
        {
          "internalType": "address",
          "name": "account",
          "type": "address"
        }
      ],
      "name": "balanceOf",
      "outputs": [
        {
          "internalType": "uint256",
          "name": "",
          "type": "uint256"
        }
      ],
      "stateMutability": "view",
      "type": "function"
    },
    {
      "inputs": [],
      "name": "decimals",
      "outputs": [
        {
          "internalType": "uint8",
          "name": "",
          "type": "uint8"
        }
      ],
      "stateMutability": "view",
      "type": "function"
    },
    {
      "inputs": [],
      "name": "eip712Domain",
      "outputs": [
        {
          "internalType": "bytes1",
          "name": "fields",
          "type": "bytes1"
        },
        {
          "internalType": "string",
          "name": "name",
          "type": "string"
        },
        {
          "internalType": "string",
          "name": "version",
          "type": "string"
        },
        {
          "internalType": "uint256",
          "name": "chainId",
          "type": "uint256"
        },
        {
          "internalType": "address",
          "name": "verifyingContract",
          "type": "address"
        },
        {
          "internalType": "bytes32",
          "name": "salt",
          "type": "bytes32"
        },
        {
          "internalType": "uint256[]",
          "name": "extensions",
          "type": "uint256[]"
        }
      ],
      "stateMutability": "view",
      "type": "function"
    },
    {
      "inputs": [],
      "name": "fullVerifier",
      "outputs": [
        {
          "internalType": "address",
          "name": "",
          "type": "address"
        }
      ],
      "stateMutability": "view",
      "type": "function"
    },
    {
      "inputs": [
        {
          "internalType": "address",
          "name": "to",
          "type": "address"
        },
        {
          "internalType": "uint256",
          "name": "amount",
          "type": "uint256"
        }
      ],
      "name": "mint",
      "outputs": [],
      "stateMutability": "nonpayable",
      "type": "function"
    },
    {
      "inputs": [],
      "name": "name",
      "outputs": [
        {
          "internalType": "string",
          "name": "",
          "type": "string"
        }
      ],
      "stateMutability": "view",
      "type": "function"
    },
    {
      "inputs": [
        {
          "internalType": "address",
          "name": "owner",
          "type": "address"
        }
      ],
      "name": "nonces",
      "outputs": [
        {
          "internalType": "uint256",
          "name": "",
          "type": "uint256"
        }
      ],
      "stateMutability": "view",
      "type": "function"
    },
    {
      "inputs": [],
      "name": "owner",
      "outputs": [
        {
          "internalType": "address",
          "name": "",
          "type": "address"
        }
      ],
      "stateMutability": "view",
      "type": "function"
    },
    {
      "inputs": [
        {
          "internalType": "address",
          "name": "owner",
          "type": "address"
        },
        {
          "internalType": "address",
          "name": "spender",
          "type": "address"
        },
        {
          "internalType": "uint256",
          "name": "value",
          "type": "uint256"
        },
        {
          "internalType": "uint256",
          "name": "deadline",
          "type": "uint256"
        },
        {
          "internalType": "uint8",
          "name": "v",
          "type": "uint8"
        },
        {
          "internalType": "bytes32",
          "name": "r",
          "type": "bytes32"
        },
        {
          "internalType": "bytes32",
          "name": "s",
          "type": "bytes32"
        }
      ],
      "name": "permit",
      "outputs": [],
      "stateMutability": "nonpayable",
      "type": "function"
    },
    {
      "inputs": [
        {
          "internalType": "address",
          "name": "to",
          "type": "address"
        },
        {
          "internalType": "uint256",
          "name": "amount",
          "type": "uint256"
        },
        {
          "internalType": "uint256",
          "name": "blockNum",
          "type": "uint256"
        },
        {
          "internalType": "bytes32",
          "name": "nullifier",
          "type": "bytes32"
        },
        {
          "internalType": "bytes",
          "name": "snarkProof",
          "type": "bytes"
        }
      ],
      "name": "reMint",
      "outputs": [],
      "stateMutability": "nonpayable",
      "type": "function"
    },
    {
      "inputs": [
        {
          "internalType": "address",
          "name": "to",
          "type": "address"
        },
        {
          "internalType": "uint256",
          "name": "amount",
          "type": "uint256"
        },
        {
          "internalType": "uint256",
          "name": "blockNum",
          "type": "uint256"
        },
        {
          "internalType": "bytes32",
          "name": "nullifier",
          "type": "bytes32"
        },
        {
          "internalType": "bytes",
          "name": "snarkProof",
          "type": "bytes"
        }
      ],
      "name": "reMintFullVerifier",
      "outputs": [],
      "stateMutability": "nonpayable",
      "type": "function"
    },
    {
      "inputs": [],
      "name": "renounceOwnership",
      "outputs": [],
      "stateMutability": "nonpayable",
      "type": "function"
    },
    {
      "inputs": [
        {
          "internalType": "bytes32",
          "name": "blockHash",
          "type": "bytes32"
        },
        {
          "internalType": "uint256",
          "name": "blockNum",
          "type": "uint256"
        }
      ],
      "name": "setBlockHash",
      "outputs": [],
      "stateMutability": "nonpayable",
      "type": "function"
    },
    {
      "inputs": [
        {
          "internalType": "address",
          "name": "_fullVerifier",
          "type": "address"
        },
        {
          "internalType": "address",
          "name": "_smolVerifier",
          "type": "address"
        }
      ],
      "name": "setVerifiers",
      "outputs": [],
      "stateMutability": "nonpayable",
      "type": "function"
    },
    {
      "inputs": [],
      "name": "smolVerifier",
      "outputs": [
        {
          "internalType": "address",
          "name": "",
          "type": "address"
        }
      ],
      "stateMutability": "view",
      "type": "function"
    },
    {
      "inputs": [],
      "name": "symbol",
      "outputs": [
        {
          "internalType": "string",
          "name": "",
          "type": "string"
        }
      ],
      "stateMutability": "view",
      "type": "function"
    },
    {
      "inputs": [],
      "name": "totalSupply",
      "outputs": [
        {
          "internalType": "uint256",
          "name": "",
          "type": "uint256"
        }
      ],
      "stateMutability": "view",
      "type": "function"
    },
    {
      "inputs": [
        {
          "internalType": "address",
          "name": "to",
          "type": "address"
        },
        {
          "internalType": "uint256",
          "name": "value",
          "type": "uint256"
        }
      ],
      "name": "transfer",
      "outputs": [
        {
          "internalType": "bool",
          "name": "",
          "type": "bool"
        }
      ],
      "stateMutability": "nonpayable",
      "type": "function"
    },
    {
      "inputs": [
        {
          "internalType": "address",
          "name": "from",
          "type": "address"
        },
        {
          "internalType": "address",
          "name": "to",
          "type": "address"
        },
        {
          "internalType": "uint256",
          "name": "value",
          "type": "uint256"
        }
      ],
      "name": "transferFrom",
      "outputs": [
        {
          "internalType": "bool",
          "name": "",
          "type": "bool"
        }
      ],
      "stateMutability": "nonpayable",
      "type": "function"
    },
    {
      "inputs": [
        {
          "internalType": "address",
          "name": "newOwner",
          "type": "address"
        }
      ],
      "name": "transferOwnership",
      "outputs": [],
      "stateMutability": "nonpayable",
      "type": "function"
    }
  ],
  "bytecode": "0x61016060405234801562000011575f80fd5b50604051806040016040528060058152602001643a37b5b2b760d91b81525080604051806040016040528060018152602001603160f81b81525033604051806040016040528060058152602001643a37b5b2b760d91b815250604051806040016040528060038152602001623a35b760e91b815250816003908162000097919062000308565b506004620000a6828262000308565b5050506001600160a01b038116620000d857604051631e4fbdf760e01b81525f60048201526024015b60405180910390fd5b620000e3816200019f565b50620000f1826006620001f0565b6101205262000102816007620001f0565b61014052815160208084019190912060e052815190820120610100524660a0526200018f60e05161010051604080517f8b73c3c69bb8fe3d512ecc4cf759cc79239f7b179b0ffacaa9a75d522b39400f60208201529081019290925260608201524660808201523060a08201525f9060c00160405160208183030381529060405280519060200120905090565b60805250503060c0525062000446565b600580546001600160a01b038381166001600160a01b0319831681179093556040519116919082907f8be0079c531659141344cd1fd0a4f28419497f9722a3daafe3b4186f6b6457e0905f90a35050565b5f6020835110156200020f57620002078362000228565b905062000222565b816200021c848262000308565b5060ff90505b92915050565b5f80829050601f8151111562000255578260405163305a27a960e01b8152600401620000cf9190620003d4565b8051620002628262000422565b179392505050565b634e487b7160e01b5f52604160045260245ffd5b600181811c908216806200029357607f821691505b602082108103620002b257634e487b7160e01b5f52602260045260245ffd5b50919050565b601f8211156200030357805f5260205f20601f840160051c81016020851015620002df5750805b601f840160051c820191505b8181101562000300575f8155600101620002eb565b50505b505050565b81516001600160401b038111156200032457620003246200026a565b6200033c816200033584546200027e565b84620002b8565b602080601f83116001811462000372575f84156200035a5750858301515b5f19600386901b1c1916600185901b178555620003cc565b5f85815260208120601f198616915b82811015620003a25788860151825594840194600190910190840162000381565b5085821015620003c057878501515f19600388901b60f8161c191681555b505060018460011b0185555b505050505050565b5f602080835283518060208501525f5b818110156200040257858101830151858201604001528201620003e4565b505f604082860101526040601f19601f8301168501019250505092915050565b80516020808301519190811015620002b2575f1960209190910360031b1b16919050565b60805160a05160c05160e05161010051610120516101405161160e620004985f395f610ba201525f610b7501525f610a6c01525f610a4401525f61099f01525f6109c901525f6109f3015261160e5ff3fe608060405234801561000f575f80fd5b5060043610610148575f3560e01c806370a08231116100bf5780638f31746a116100795780638f31746a146102c457806395d89b41146102d7578063a9059cbb146102df578063d505accf146102f2578063dd62ed3e14610305578063f2fde38b1461033d575f80fd5b806370a0823114610242578063715018a61461026a5780637c154d40146102725780637ecebe001461028557806384b0196e146102985780638da5cb5b146102b3575f80fd5b8063313ce56711610110578063313ce567146101c75780633644e515146101d657806340c10f19146101de5780635225d4eb146101f157806352569f561461021c5780636688321b1461022f575f80fd5b806306fdde031461014c578063095ea7b31461016a57806318160ddd1461018d57806323b872dd1461019f5780632e2766dc146101b2575b5f80fd5b610154610350565b604051610161919061120d565b60405180910390f35b61017d610178366004611241565b6103e0565b6040519015158152602001610161565b6002545b604051908152602001610161565b61017d6101ad366004611269565b6103f9565b6101c56101c03660046112a2565b61041c565b005b60405160128152602001610161565b610191610447565b6101c56101ec366004611241565b610455565b600b54610204906001600160a01b031681565b6040516001600160a01b039091168152602001610161565b6101c561022a366004611339565b610463565b600a54610204906001600160a01b031681565b610191610250366004611359565b6001600160a01b03165f9081526020819052604090205490565b6101c561047b565b6101c5610280366004611372565b61048e565b610191610293366004611359565b61057b565b6102a0610598565b60405161016197969594939291906113a3565b6005546001600160a01b0316610204565b6101c56102d23660046112a2565b6105da565b6101546105fd565b61017d6102ed366004611241565b61060c565b6101c561030036600461143a565b610619565b610191610313366004611372565b6001600160a01b039182165f90815260016020908152604080832093909416825291909152205490565b6101c561034b366004611359565b61074f565b60606003805461035f906114a7565b80601f016020809104026020016040519081016040528092919081815260200182805461038b906114a7565b80156103d65780601f106103ad576101008083540402835291602001916103d6565b820191905f5260205f20905b8154815290600101906020018083116103b957829003601f168201915b5050505050905090565b5f336103ed81858561078c565b60019150505b92915050565b5f3361040685828561079e565b610411858585610819565b506001949350505050565b61043f868686868686600a5f9054906101000a90046001600160a01b0316610876565b505050505050565b5f610450610993565b905090565b61045f8282610abc565b5050565b61046b610af0565b5f908152600c6020526040902055565b610483610af0565b61048c5f610b1d565b565b610496610af0565b600a546001600160a01b0316156104f45760405162461bcd60e51b815260206004820152601d60248201527f766572696669657220697320616c7265616479207365742073696c6c7900000060448201526064015b60405180910390fd5b600b546001600160a01b03161561054d5760405162461bcd60e51b815260206004820152601d60248201527f766572696669657220697320616c7265616479207365742073696c6c7900000060448201526064016104eb565b600b80546001600160a01b039384166001600160a01b031991821617909155600a8054929093169116179055565b6001600160a01b0381165f908152600860205260408120546103f3565b5f6060805f805f60606105a9610b6e565b6105b1610b9b565b604080515f80825260208201909252600f60f81b9b939a50919850469750309650945092509050565b61043f868686868686600b5f9054906101000a90046001600160a01b0316610876565b60606004805461035f906114a7565b5f336103ed818585610819565b8342111561063d5760405163313c898160e11b8152600481018590526024016104eb565b5f7f6e71edae12b1b97f4d1f60370fef10105fa2faae0126114a169c64845d6126c98888886106888c6001600160a01b03165f90815260086020526040902080546001810190915590565b6040805160208101969096526001600160a01b0394851690860152929091166060840152608083015260a082015260c0810186905260e0016040516020818303038152906040528051906020012090505f6106e282610bc8565b90505f6106f182878787610bf4565b9050896001600160a01b0316816001600160a01b031614610738576040516325c0072360e11b81526001600160a01b0380831660048301528b1660248201526044016104eb565b6107438a8a8a61078c565b50505050505050505050565b610757610af0565b6001600160a01b03811661078057604051631e4fbdf760e01b81525f60048201526024016104eb565b61078981610b1d565b50565b6107998383836001610c20565b505050565b6001600160a01b038381165f908152600160209081526040808320938616835292905220545f198114610813578181101561080557604051637dc7a0d960e11b81526001600160a01b038416600482015260248101829052604481018390526064016104eb565b61081384848484035f610c20565b50505050565b6001600160a01b03831661084257604051634b637e8f60e11b81525f60048201526024016104eb565b6001600160a01b03821661086b5760405163ec442f0560e01b81525f60048201526024016104eb565b610799838383610cf2565b5f8481526009602052604090205460ff16156108d45760405162461bcd60e51b815260206004820152601960248201527f6275726e206164647265737320616c726561647920757365640000000000000060448201526064016104eb565b5f858152600c6020526040812054906108ef89898489610e18565b604051633a94343960e21b81529091506001600160a01b0384169063ea50d0e490610922908890889086906004016114df565b602060405180830381865afa15801561093d573d5f803e3d5ffd5b505050506040513d601f19601f820116820180604052508101906109619190611557565b61097e5760405163439cc0cd60e01b815260040160405180910390fd5b6109888989610abc565b505050505050505050565b5f306001600160a01b037f0000000000000000000000000000000000000000000000000000000000000000161480156109eb57507f000000000000000000000000000000000000000000000000000000000000000046145b15610a1557507f000000000000000000000000000000000000000000000000000000000000000090565b610450604080517f8b73c3c69bb8fe3d512ecc4cf759cc79239f7b179b0ffacaa9a75d522b39400f60208201527f0000000000000000000000000000000000000000000000000000000000000000918101919091527f000000000000000000000000000000000000000000000000000000000000000060608201524660808201523060a08201525f9060c00160405160208183030381529060405280519060200120905090565b6001600160a01b038216610ae55760405163ec442f0560e01b81525f60048201526024016104eb565b61045f5f8383610cf2565b6005546001600160a01b0316331461048c5760405163118cdaa760e01b81523360048201526024016104eb565b600580546001600160a01b038381166001600160a01b0319831681179093556040519116919082907f8be0079c531659141344cd1fd0a4f28419497f9722a3daafe3b4186f6b6457e0905f90a35050565b60606104507f00000000000000000000000000000000000000000000000000000000000000006006610f3d565b60606104507f00000000000000000000000000000000000000000000000000000000000000006007610f3d565b5f6103f3610bd4610993565b8360405161190160f01b8152600281019290925260228201526042902090565b5f805f80610c0488888888610fe6565b925092509250610c1482826110ae565b50909695505050505050565b6001600160a01b038416610c495760405163e602df0560e01b81525f60048201526024016104eb565b6001600160a01b038316610c7257604051634a1406b160e11b81525f60048201526024016104eb565b6001600160a01b038085165f908152600160209081526040808320938716835292905220829055801561081357826001600160a01b0316846001600160a01b03167f8c5be1e5ebec7d5bd14f71427d1e84f3dd0314c0f7b2291e5b200ac8c7c3b92584604051610ce491815260200190565b60405180910390a350505050565b6001600160a01b038316610d1c578060025f828254610d11919061158a565b90915550610d8c9050565b6001600160a01b0383165f9081526020819052604090205481811015610d6e5760405163391434e360e21b81526001600160a01b038516600482015260248101829052604481018390526064016104eb565b6001600160a01b0384165f9081526020819052604090209082900390555b6001600160a01b038216610da857600280548290039055610dc6565b6001600160a01b0382165f9081526020819052604090208054820190555b816001600160a01b0316836001600160a01b03167fddf252ad1be2c89b69c2b068fc378daa952ba7f163c4a11628f55a4df523b3ef83604051610e0b91815260200190565b60405180910390a3505050565b604080516042808252610860820190925260609185916001600160a01b038816915f9190602082016108408036833701905050905081815f81518110610e6057610e6061159d565b602090810291909101015260015b6021811015610ebe5783610e836001836115b1565b60208110610e9357610e9361159d565b835191901a90839083908110610eab57610eab61159d565b6020908102919091010152600101610e6e565b5060215b6041811015610f125786610ed76021836115b1565b60208110610ee757610ee761159d565b835191901a90839083908110610eff57610eff61159d565b6020908102919091010152600101610ec2565b508481604181518110610f2757610f2761159d565b6020908102919091010152979650505050505050565b606060ff8314610f5757610f5083611166565b90506103f3565b818054610f63906114a7565b80601f0160208091040260200160405190810160405280929190818152602001828054610f8f906114a7565b8015610fda5780601f10610fb157610100808354040283529160200191610fda565b820191905f5260205f20905b815481529060010190602001808311610fbd57829003601f168201915b505050505090506103f3565b5f80807f7fffffffffffffffffffffffffffffff5d576e7357a4501ddfe92f46681b20a084111561101f57505f915060039050826110a4565b604080515f808252602082018084528a905260ff891692820192909252606081018790526080810186905260019060a0016020604051602081039080840390855afa158015611070573d5f803e3d5ffd5b5050604051601f1901519150506001600160a01b03811661109b57505f9250600191508290506110a4565b92505f91508190505b9450945094915050565b5f8260038111156110c1576110c16115c4565b036110ca575050565b60018260038111156110de576110de6115c4565b036110fc5760405163f645eedf60e01b815260040160405180910390fd5b6002826003811115611110576111106115c4565b036111315760405163fce698f760e01b8152600481018290526024016104eb565b6003826003811115611145576111456115c4565b0361045f576040516335e2f38360e21b8152600481018290526024016104eb565b60605f611172836111a3565b6040805160208082528183019092529192505f91906020820181803683375050509182525060208101929092525090565b5f60ff8216601f8111156103f357604051632cd44ac360e21b815260040160405180910390fd5b5f81518084525f5b818110156111ee576020818501810151868301820152016111d2565b505f602082860101526020601f19601f83011685010191505092915050565b602081525f61121f60208301846111ca565b9392505050565b80356001600160a01b038116811461123c575f80fd5b919050565b5f8060408385031215611252575f80fd5b61125b83611226565b946020939093013593505050565b5f805f6060848603121561127b575f80fd5b61128484611226565b925061129260208501611226565b9150604084013590509250925092565b5f805f805f8060a087890312156112b7575f80fd5b6112c087611226565b9550602087013594506040870135935060608701359250608087013567ffffffffffffffff808211156112f1575f80fd5b818901915089601f830112611304575f80fd5b813581811115611312575f80fd5b8a6020828501011115611323575f80fd5b6020830194508093505050509295509295509295565b5f806040838503121561134a575f80fd5b50508035926020909101359150565b5f60208284031215611369575f80fd5b61121f82611226565b5f8060408385031215611383575f80fd5b61138c83611226565b915061139a60208401611226565b90509250929050565b60ff60f81b881681525f602060e060208401526113c360e084018a6111ca565b83810360408501526113d5818a6111ca565b606085018990526001600160a01b038816608086015260a0850187905284810360c0860152855180825260208088019350909101905f5b818110156114285783518352928401929184019160010161140c565b50909c9b505050505050505050505050565b5f805f805f805f60e0888a031215611450575f80fd5b61145988611226565b965061146760208901611226565b95506040880135945060608801359350608088013560ff8116811461148a575f80fd5b9699959850939692959460a0840135945060c09093013592915050565b600181811c908216806114bb57607f821691505b6020821081036114d957634e487b7160e01b5f52602260045260245ffd5b50919050565b60408152826040820152828460608301375f606084830101525f601f19601f850116820160608101602060608584030160208601528186518084526080850191506020880194505f93505b8084101561154a578451825293820193600193909301929082019061152a565b5098975050505050505050565b5f60208284031215611567575f80fd5b8151801515811461121f575f80fd5b634e487b7160e01b5f52601160045260245ffd5b808201808211156103f3576103f3611576565b634e487b7160e01b5f52603260045260245ffd5b818103818111156103f3576103f3611576565b634e487b7160e01b5f52602160045260245ffdfea2646970667358221220941948bacc3f4524f98c7add186727fa60d748d6afe880705dee2cb8050cceb064736f6c63430008170033",
  "linkReferences": {},
  "deployedLinkReferences": {}
}