{
  "_format": "hh-sol-artifact-1",
  "contractName": "FullVerifier",
  "sourceName": "contracts/FullVerifier.sol",
  "abi": [
    {
      "inputs": [],
      "name": "INVALID_VERIFICATION_KEY",
      "type": "error"
    },
    {
      "inputs": [],
      "name": "MOD_EXP_FAILURE",
      "type": "error"
    },
    {
      "inputs": [],
      "name": "OPENING_COMMITMENT_FAILED",
      "type": "error"
    },
    {
      "inputs": [],
      "name": "PAIRING_FAILED",
      "type": "error"
    },
    {
      "inputs": [],
      "name": "PAIRING_PREAMBLE_FAILED",
      "type": "error"
    },
    {
      "inputs": [],
      "name": "POINT_NOT_ON_CURVE",
      "type": "error"
    },
    {
      "inputs": [
        {
          "internalType": "uint256",
          "name": "expected",
          "type": "uint256"
        },
        {
          "internalType": "uint256",
          "name": "actual",
          "type": "uint256"
        }
      ],
      "name": "PUBLIC_INPUT_COUNT_INVALID",
      "type": "error"
    },
    {
      "inputs": [],
      "name": "PUBLIC_INPUT_GE_P",
      "type": "error"
    },
    {
      "inputs": [],
      "name": "PUBLIC_INPUT_INVALID_BN128_G1_POINT",
      "type": "error"
    },
    {
      "inputs": [],
      "name": "getVerificationKeyHash",
      "outputs": [
        {
          "internalType": "bytes32",
          "name": "",
          "type": "bytes32"
        }
      ],
      "stateMutability": "pure",
      "type": "function"
    },
    {
      "inputs": [
        {
          "internalType": "bytes",
          "name": "_proof",
          "type": "bytes"
        },
        {
          "internalType": "bytes32[]",
          "name": "_publicInputs",
          "type": "bytes32[]"
        }
      ],
      "name": "verify",
      "outputs": [
        {
          "internalType": "bool",
          "name": "",
          "type": "bool"
        }
      ],
      "stateMutability": "view",
      "type": "function"
    }
  ],
  "bytecode": "0x608060405234801561000f575f80fd5b50620800006103805260426103a0527f2260e724844bca5251829353968e4915305258418357473a5c1d597f613f6cbd6103c0527f3064486657634403844b0eac78ca882cfd284341fcb0615a15cfcd17b14d82016103e0527f02e7806c3a59e8e6bb4bc5ea3b0dfb8c40d82af0b3d53f58bd63ff463aa569a3610400527f2f3e695dc07cc037abab73da5f9f8a0817b13f3fae1cae800138266c13ca8914610420527f1e97704cfce1672d9035ab709cc384f0b7e0c597b39185f9dda3db0e38b836a8610440527f023ca5c663622668ca664c5f7d422d02cf6e1b5ae1cfb3818e2b49d30d1c02c9610460527f09c42cc603a48a80eebfcd23028ad38d498925cc83b1403ab76f4414b683aa81610480527f1384be7c605c64ee5d23ed2f88f6fc133b1d2e7772594e6253a22c2e08377b0f6104a0527f1cd6febf97e3ea5b964d898feb7cf6d7ad7bf1df16a34e41e2471d6447aff2ee6104c0527f0666a758223f75b9037b8d92025e2c9abfff09843575ea276d520af5a41868a76104e0527f22eb6e0d665de12253ffc92f29933cf0abc7ce5a2eea26b535e10c23551e8ff8610500527f096fb90463367fc02e8a7a07ea11d9836fd15b60b629a94bb86c6afc384b4fbc610520527e5b3e5fa403881f0bdcc35b868cb376aa812650e850f06697e68e46682361d1610540527f1179d3a64dedeaa183ce0eeb18f269b33bba252ceb30b957d12490ad90281d8d610560527f0f16bfb8f776b3539d989fcffed12e0158845a69e6ff735f17268d9699df4e86610580527f14e6b9fbdc7e53e2f496cb16515dea86cd7b8ea8870b1ace41db91adc7a7a9a76105a0527f09f88ff8aa10f76aaa125c75d48d63de41cc4fb19e7ba0ca999495d62505ba8c6105c0527f0271df51b26b9c0ed599cf14cac36f6d6d938d17e527bff8aabb91b6019787ae6105e0527f0fff43e7b4a233f7ac14010caea5ad2afe44adb402c993312e9aa403cdb50ec0610600527f02acf9df3e04fde80083f8c69ce33376973edf94a310c9cd7e82115e8adb7587610620527f15451e94fbd1bac286dc10642a94353e4cc2cbbbb33c848683412bc853caae97610640527f08dc9b90a681ad084edc9fcce6e04a2b05cf1d787fae8c5a2ea51ba8c5a931d1610660527f2cbbde6cda171e03adbfcb8c7cd5c69f9ffbf4309e1638d1fc1de80ace8c3c0a610680527f146bc613d83207c2b304cb914cf1ac12265f822c24758ca0416418c2a1cbc5796106a0527f07bde646e225248f0b47441b704c26473c9c50ac060fe95fbc5ad10e98cfa5966106c0527f24a6abe6738ce8e448d10e04650cef5b66ac7ac5a692ffc984f3bc66c742d0ce6106e0527f2d8a8edc3e26bbfa1d18ccb16f0794b1dbec88cf11345051da12185c0d2e75c7610700527f1ba6a66e68addd8f9ea82df16b4b6f1724e46d33f1b90270fc5d0e8693da9752610720527f0ac0ae49c7370a94f0c0095d6222533fbf9497bd52234db966a3982f09be4d88610740527f10f92cb8dbb7870cf0cd0f535bc29bf2cf840595d33303bdfee42cceb4ce9470610760527f0bba8bf831275ace72624994ea390fa56bd6439e2f1757f65ea9fad716fc4ac8610780527f0f54c2c403b9c436bf805c759c1df607a8f85f84d49e8bff6aaf7304ab581b466107a0527f2f9ba981a21d3e354a7aa109ac8ca0c82a7b557956b494b9781cb4d360e4aa716107c0527e8415452b9988177694db436e88b7e1c137c2d23426e26c1a91884377f0cd1e6107e0527f1b0f6ff6dc6a0a8067a16741f84015b18f391a4f56ee363ee2b86a3e401dac58610800527f1d745d191560df42b42f8d7630e6c581945ae5a07dcc070c97f723d5614ef9bd610820527f04c6782943ffd48db87538bfc31c2cf4337056d55945148c3f7583d7a70dbfc0610840527f304974d19172a7ea280e92b370c16e53a5de372feefb427d7e7ab5d59e1c18ac610860527f16efcc3963dcdafde68bd97e04a7d77840ff0ccc6f56db99d46b3c35913c89a2610880527f0b741706814bc9fbc76c38401e959474a20cb1d659731f75a9d5244e7698501e6108a0527f2bb58ac20d58a83ec49f1a9eb82889f496d827ddd2b699d110828a3ad85306316108c0527f0b534154433c26818224a61e8c4d90e9639c1ddde2a56453276f406f97ae8de86108e0527f1e8497ded3ce2452b48c5933c0fc5bbd77f7fbdd3e49885e4de80fe5872fcaa0610900527f094cd25f6a61a4383794ba27a145ade21e9b6f28f4382af47edbd5135abc104d610920527f0c25dab5d10d0153e88b501e1ec53689d57d215571988b379af3a3a3ebe554ec610940527f23a207ad8de176f4fc1754b5ff707c3c6672a799cc450a719ffc0ec84877a173610960527f087e712f8b5d0bca1a5e75003d1b9ce7f907b87824dba5660cbba4179e4f2ef4610980527f26153e48051aab18d54e563f82da32fabdd597ab141bc4e6a785394e23a75c7a6109a0525f6109c08190526109e0527f260e01b251f6f1c7e7ff4e580791dee8ea51d87a358e038b4efe30fac09383c1610a00527f0118c4d5b837bcc2bc89b5b398b5974e9f5944073b32078b7e231fec938883b0610a20527f04fc6369f7110fe3d25156c1bb9a72859cf2a04641f99ba4ee413c80da6a5fe4610a40527f22febda3c0c0632a56475b4214e5615e11e6dd3f96e6cea2854a87d4dacc5e55610a60527f06e402c0a314fb67a15cf806664ae1b722dbc0efe66e6c81d98f9924ca535321613300527f30644e72e131a029b85045b68181585d97816a916871ca8d3c208c16d87cfd47600161040051610420518382830984600386838609088583840914841693505050506104405161046051838283098460038683860908858384091484169350505050610480516104a0518382830984600386838609088583840914841693505050506104c0516104e05183828309846003868386090885838409148416935050815f5280602052505061050051610520518382830984600386838609088583840914841693505050506105405161056051838283098460038683860908858384091484169350505050610580516105a0518382830984600386838609088583840914841693505050506105c0516105e05183828309846003868386090885838409148416935050505061060051610620518382830984600386838609088583840914841693505050506106405161066051838283098460038683860908858384091484169350505050610680516106a0518382830984600386838609088583840914841693505050506106c0516106e05183828309846003868386090885838409148416935050505061070051610720518382830984600386838609088583840914841693505050506107405161076051838283098460038683860908858384091484169350505050610780516107a0518382830984600386838609088583840914841693505050506107c0516107e05183828309846003868386090885838409148416935050505061080051610820518382830984600386838609088583840914841693505050506108405161086051838283098460038683860908858384091484169350505050610880516108a0518382830984600386838609088583840914841693505050506108c0516108e05183828309846003868386090885838409148416935050505061090051610920518382830984600386838609088583840914841693505050506109405161096051838283098460038683860908858384091484169350505050610980516109a05183828309846003868386090885838409148416935050505080610aee57637e5769bf60e01b5f5260045ffd5b5050612b1d80610afd5f395ff3fe608060405234801561000f575f80fd5b5060043610610034575f3560e01c8063937f6a1014610038578063ea50d0e41461006b575b5f80fd5b6040517f418318794556c6e77153a060f07ee1a1ec460c2b18ebdbe4a5f6b397837c49f981526020015b60405180910390f35b61007e610079366004612a2d565b61008e565b6040519015158152602001610062565b620800006103805260426103a0527f2260e724844bca5251829353968e4915305258418357473a5c1d597f613f6cbd6103c0527f3064486657634403844b0eac78ca882cfd284341fcb0615a15cfcd17b14d82016103e0527f02e7806c3a59e8e6bb4bc5ea3b0dfb8c40d82af0b3d53f58bd63ff463aa569a3610400527f2f3e695dc07cc037abab73da5f9f8a0817b13f3fae1cae800138266c13ca8914610420527f1e97704cfce1672d9035ab709cc384f0b7e0c597b39185f9dda3db0e38b836a8610440527f023ca5c663622668ca664c5f7d422d02cf6e1b5ae1cfb3818e2b49d30d1c02c9610460527f09c42cc603a48a80eebfcd23028ad38d498925cc83b1403ab76f4414b683aa81610480527f1384be7c605c64ee5d23ed2f88f6fc133b1d2e7772594e6253a22c2e08377b0f6104a0527f1cd6febf97e3ea5b964d898feb7cf6d7ad7bf1df16a34e41e2471d6447aff2ee6104c0527f0666a758223f75b9037b8d92025e2c9abfff09843575ea276d520af5a41868a76104e0527f22eb6e0d665de12253ffc92f29933cf0abc7ce5a2eea26b535e10c23551e8ff8610500527f096fb90463367fc02e8a7a07ea11d9836fd15b60b629a94bb86c6afc384b4fbc610520527e5b3e5fa403881f0bdcc35b868cb376aa812650e850f06697e68e46682361d1610540527f1179d3a64dedeaa183ce0eeb18f269b33bba252ceb30b957d12490ad90281d8d610560527f0f16bfb8f776b3539d989fcffed12e0158845a69e6ff735f17268d9699df4e86610580527f14e6b9fbdc7e53e2f496cb16515dea86cd7b8ea8870b1ace41db91adc7a7a9a76105a0527f09f88ff8aa10f76aaa125c75d48d63de41cc4fb19e7ba0ca999495d62505ba8c6105c0527f0271df51b26b9c0ed599cf14cac36f6d6d938d17e527bff8aabb91b6019787ae6105e0527f0fff43e7b4a233f7ac14010caea5ad2afe44adb402c993312e9aa403cdb50ec0610600527f02acf9df3e04fde80083f8c69ce33376973edf94a310c9cd7e82115e8adb7587610620527f15451e94fbd1bac286dc10642a94353e4cc2cbbbb33c848683412bc853caae97610640527f08dc9b90a681ad084edc9fcce6e04a2b05cf1d787fae8c5a2ea51ba8c5a931d1610660527f2cbbde6cda171e03adbfcb8c7cd5c69f9ffbf4309e1638d1fc1de80ace8c3c0a610680527f146bc613d83207c2b304cb914cf1ac12265f822c24758ca0416418c2a1cbc5796106a0527f07bde646e225248f0b47441b704c26473c9c50ac060fe95fbc5ad10e98cfa5966106c0527f24a6abe6738ce8e448d10e04650cef5b66ac7ac5a692ffc984f3bc66c742d0ce6106e0527f2d8a8edc3e26bbfa1d18ccb16f0794b1dbec88cf11345051da12185c0d2e75c7610700527f1ba6a66e68addd8f9ea82df16b4b6f1724e46d33f1b90270fc5d0e8693da9752610720527f0ac0ae49c7370a94f0c0095d6222533fbf9497bd52234db966a3982f09be4d88610740527f10f92cb8dbb7870cf0cd0f535bc29bf2cf840595d33303bdfee42cceb4ce9470610760527f0bba8bf831275ace72624994ea390fa56bd6439e2f1757f65ea9fad716fc4ac8610780527f0f54c2c403b9c436bf805c759c1df607a8f85f84d49e8bff6aaf7304ab581b466107a0527f2f9ba981a21d3e354a7aa109ac8ca0c82a7b557956b494b9781cb4d360e4aa716107c0527e8415452b9988177694db436e88b7e1c137c2d23426e26c1a91884377f0cd1e6107e0527f1b0f6ff6dc6a0a8067a16741f84015b18f391a4f56ee363ee2b86a3e401dac58610800527f1d745d191560df42b42f8d7630e6c581945ae5a07dcc070c97f723d5614ef9bd610820527f04c6782943ffd48db87538bfc31c2cf4337056d55945148c3f7583d7a70dbfc0610840527f304974d19172a7ea280e92b370c16e53a5de372feefb427d7e7ab5d59e1c18ac610860527f16efcc3963dcdafde68bd97e04a7d77840ff0ccc6f56db99d46b3c35913c89a2610880527f0b741706814bc9fbc76c38401e959474a20cb1d659731f75a9d5244e7698501e6108a0527f2bb58ac20d58a83ec49f1a9eb82889f496d827ddd2b699d110828a3ad85306316108c0527f0b534154433c26818224a61e8c4d90e9639c1ddde2a56453276f406f97ae8de86108e0527f1e8497ded3ce2452b48c5933c0fc5bbd77f7fbdd3e49885e4de80fe5872fcaa0610900527f094cd25f6a61a4383794ba27a145ade21e9b6f28f4382af47edbd5135abc104d610920527f0c25dab5d10d0153e88b501e1ec53689d57d215571988b379af3a3a3ebe554ec610940527f23a207ad8de176f4fc1754b5ff707c3c6672a799cc450a719ffc0ec84877a173610960527f087e712f8b5d0bca1a5e75003d1b9ce7f907b87824dba5660cbba4179e4f2ef4610980527f26153e48051aab18d54e563f82da32fabdd597ab141bc4e6a785394e23a75c7a6109a0525f6109c08190526109e08190527f260e01b251f6f1c7e7ff4e580791dee8ea51d87a358e038b4efe30fac09383c1610a00527f0118c4d5b837bcc2bc89b5b398b5974e9f5944073b32078b7e231fec938883b0610a20527f04fc6369f7110fe3d25156c1bb9a72859cf2a04641f99ba4ee413c80da6a5fe4610a40527f22febda3c0c0632a56475b4214e5615e11e6dd3f96e6cea2854a87d4dacc5e55610a60527f06e402c0a314fb67a15cf806664ae1b722dbc0efe66e6c81d98f9924ca535321613300526103a05182811461088257604051637667dc9b60e01b8152600481018290526024810184905260440160405180910390fd5b7f30644e72e131a029b85045b68181585d97816a916871ca8d3c208c16d87cfd477f30644e72e131a029b85045b68181585d2833e84879b9709143e1f593f00000016024600435018281350661122052826020820135066112005282604082013506611260528260608201350661124052826080820135066112a0528260a082013506611280528260c0820135066112e0528260e0820135066112c05282610100820135066113205282610120820135066113005282610140820135066113605282610160820135066113405282610180820135066113a052826101a08201350661138052826101c0820135066113e052826101e0820135066113c05282610200820135066114205282610220820135066114005282610240820135066114605282610260820135066114405282610280820135066114a052826102a08201350661148052816102c08201350661160052816102e0820135066116205281610300820135066116405281610320820135066116605281610340820135066116805281610360820135066116a05281610380820135066116c052816103a0820135066116e052816103c08201350661170052816103e0820135066117205281610400820135066117405281610420820135066117605281610440820135066117805281610460820135066117a05281610480820135066117c052816104a0820135066117e052816104c08201350661180052816104e0820135066119605281610500820135066119805281610520820135066119a05281610540820135066119c052816105608201350661184052816105808201350661186052816105a08201350661188052816105c0820135066118a052816105e0820135066118c05281610600820135066118e05281610620820135066119005281610640820135066119205281610660820135066119405281610680820135066119e052816106a08201350661200052816106c08201350661202052816106e0820135066120405281610700820135066120605281610720820135066120805281610740820135066120a05281610760820135066120c05281610780820135066120e052816107a08201350661210052816107c08201350661212052826107e08201350661232052826108008201350661230052826108208201350661236052826108408201350661234052506109c05115610ce2576024803501806109e05160051b0190508035602082013560441b81019050604082013560881b81019050606082013560cc1b81019050608082013560a083013560441b8101905060c083013560881b8101905060e083013560cc1b8101905061010083013561012084013560441b8101905061014084013560881b8101905061016084013560cc1b810190506101808401356101a085013560441b810190506101c085013560881b810190506101e085013560cc1b810190508361340052826134205281613440528061346052868110878410168783108886101616610cdc576375d4fa5360e11b5f5260045ffd5b50505050505b6103805160e01b5f526103a05160e01b60045260085f208061348052602480350160206103a05102808260206134800137600435602401915060c0826134a083013760e0016134802083810661266081905290925090508281800961268052828161268051096126a05250805f526112e0516020526112c051604052611320516060526113005160805260a05f20905081810661260052805f5260016020535060215f90812082810661262052815261136051602052611340516040526113a0516060526113805160805260a09020818106612640819052828180096133205282816133205109613340528281613340510961336052806133805250805f526113e0516020526113c05160405261142051606052611400516080526114605160a0526114405160c0526114a05160e05261148051610100526101205f2090508181066126c052806126e0525061260051612620516103c051600180856001602480350160206103a0510281018360058a0984600c8b0999505b81831015610e9a57823585811085169450858a82089050858183018909975085818c01880996505084888209905084888b099950602083019250610e5b565b50505080610eb15763374a972f60e01b5f5260045ffd5b50508161300052806130205250505050508081600161260051086126205109806103805160015b81811015610eed578483840992508001610ed8565b5050613100528181800990508181820961312052506126c05161038051819060015b81811015610f24578483840992508001610f0f565b50508061304052826001840382089050613300518084036103e051858286088684840992508687848808820990508684840992508687848808820990508687888686098808820990506103c051925086828609915086600188038708878485099450876001890389898b888d8b8c0909090896506130205194508493508782860994508488878709955085898388099650868a61312051890997508760205f526020805260206040528b8b8a0960605260028c036080528b60a05260205f60c05f60055afa610ffc57633e2529ef60e21b5f5260045ffd5b5f5198508b818a0990508b8b8a0998508b828a0991508b613120518a0998508b838a0992508b858a0998508b848a0993508b8a8a0998508b888a0997508b868a0998508b613020518d8b8c090998508b896130005109613060528b888b09613080528b848709613680528b8388096130a0528b826131005109613140528b8188096130c052505050505050505050505061264051506126005161262051828361190051840982611620510101846118e051850983611600510101098384611940518509836116605101018561192051860984611640510101098485868385096116a051096133805109858661198051870985611620510101876119605188098661160051010109925085866119c051870985611660510101876119a0518809866116405101010991508586878885870961208051096133805109870382089050856126405161338051096133805285868788613060518a0361208051086130c0510961338051098208905085612640516133805109613380528586878860018a036116a051086130a05109613380510982086135005250505050508061264051613380510961338052806117205161266051098182836120205161178051096116405108820890508161266051820990508182836120005161176051096116205108820890508161266051820990508182836119e0516117005109611600510882089050816118405183846126605161186051098586612680516118805109876126a0516118a05109080808826120c0518485612660516120e051098687612680516121005109886126a051612120510908080883846001612600510861262051098461262051866118c051870908935084818687612600518609860808925084838509935084856001612600510885099350846130a05161264051099250848385089350846116c0518509935084838603850893508481868761260051612060510961168051080892505050826130c05161332051098381850383089150836120a05183099150838461314051830983089150508261338051848386038508096135205250508061334051613380510961338052806116e0516116005109816117005161162051098261172051611640510983611740516116605109847f183227397098d014dc2822db40c0ac2e9419f4243cdcb848a1f0fac9f80000008687600389036117a0510888611760518a6116205161160051090909098586878889858a08880886088408611780510894505050505081828384856116605161160051086119e051870308611760510884600286036117a05108096126405109828384858685612040510887600189036117a051080985086117a05109613380510961354052505080613320516133805109613380526002810360038203826116005184036116205108836116205185036116405108846116405186036116605108856116605187036119e05108866133805188898888088a8b8b8a088c8a8e038e8c8d09080909099350868788612640516133805109898a8988088b8c8c8a088d8a8f038f8c8d090809090985089350868788613320516133805109898a8987088b8c8c89088d898f038f8b8c090809090985089350868788613340516133805109898a8986088b8c8c88088d888f038f8a8b090809090985089350505050836117c051820961356052505061336051613380518392500961338052806116205182036119e051088161204051612040510982611640516116405109836116e05185612040516116405109098485868384088785870888030886878788098889611620516119e0510861200051080908925050508261338051848561176051870360010884090990508261202051611640510883611640518503856116e05161204051090884858287611620518903612000510809868685090893505050828361264051613380510984856117605187036001088509099150826117e0518484840809613580525050806116205161162051098161164051611640510982611620518460118408098360048309915083600982099050836003840992508381850385848788611620516116205108612000510809089150508283846120205161164051088561164051611640510809840384856120005187036116205108850908915082613380518209905082836126405161338051098309915082611760518209905082611760518309915082836117e0518585850809613580510861358052505080613360516133805109613380528081611620516119e05109826120005161160051090881612020518303838461164051611620510985611660516116005109080882600160441b82099050826120405184038208905082828208905082611740518209905082600160441b830991508283612000516119e05109830891508261172051848561166051611640510886038508098361176051858661204051612020510887038761166051880808099250836117005185858786860808096135c0525050612000518291506140009009816119e0518208905081614000820990508161164051820890508161400082099050816116205182089050816140008209905081611600518208905081611660518303820890508161174051820990508161400061202051098261200051820890508261400082099050826119e05182089050826140008209905082611660518208905082614000820990508261164051820890508261204051840382089050826117605182099050826117205184838508096135e0525050806126605161164051098161162051820890508161266051820990508161160051820890508161266051820990508161178051820890508082611660518403830891508161364052826116005184036119e05108836116605185036120405108848560018703840883098586848803600108830991508585876126405189858b61264051890908090861362052856126605161202051099450856120005186089450856126605186099450856119e0518608945085612660518609945085858703612040510894508561164051870361202051089150858687878903600108840987858903600108099150858487036116605108868760018903830882099050868760018903880887099550866126405184099250868284089250866126405184099250868684089250866126405184099250868184089250508161360052505083611620518503612000510892508361164051850385868488036001088609089250836117005161362051099150838461174051850983089150838461176051613640510983089150836116e0518309915083846117a051613600510983089150836135c05183089250836135e05184089250836118005184099250836133805184099250826135a05283613340516133805109613380525050508061368051826135a0518461358051866135605188613540518a61352051613500510808080808096136608190526126e0516136a08190526136c0919091526102e460043501610520816136e03750506105606136a020818106612700525f81905260016020538160215f20066127205260026020538160215f20066127405260036020538160215f20066127605260046020538160215f20066127805260056020538160215f20066127a05260066020538160215f20066127c05260076020538160215f20066127e05260086020538160215f20066128005260096020538160215f200661282052600a6020538160215f200661284052600b6020538160215f200661286052600c6020538160215f200661288052600d6020538160215f20066128a052600e6020538160215f20066128c052600f6020538160215f20066128e05260106020538160215f20066129005260116020538160215f20066129205260126020538160215f20066129405260136020538160215f20066129605260146020538160215f20066129805260156020538160215f20066129a05260166020538160215f20066129c05260176020538160215f20066129e05260186020538160215f2006612a005260196020538160215f2006612a2052601a6020538160215f2006612a4052601b6020538160215f2006612a6052601c6020538160215f2006612a8052601d6020538160215f2006612aa052601d6020535060215f908120828106612ac05281526123205160205261230051604052612360516060526123405160805260a08120829006612b00526113c0516113e0518482800985600387838609088683840914611c41576328f6b59560e21b5f5260045ffd5b50613160919091526131805261140051611420518482800985600387838609088683840914611c79576328f6b59560e21b5f5260045ffd5b50815f528060205250506130405160405260406131a060605f60075afa90506040613160608061316060065afa8116905061144051611460518482830985600387838609088683840914611cd6576328f6b59560e21b5f5260045ffd5b505f91909152602052613040518290800960405260406131a060605f60075afa16604061316060808160065afa81169050611480516114a0518482830985600387838609088683840914611d33576328f6b59560e21b5f5260045ffd5b505f91909152602052613040518290818180090960405260406131a060605f60075afa16604061316060808160065afa8116905061120051611220518482830985600387838609088683840914611d93576328f6b59560e21b5f5260045ffd5b50815f528060205250508161270051836001612b0051080960405260406131a060605f60075afa16604061316060808160065afa8116905061124051611260518482830985600387838609088683840914611df7576328f6b59560e21b5f5260045ffd5b50815f528060205250508161272051836001612b0051080960405260406131a060605f60075afa16604061316060808160065afa81169050611280516112a0518482830985600387838609088683840914611e5b576328f6b59560e21b5f5260045ffd5b50815f528060205250508161274051836001612b0051080960405260406131a060605f60075afa16604061316060808160065afa811690506112c0516112e0518482830985600387838609088683840914611ebf576328f6b59560e21b5f5260045ffd5b50815f528060205250508161276051836001612b0051080960405260406131a060605f60075afa16604061316060808160065afa8116905061130051611320518482830985600387838609088683840914611f23576328f6b59560e21b5f5260045ffd5b50815f528060205250508161278051836001612b0051080960405260406131a060605f60075afa16604061316060808160065afa8116905061134051611360518482830985600387838609088683840914611f87576328f6b59560e21b5f5260045ffd5b50815f52806020525050816127a051836001612b0051080960405260406131a060605f60075afa16604061316060808160065afa81169050611380516113a0518482830985600387838609088683840914611feb576328f6b59560e21b5f5260045ffd5b50815f52806020525050816127c051836001612b0051080960405260406131a060605f60075afa16604061316060808160065afa81169050610400515f52610420516020526127e05160405260406131a060605f60075afa16604061316060808160065afa81169050610440515f52610460516020526128005160405260406131a060605f60075afa16604061316060808160065afa81169050610480515f526104a0516020526128205160405260406131a060605f60075afa16604061316060808160065afa811690506104c0515f526104e0516020526128405160405260406131a060605f60075afa16604061316060808160065afa81169050610500515f52610520516020526128605160405260406131a060605f60075afa16604061316060808160065afa81169050610540515f52610560516020526128805160405260406131a060605f60075afa16604061316060808160065afa81169050610580515f526105a0516020526128a05160405260406131a060605f60075afa16604061316060808160065afa811690506105c0515f526105e0516020526128c05160405260406131a060605f60075afa16604061316060808160065afa81169050610600515f52610620516020526128e05160405260406131a060605f60075afa16604061316060808160065afa81169050610640515f52610660516020526129005160405260406131a060605f60075afa16604061316060808160065afa81169050610680515f526106a0516020526129205160405260406131a060605f60075afa16604061316060808160065afa811690506106c0515f526106e0516020526129405160405260406131a060605f60075afa16604061316060808160065afa81169050610700515f52610720516020526129605160405260406131a060605f60075afa16604061316060808160065afa81169050610740515f52610760516020526129805160405260406131a060605f60075afa16604061316060808160065afa81169050610780515f526107a051602052816129a051836001612b0051080960405260406131a060605f60075afa16604061316060808160065afa811690506107c0515f526107e051602052816129c051836001612b0051080960405260406131a060605f60075afa16604061316060808160065afa81169050610800515f5261082051602052816129e051836001612b0051080960405260406131a060605f60075afa16604061316060808160065afa81169050610840515f526108605160205281612a0051836001612b0051080960405260406131a060605f60075afa16604061316060808160065afa81169050610880515f526108a051602052612a205160405260406131a060605f60075afa16604061316060808160065afa811690506108c0515f526108e051602052612a405160405260406131a060605f60075afa16604061316060808160065afa81169050610900515f5261092051602052612a605160405260406131a060605f60075afa16604061316060808160065afa81169050610940515f5261096051602052612a805160405260406131a060605f60075afa16604061316060808160065afa81169050610980515f526109a051602052612aa05160405260406131a060605f60075afa16604061316060808160065afa8116905081826116005184612b00516119e051090861270051098283846116205186612b00516120005109086127205109820890508283846116405186612b00516120205109086127405109820890508283846116605186612b00516120405109086127605109820890508283846116805186612b00516120605109086127805109820890508283846116a05186612b00516120805109086127a05109820890508283846116c05186612b00516120a05109086127c051098208905082836116e0516127e051098208905082836117005161280051098208905082836117205161282051098208905082836117405161284051098208905082836117605161286051098208905082836117805161288051098208905082836117a0516128a051098208905082836117c0516128c051098208905082836117e0516128e051098208905082836118005161290051098208905082836119605161292051098208905082836119805161294051098208905082836119a05161296051098208905082836119c0516129805109820890508283846118405186612b00516120c05109086129a05109820890508283846118605186612b00516120e05109086129c05109820890508283846118805186612b00516121005109086129e05109820890508283846118a05186612b0051612120510908612a0051098208905082836118c051612a2051098208905082836118e051612a40510982089050828361190051612a60510982089050828361192051612a80510982089050828361194051612aa051098208905082613660518208905060015f5260026020528083036040525060406131a060605f60075afa16604061316060808160065afa168061273a57634e71976360e01b5f5260045ffd5b612b00516126c0516123005161232051868283098760038983860908888384091461276e576328f6b59560e21b5f5260045ffd5b50815f528060205250508060405260406131a060605f60075afa92506040613160608061316060065afa83169250612340516123605186828309876003898386090888838409146127c8576328f6b59560e21b5f5260045ffd5b50815f52806020525050836103c05185838509096040525060406131a060605f60075afa821691506040613220608061316060065afa82169150612300515f52612320516020526123405160405261236051606052806080526040806060604060075afa8216915060406131e060805f60065afa82169150613200518403613200526109c0511561291d576134005161342051858283098660038883860908878384091461287f576328f6b59560e21b5f5260045ffd5b505f919091526020528281800960405260406060805f60075afa82169150613440516134605185828309866003888386090887838409146128c9576328f6b59560e21b5f5260045ffd5b505f91825260205260409060608160075afa821691506132205160a0526132405160c05260406132206080606060065afa821691506131e0516040526132005160605260406131e060805f60065afa821691505b5080612932576301882d8160e01b5f5260045ffd5b613220515f52613240516020527f198e9393920d483a7260bfb731fb5d25f1aa493335a9e71297e485b7aef312c26040527f1800deef121f1e76426a00665e5c4479674322d4f75edadd46debd5cd992f6ed6060527f090689d0585ff075ec9e99ad690c3395bc4b313370b38ef355acdadcd122975b6080527f12c85ea5db8c6deb4aab71808dcb408fe3d1e7690c43d37b4ce6cc0166fa7daa60a0526131e05160c0526132005160e052610a005161010052610a205161012052610a405161014052610a60516101605260205f6101805f60085afa90505f518116612a215763d71fd26360e01b5f5260045ffd5b50505060015f5260205ff35b5f805f8060408587031215612a40575f80fd5b843567ffffffffffffffff80821115612a57575f80fd5b818701915087601f830112612a6a575f80fd5b813581811115612a78575f80fd5b886020828501011115612a89575f80fd5b602092830196509450908601359080821115612aa3575f80fd5b818701915087601f830112612ab6575f80fd5b813581811115612ac4575f80fd5b8860208260051b8501011115612ad8575f80fd5b9598949750506020019450505056fea26469706673582212207aab4fa01cde20cc3ebe088e6aef3102a10f9961504f8bf8f97c6a279b961b1a64736f6c63430008170033",
  "linkReferences": {},
  "deployedLinkReferences": {}
}