{
  "_format": "hh-sol-artifact-1",
  "contractName": "Token",
  "sourceName": "contracts/Token.sol",
  "abi": [
    {
      "inputs": [],
      "stateMutability": "nonpayable",
      "type": "constructor"
    },
    {
      "inputs": [],
      "name": "ECDSAInvalidSignature",
      "type": "error"
    },
    {
      "inputs": [
        {
          "internalType": "uint256",
          "name": "length",
          "type": "uint256"
        }
      ],
      "name": "ECDSAInvalidSignatureLength",
      "type": "error"
    },
    {
      "inputs": [
        {
          "internalType": "bytes32",
          "name": "s",
          "type": "bytes32"
        }
      ],
      "name": "ECDSAInvalidSignatureS",
      "type": "error"
    },
    {
      "inputs": [
        {
          "internalType": "address",
          "name": "spender",
          "type": "address"
        },
        {
          "internalType": "uint256",
          "name": "allowance",
          "type": "uint256"
        },
        {
          "internalType": "uint256",
          "name": "needed",
          "type": "uint256"
        }
      ],
      "name": "ERC20InsufficientAllowance",
      "type": "error"
    },
    {
      "inputs": [
        {
          "internalType": "address",
          "name": "sender",
          "type": "address"
        },
        {
          "internalType": "uint256",
          "name": "balance",
          "type": "uint256"
        },
        {
          "internalType": "uint256",
          "name": "needed",
          "type": "uint256"
        }
      ],
      "name": "ERC20InsufficientBalance",
      "type": "error"
    },
    {
      "inputs": [
        {
          "internalType": "address",
          "name": "approver",
          "type": "address"
        }
      ],
      "name": "ERC20InvalidApprover",
      "type": "error"
    },
    {
      "inputs": [
        {
          "internalType": "address",
          "name": "receiver",
          "type": "address"
        }
      ],
      "name": "ERC20InvalidReceiver",
      "type": "error"
    },
    {
      "inputs": [
        {
          "internalType": "address",
          "name": "sender",
          "type": "address"
        }
      ],
      "name": "ERC20InvalidSender",
      "type": "error"
    },
    {
      "inputs": [
        {
          "internalType": "address",
          "name": "spender",
          "type": "address"
        }
      ],
      "name": "ERC20InvalidSpender",
      "type": "error"
    },
    {
      "inputs": [
        {
          "internalType": "uint256",
          "name": "deadline",
          "type": "uint256"
        }
      ],
      "name": "ERC2612ExpiredSignature",
      "type": "error"
    },
    {
      "inputs": [
        {
          "internalType": "address",
          "name": "signer",
          "type": "address"
        },
        {
          "internalType": "address",
          "name": "owner",
          "type": "address"
        }
      ],
      "name": "ERC2612InvalidSigner",
      "type": "error"
    },
    {
      "inputs": [
        {
          "internalType": "address",
          "name": "account",
          "type": "address"
        },
        {
          "internalType": "uint256",
          "name": "currentNonce",
          "type": "uint256"
        }
      ],
      "name": "InvalidAccountNonce",
      "type": "error"
    },
    {
      "inputs": [],
      "name": "InvalidShortString",
      "type": "error"
    },
    {
      "inputs": [
        {
          "internalType": "address",
          "name": "owner",
          "type": "address"
        }
      ],
      "name": "OwnableInvalidOwner",
      "type": "error"
    },
    {
      "inputs": [
        {
          "internalType": "address",
          "name": "account",
          "type": "address"
        }
      ],
      "name": "OwnableUnauthorizedAccount",
      "type": "error"
    },
    {
      "inputs": [
        {
          "internalType": "string",
          "name": "str",
          "type": "string"
        }
      ],
      "name": "StringTooLong",
      "type": "error"
    },
    {
      "inputs": [],
      "name": "VerificationFailed",
      "type": "error"
    },
    {
      "anonymous": false,
      "inputs": [
        {
          "indexed": true,
          "internalType": "address",
          "name": "owner",
          "type": "address"
        },
        {
          "indexed": true,
          "internalType": "address",
          "name": "spender",
          "type": "address"
        },
        {
          "indexed": false,
          "internalType": "uint256",
          "name": "value",
          "type": "uint256"
        }
      ],
      "name": "Approval",
      "type": "event"
    },
    {
      "anonymous": false,
      "inputs": [],
      "name": "EIP712DomainChanged",
      "type": "event"
    },
    {
      "anonymous": false,
      "inputs": [
        {
          "indexed": true,
          "internalType": "address",
          "name": "previousOwner",
          "type": "address"
        },
        {
          "indexed": true,
          "internalType": "address",
          "name": "newOwner",
          "type": "address"
        }
      ],
      "name": "OwnershipTransferred",
      "type": "event"
    },
    {
      "anonymous": false,
      "inputs": [
        {
          "indexed": true,
          "internalType": "address",
          "name": "from",
          "type": "address"
        },
        {
          "indexed": true,
          "internalType": "address",
          "name": "to",
          "type": "address"
        },
        {
          "indexed": false,
          "internalType": "uint256",
          "name": "value",
          "type": "uint256"
        }
      ],
      "name": "Transfer",
      "type": "event"
    },
    {
      "inputs": [],
      "name": "DOMAIN_SEPARATOR",
      "outputs": [
        {
          "internalType": "bytes32",
          "name": "",
          "type": "bytes32"
        }
      ],
      "stateMutability": "view",
      "type": "function"
    },
    {
      "inputs": [
        {
          "internalType": "address",
          "name": "owner",
          "type": "address"
        },
        {
          "internalType": "address",
          "name": "spender",
          "type": "address"
        }
      ],
      "name": "allowance",
      "outputs": [
        {
          "internalType": "uint256",
          "name": "",
          "type": "uint256"
        }
      ],
      "stateMutability": "view",
      "type": "function"
    },
    {
      "inputs": [
        {
          "internalType": "address",
          "name": "spender",
          "type": "address"
        },
        {
          "internalType": "uint256",
          "name": "value",
          "type": "uint256"
        }
      ],
      "name": "approve",
      "outputs": [
        {
          "internalType": "bool",
          "name": "",
          "type": "bool"
        }
      ],
      "stateMutability": "nonpayable",
      "type": "function"
    },
    {
      "inputs": [
        {
          "internalType": "address",
          "name": "account",
          "type": "address"
        }
      ],
      "name": "balanceOf",
      "outputs": [
        {
          "internalType": "uint256",
          "name": "",
          "type": "uint256"
        }
      ],
      "stateMutability": "view",
      "type": "function"
    },
    {
      "inputs": [],
      "name": "decimals",
      "outputs": [
        {
          "internalType": "uint8",
          "name": "",
          "type": "uint8"
        }
      ],
      "stateMutability": "view",
      "type": "function"
    },
    {
      "inputs": [],
      "name": "eip712Domain",
      "outputs": [
        {
          "internalType": "bytes1",
          "name": "fields",
          "type": "bytes1"
        },
        {
          "internalType": "string",
          "name": "name",
          "type": "string"
        },
        {
          "internalType": "string",
          "name": "version",
          "type": "string"
        },
        {
          "internalType": "uint256",
          "name": "chainId",
          "type": "uint256"
        },
        {
          "internalType": "address",
          "name": "verifyingContract",
          "type": "address"
        },
        {
          "internalType": "bytes32",
          "name": "salt",
          "type": "bytes32"
        },
        {
          "internalType": "uint256[]",
          "name": "extensions",
          "type": "uint256[]"
        }
      ],
      "stateMutability": "view",
      "type": "function"
    },
    {
      "inputs": [],
      "name": "fullVerifier",
      "outputs": [
        {
          "internalType": "address",
          "name": "",
          "type": "address"
        }
      ],
      "stateMutability": "view",
      "type": "function"
    },
    {
      "inputs": [
        {
          "internalType": "address",
          "name": "to",
          "type": "address"
        },
        {
          "internalType": "uint256",
          "name": "amount",
          "type": "uint256"
        }
      ],
      "name": "mint",
      "outputs": [],
      "stateMutability": "nonpayable",
      "type": "function"
    },
    {
      "inputs": [],
      "name": "name",
      "outputs": [
        {
          "internalType": "string",
          "name": "",
          "type": "string"
        }
      ],
      "stateMutability": "view",
      "type": "function"
    },
    {
      "inputs": [
        {
          "internalType": "address",
          "name": "owner",
          "type": "address"
        }
      ],
      "name": "nonces",
      "outputs": [
        {
          "internalType": "uint256",
          "name": "",
          "type": "uint256"
        }
      ],
      "stateMutability": "view",
      "type": "function"
    },
    {
      "inputs": [],
      "name": "owner",
      "outputs": [
        {
          "internalType": "address",
          "name": "",
          "type": "address"
        }
      ],
      "stateMutability": "view",
      "type": "function"
    },
    {
      "inputs": [
        {
          "internalType": "address",
          "name": "owner",
          "type": "address"
        },
        {
          "internalType": "address",
          "name": "spender",
          "type": "address"
        },
        {
          "internalType": "uint256",
          "name": "value",
          "type": "uint256"
        },
        {
          "internalType": "uint256",
          "name": "deadline",
          "type": "uint256"
        },
        {
          "internalType": "uint8",
          "name": "v",
          "type": "uint8"
        },
        {
          "internalType": "bytes32",
          "name": "r",
          "type": "bytes32"
        },
        {
          "internalType": "bytes32",
          "name": "s",
          "type": "bytes32"
        }
      ],
      "name": "permit",
      "outputs": [],
      "stateMutability": "nonpayable",
      "type": "function"
    },
    {
      "inputs": [
        {
          "internalType": "address",
          "name": "to",
          "type": "address"
        },
        {
          "internalType": "uint256",
          "name": "amount",
          "type": "uint256"
        },
        {
          "internalType": "uint256",
          "name": "blockNum",
          "type": "uint256"
        },
        {
          "internalType": "bytes",
          "name": "snarkProof",
          "type": "bytes"
        }
      ],
      "name": "reMint",
      "outputs": [],
      "stateMutability": "nonpayable",
      "type": "function"
    },
    {
      "inputs": [
        {
          "internalType": "address",
          "name": "to",
          "type": "address"
        },
        {
          "internalType": "uint256",
          "name": "amount",
          "type": "uint256"
        },
        {
          "internalType": "uint256",
          "name": "blockNum",
          "type": "uint256"
        },
        {
          "internalType": "bytes",
          "name": "snarkProof",
          "type": "bytes"
        }
      ],
      "name": "reMintFullVerifier",
      "outputs": [],
      "stateMutability": "nonpayable",
      "type": "function"
    },
    {
      "inputs": [],
      "name": "renounceOwnership",
      "outputs": [],
      "stateMutability": "nonpayable",
      "type": "function"
    },
    {
      "inputs": [
        {
          "internalType": "address",
          "name": "_fullVerifier",
          "type": "address"
        },
        {
          "internalType": "address",
          "name": "_smolVerifier",
          "type": "address"
        }
      ],
      "name": "setVerifiers",
      "outputs": [],
      "stateMutability": "nonpayable",
      "type": "function"
    },
    {
      "inputs": [],
      "name": "smolVerifier",
      "outputs": [
        {
          "internalType": "address",
          "name": "",
          "type": "address"
        }
      ],
      "stateMutability": "view",
      "type": "function"
    },
    {
      "inputs": [],
      "name": "symbol",
      "outputs": [
        {
          "internalType": "string",
          "name": "",
          "type": "string"
        }
      ],
      "stateMutability": "view",
      "type": "function"
    },
    {
      "inputs": [],
      "name": "totalSupply",
      "outputs": [
        {
          "internalType": "uint256",
          "name": "",
          "type": "uint256"
        }
      ],
      "stateMutability": "view",
      "type": "function"
    },
    {
      "inputs": [
        {
          "internalType": "address",
          "name": "to",
          "type": "address"
        },
        {
          "internalType": "uint256",
          "name": "value",
          "type": "uint256"
        }
      ],
      "name": "transfer",
      "outputs": [
        {
          "internalType": "bool",
          "name": "",
          "type": "bool"
        }
      ],
      "stateMutability": "nonpayable",
      "type": "function"
    },
    {
      "inputs": [
        {
          "internalType": "address",
          "name": "from",
          "type": "address"
        },
        {
          "internalType": "address",
          "name": "to",
          "type": "address"
        },
        {
          "internalType": "uint256",
          "name": "value",
          "type": "uint256"
        }
      ],
      "name": "transferFrom",
      "outputs": [
        {
          "internalType": "bool",
          "name": "",
          "type": "bool"
        }
      ],
      "stateMutability": "nonpayable",
      "type": "function"
    },
    {
      "inputs": [
        {
          "internalType": "address",
          "name": "newOwner",
          "type": "address"
        }
      ],
      "name": "transferOwnership",
      "outputs": [],
      "stateMutability": "nonpayable",
      "type": "function"
    }
  ],
  "bytecode": "0x6101606040523480156200001257600080fd5b50604051806040016040528060058152602001643a37b5b2b760d91b81525080604051806040016040528060018152602001603160f81b81525033604051806040016040528060058152602001643a37b5b2b760d91b815250604051806040016040528060038152602001623a35b760e91b815250816003908162000098919062000317565b506004620000a7828262000317565b5050506001600160a01b038116620000da57604051631e4fbdf760e01b8152600060048201526024015b60405180910390fd5b620000e581620001a2565b50620000f3826006620001f4565b6101205262000104816007620001f4565b61014052815160208084019190912060e052815190820120610100524660a0526200019260e05161010051604080517f8b73c3c69bb8fe3d512ecc4cf759cc79239f7b179b0ffacaa9a75d522b39400f60208201529081019290925260608201524660808201523060a082015260009060c00160405160208183030381529060405280519060200120905090565b60805250503060c0525062000459565b600580546001600160a01b038381166001600160a01b0319831681179093556040519116919082907f8be0079c531659141344cd1fd0a4f28419497f9722a3daafe3b4186f6b6457e090600090a35050565b600060208351101562000214576200020c836200022d565b905062000227565b8162000221848262000317565b5060ff90505b92915050565b600080829050601f815111156200025b578260405163305a27a960e01b8152600401620000d19190620003e3565b8051620002688262000434565b179392505050565b634e487b7160e01b600052604160045260246000fd5b600181811c908216806200029b57607f821691505b602082108103620002bc57634e487b7160e01b600052602260045260246000fd5b50919050565b601f82111562000312576000816000526020600020601f850160051c81016020861015620002ed5750805b601f850160051c820191505b818110156200030e57828155600101620002f9565b5050505b505050565b81516001600160401b0381111562000333576200033362000270565b6200034b8162000344845462000286565b84620002c2565b602080601f8311600181146200038357600084156200036a5750858301515b600019600386901b1c1916600185901b1785556200030e565b600085815260208120601f198616915b82811015620003b45788860151825594840194600190910190840162000393565b5085821015620003d35787850151600019600388901b60f8161c191681555b5050505050600190811b01905550565b60006020808352835180602085015260005b818110156200041357858101830151858201604001528201620003f5565b506000604082860101526040601f19601f8301168501019250505092915050565b80516020808301519190811015620002bc5760001960209190910360031b1b16919050565b60805160a05160c05160e051610100516101205161014051611539620004b46000396000610bf501526000610bc801526000610abb01526000610a93015260006109ee01526000610a1801526000610a4201526115396000f3fe608060405234801561001057600080fd5b50600436106101425760003560e01c8063715018a6116100b857806395d89b411161007c57806395d89b41146102ad578063a9059cbb146102b5578063c8859a26146102c8578063d505accf146102db578063dd62ed3e146102ee578063f2fde38b1461032757600080fd5b8063715018a6146102535780637c154d401461025b5780637ecebe001461026e57806384b0196e146102815780638da5cb5b1461029c57600080fd5b80633644e5151161010a5780633644e515146101bc57806340c10f19146101c45780635225d4eb146101d95780635fad58e0146102045780636688321b1461021757806370a082311461022a57600080fd5b806306fdde0314610147578063095ea7b31461016557806318160ddd1461018857806323b872dd1461019a578063313ce567146101ad575b600080fd5b61014f61033a565b60405161015c9190611155565b60405180910390f35b61017861017336600461118b565b6103cc565b604051901515815260200161015c565b6002545b60405190815260200161015c565b6101786101a83660046111b5565b6103e6565b6040516012815260200161015c565b61018c61040a565b6101d76101d236600461118b565b610419565b005b600a546101ec906001600160a01b031681565b6040516001600160a01b03909116815260200161015c565b6101d76102123660046111f1565b610427565b6009546101ec906001600160a01b031681565b61018c610238366004611285565b6001600160a01b031660009081526020819052604090205490565b6101d7610548565b6101d76102693660046112a0565b61055c565b61018c61027c366004611285565b610649565b610289610667565b60405161015c97969594939291906112d3565b6005546001600160a01b03166101ec565b61014f6106ad565b6101786102c336600461118b565b6106bc565b6101d76102d63660046111f1565b6106ca565b6101d76102e936600461136c565b61077a565b61018c6102fc3660046112a0565b6001600160a01b03918216600090815260016020908152604080832093909416825291909152205490565b6101d7610335366004611285565b6108b4565b606060038054610349906113df565b80601f0160208091040260200160405190810160405280929190818152602001828054610375906113df565b80156103c25780601f10610397576101008083540402835291602001916103c2565b820191906000526020600020905b8154815290600101906020018083116103a557829003601f168201915b5050505050905090565b6000336103da8185856108f2565b60019150505b92915050565b6000336103f4858285610904565b6103ff858585610982565b506001949350505050565b60006104146109e1565b905090565b6104238282610b0c565b5050565b60008340905060608660601b6bffffffffffffffffffffffff19168160008151811061045557610455611419565b6020026020010181815250508560001b8160018151811061047857610478611419565b602002602001018181525050818160028151811061049857610498611419565b6020908102919091010152600954604051633a94343960e21b81526001600160a01b039091169063ea50d0e4906104d79087908790869060040161142f565b602060405180830381865afa1580156104f4573d6000803e3d6000fd5b505050506040513d601f19601f8201168201806040525081019061051891906114aa565b6105355760405163439cc0cd60e01b815260040160405180910390fd5b61053f8787610b0c565b50505050505050565b610550610b42565b61055a6000610b6f565b565b610564610b42565b6009546001600160a01b0316156105c25760405162461bcd60e51b815260206004820152601d60248201527f766572696669657220697320616c7265616479207365742073696c6c7900000060448201526064015b60405180910390fd5b600a546001600160a01b03161561061b5760405162461bcd60e51b815260206004820152601d60248201527f766572696669657220697320616c7265616479207365742073696c6c7900000060448201526064016105b9565b600a80546001600160a01b039384166001600160a01b03199182161790915560098054929093169116179055565b6001600160a01b0381166000908152600860205260408120546103e0565b60006060806000806000606061067b610bc1565b610683610bee565b60408051600080825260208201909252600f60f81b9b939a50919850469750309650945092509050565b606060048054610349906113df565b6000336103da818585610982565b60008340905060608660601b6bffffffffffffffffffffffff1916816000815181106106f8576106f8611419565b6020026020010181815250508560001b8160018151811061071b5761071b611419565b602002602001018181525050818160028151811061073b5761073b611419565b6020908102919091010152600a54604051633a94343960e21b81526001600160a01b039091169063ea50d0e4906104d79087908790869060040161142f565b8342111561079e5760405163313c898160e11b8152600481018590526024016105b9565b60007f6e71edae12b1b97f4d1f60370fef10105fa2faae0126114a169c64845d6126c98888886107eb8c6001600160a01b0316600090815260086020526040902080546001810190915590565b6040805160208101969096526001600160a01b0394851690860152929091166060840152608083015260a082015260c0810186905260e001604051602081830303815290604052805190602001209050600061084682610c1b565b9050600061085682878787610c48565b9050896001600160a01b0316816001600160a01b03161461089d576040516325c0072360e11b81526001600160a01b0380831660048301528b1660248201526044016105b9565b6108a88a8a8a6108f2565b50505050505050505050565b6108bc610b42565b6001600160a01b0381166108e657604051631e4fbdf760e01b8152600060048201526024016105b9565b6108ef81610b6f565b50565b6108ff8383836001610c76565b505050565b6001600160a01b03838116600090815260016020908152604080832093861683529290522054600019811461097c578181101561096d57604051637dc7a0d960e11b81526001600160a01b038416600482015260248101829052604481018390526064016105b9565b61097c84848484036000610c76565b50505050565b6001600160a01b0383166109ac57604051634b637e8f60e11b8152600060048201526024016105b9565b6001600160a01b0382166109d65760405163ec442f0560e01b8152600060048201526024016105b9565b6108ff838383610d4b565b6000306001600160a01b037f000000000000000000000000000000000000000000000000000000000000000016148015610a3a57507f000000000000000000000000000000000000000000000000000000000000000046145b15610a6457507f000000000000000000000000000000000000000000000000000000000000000090565b610414604080517f8b73c3c69bb8fe3d512ecc4cf759cc79239f7b179b0ffacaa9a75d522b39400f60208201527f0000000000000000000000000000000000000000000000000000000000000000918101919091527f000000000000000000000000000000000000000000000000000000000000000060608201524660808201523060a082015260009060c00160405160208183030381529060405280519060200120905090565b6001600160a01b038216610b365760405163ec442f0560e01b8152600060048201526024016105b9565b61042360008383610d4b565b6005546001600160a01b0316331461055a5760405163118cdaa760e01b81523360048201526024016105b9565b600580546001600160a01b038381166001600160a01b0319831681179093556040519116919082907f8be0079c531659141344cd1fd0a4f28419497f9722a3daafe3b4186f6b6457e090600090a35050565b60606104147f00000000000000000000000000000000000000000000000000000000000000006006610e75565b60606104147f00000000000000000000000000000000000000000000000000000000000000006007610e75565b60006103e0610c286109e1565b8360405161190160f01b8152600281019290925260228201526042902090565b600080600080610c5a88888888610f20565b925092509250610c6a8282610fef565b50909695505050505050565b6001600160a01b038416610ca05760405163e602df0560e01b8152600060048201526024016105b9565b6001600160a01b038316610cca57604051634a1406b160e11b8152600060048201526024016105b9565b6001600160a01b038085166000908152600160209081526040808320938716835292905220829055801561097c57826001600160a01b0316846001600160a01b03167f8c5be1e5ebec7d5bd14f71427d1e84f3dd0314c0f7b2291e5b200ac8c7c3b92584604051610d3d91815260200190565b60405180910390a350505050565b6001600160a01b038316610d76578060026000828254610d6b91906114cc565b90915550610de89050565b6001600160a01b03831660009081526020819052604090205481811015610dc95760405163391434e360e21b81526001600160a01b038516600482015260248101829052604481018390526064016105b9565b6001600160a01b03841660009081526020819052604090209082900390555b6001600160a01b038216610e0457600280548290039055610e23565b6001600160a01b03821660009081526020819052604090208054820190555b816001600160a01b0316836001600160a01b03167fddf252ad1be2c89b69c2b068fc378daa952ba7f163c4a11628f55a4df523b3ef83604051610e6891815260200190565b60405180910390a3505050565b606060ff8314610e8f57610e88836110a8565b90506103e0565b818054610e9b906113df565b80601f0160208091040260200160405190810160405280929190818152602001828054610ec7906113df565b8015610f145780601f10610ee957610100808354040283529160200191610f14565b820191906000526020600020905b815481529060010190602001808311610ef757829003601f168201915b505050505090506103e0565b600080807f7fffffffffffffffffffffffffffffff5d576e7357a4501ddfe92f46681b20a0841115610f5b5750600091506003905082610fe5565b604080516000808252602082018084528a905260ff891692820192909252606081018790526080810186905260019060a0016020604051602081039080840390855afa158015610faf573d6000803e3d6000fd5b5050604051601f1901519150506001600160a01b038116610fdb57506000925060019150829050610fe5565b9250600091508190505b9450945094915050565b6000826003811115611003576110036114ed565b0361100c575050565b6001826003811115611020576110206114ed565b0361103e5760405163f645eedf60e01b815260040160405180910390fd5b6002826003811115611052576110526114ed565b036110735760405163fce698f760e01b8152600481018290526024016105b9565b6003826003811115611087576110876114ed565b03610423576040516335e2f38360e21b8152600481018290526024016105b9565b606060006110b5836110e7565b604080516020808252818301909252919250600091906020820181803683375050509182525060208101929092525090565b600060ff8216601f8111156103e057604051632cd44ac360e21b815260040160405180910390fd5b6000815180845260005b8181101561113557602081850181015186830182015201611119565b506000602082860101526020601f19601f83011685010191505092915050565b602081526000611168602083018461110f565b9392505050565b80356001600160a01b038116811461118657600080fd5b919050565b6000806040838503121561119e57600080fd5b6111a78361116f565b946020939093013593505050565b6000806000606084860312156111ca57600080fd5b6111d38461116f565b92506111e16020850161116f565b9150604084013590509250925092565b60008060008060006080868803121561120957600080fd5b6112128661116f565b94506020860135935060408601359250606086013567ffffffffffffffff8082111561123d57600080fd5b818801915088601f83011261125157600080fd5b81358181111561126057600080fd5b89602082850101111561127257600080fd5b9699959850939650602001949392505050565b60006020828403121561129757600080fd5b6111688261116f565b600080604083850312156112b357600080fd5b6112bc8361116f565b91506112ca6020840161116f565b90509250929050565b60ff60f81b881681526000602060e060208401526112f460e084018a61110f565b8381036040850152611306818a61110f565b606085018990526001600160a01b038816608086015260a0850187905284810360c08601528551808252602080880193509091019060005b8181101561135a5783518352928401929184019160010161133e565b50909c9b505050505050505050505050565b600080600080600080600060e0888a03121561138757600080fd5b6113908861116f565b965061139e6020890161116f565b95506040880135945060608801359350608088013560ff811681146113c257600080fd5b9699959850939692959460a0840135945060c09093013592915050565b600181811c908216806113f357607f821691505b60208210810361141357634e487b7160e01b600052602260045260246000fd5b50919050565b634e487b7160e01b600052603260045260246000fd5b60408152826040820152828460608301376000606084830101526000601f19601f85011682016060810160206060858403016020860152818651808452608085019150602088019450600093505b8084101561149d578451825293820193600193909301929082019061147d565b5098975050505050505050565b6000602082840312156114bc57600080fd5b8151801515811461116857600080fd5b808201808211156103e057634e487b7160e01b600052601160045260246000fd5b634e487b7160e01b600052602160045260246000fdfea26469706673582212201473a05094a03dc3fa5c0cd62026dece6c47a64b9d58427720bdce1a6d4d4dce64736f6c63430008170033",
  "linkReferences": {},
  "deployedLinkReferences": {}
}